{
	"contracts/Lesson3_Fund.sol": {
		"Fundme": {
			"abi": [
				{
					"inputs": [],
					"name": "Fund",
					"outputs": [],
					"stateMutability": "payable",
					"type": "function"
				},
				{
					"inputs": [
						{
							"internalType": "uint256",
							"name": "ETH",
							"type": "uint256"
						}
					],
					"name": "GetConversionRate",
					"outputs": [
						{
							"internalType": "uint256",
							"name": "",
							"type": "uint256"
						}
					],
					"stateMutability": "view",
					"type": "function"
				},
				{
					"inputs": [],
					"name": "GetPrice",
					"outputs": [
						{
							"internalType": "uint256",
							"name": "",
							"type": "uint256"
						}
					],
					"stateMutability": "view",
					"type": "function"
				},
				{
					"inputs": [],
					"name": "GetVersion",
					"outputs": [
						{
							"internalType": "uint256",
							"name": "",
							"type": "uint256"
						}
					],
					"stateMutability": "view",
					"type": "function"
				},
				{
					"inputs": [],
					"name": "Withdraw",
					"outputs": [],
					"stateMutability": "payable",
					"type": "function"
				},
				{
					"inputs": [
						{
							"internalType": "address",
							"name": "",
							"type": "address"
						}
					],
					"name": "addrToamount",
					"outputs": [
						{
							"internalType": "uint256",
							"name": "",
							"type": "uint256"
						}
					],
					"stateMutability": "view",
					"type": "function"
				}
			],
			"devdoc": {
				"methods": {}
			},
			"evm": {
				"assembly": "    /* \"contracts/Lesson3_Fund.sol\":220:1479  contract Fundme{\r... */\n  mstore(0x40, 0x80)\n  callvalue\n    /* \"--CODEGEN--\":5:14   */\n  dup1\n    /* \"--CODEGEN--\":2:4   */\n  iszero\n  tag_1\n  jumpi\n    /* \"--CODEGEN--\":27:28   */\n  0x00\n    /* \"--CODEGEN--\":24:25   */\n  dup1\n    /* \"--CODEGEN--\":17:29   */\n  revert\n    /* \"--CODEGEN--\":2:4   */\ntag_1:\n    /* \"contracts/Lesson3_Fund.sol\":220:1479  contract Fundme{\r... */\n  pop\n  dataSize(sub_0)\n  dup1\n  dataOffset(sub_0)\n  0x00\n  codecopy\n  0x00\n  return\nstop\n\nsub_0: assembly {\n        /* \"contracts/Lesson3_Fund.sol\":220:1479  contract Fundme{\r... */\n      mstore(0x40, 0x80)\n      jumpi(tag_1, lt(calldatasize, 0x04))\n      shr(0xe0, calldataload(0x00))\n      dup1\n      0x57ea89b6\n      eq\n      tag_2\n      jumpi\n      dup1\n      0x6ce1417e\n      eq\n      tag_3\n      jumpi\n      dup1\n      0x6d90164e\n      eq\n      tag_4\n      jumpi\n      dup1\n      0x793b233b\n      eq\n      tag_5\n      jumpi\n      dup1\n      0x8789aaad\n      eq\n      tag_6\n      jumpi\n      dup1\n      0xc6129a5a\n      eq\n      tag_7\n      jumpi\n    tag_1:\n        /* \"--CODEGEN--\":12:13   */\n      0x00\n        /* \"--CODEGEN--\":9:10   */\n      dup1\n        /* \"--CODEGEN--\":2:14   */\n      revert\n        /* \"contracts/Lesson3_Fund.sol\":674:770  function Withdraw() public payable {\r... */\n    tag_2:\n      tag_8\n      tag_9\n      jump\t// in\n    tag_8:\n      stop\n        /* \"contracts/Lesson3_Fund.sol\":343:666  function Fund() public payable {\r... */\n    tag_3:\n      tag_10\n      tag_11\n      jump\t// in\n    tag_10:\n      stop\n        /* \"contracts/Lesson3_Fund.sol\":778:1061  function GetPrice() public view returns(uint256)\r... */\n    tag_4:\n      callvalue\n        /* \"--CODEGEN--\":5:14   */\n      dup1\n        /* \"--CODEGEN--\":2:4   */\n      iszero\n      tag_12\n      jumpi\n        /* \"--CODEGEN--\":27:28   */\n      0x00\n        /* \"--CODEGEN--\":24:25   */\n      dup1\n        /* \"--CODEGEN--\":17:29   */\n      revert\n        /* \"--CODEGEN--\":2:4   */\n    tag_12:\n        /* \"contracts/Lesson3_Fund.sol\":778:1061  function GetPrice() public view returns(uint256)\r... */\n      pop\n      tag_13\n      tag_14\n      jump\t// in\n    tag_13:\n      mload(0x40)\n      dup1\n      dup3\n      dup2\n      mstore\n      0x20\n      add\n      swap2\n      pop\n      pop\n      mload(0x40)\n      dup1\n      swap2\n      sub\n      swap1\n      return\n        /* \"contracts/Lesson3_Fund.sol\":1069:1254  function GetConversionRate(uint256 ETH) public view returns(uint256) {\r... */\n    tag_5:\n      callvalue\n        /* \"--CODEGEN--\":5:14   */\n      dup1\n        /* \"--CODEGEN--\":2:4   */\n      iszero\n      tag_15\n      jumpi\n        /* \"--CODEGEN--\":27:28   */\n      0x00\n        /* \"--CODEGEN--\":24:25   */\n      dup1\n        /* \"--CODEGEN--\":17:29   */\n      revert\n        /* \"--CODEGEN--\":2:4   */\n    tag_15:\n        /* \"contracts/Lesson3_Fund.sol\":1069:1254  function GetConversionRate(uint256 ETH) public view returns(uint256) {\r... */\n      pop\n      tag_16\n      0x04\n      dup1\n      calldatasize\n      sub\n        /* \"--CODEGEN--\":15:17   */\n      0x20\n        /* \"--CODEGEN--\":10:13   */\n      dup2\n        /* \"--CODEGEN--\":7:18   */\n      lt\n        /* \"--CODEGEN--\":4:6   */\n      iszero\n      tag_17\n      jumpi\n        /* \"--CODEGEN--\":31:32   */\n      0x00\n        /* \"--CODEGEN--\":28:29   */\n      dup1\n        /* \"--CODEGEN--\":21:33   */\n      revert\n        /* \"--CODEGEN--\":4:6   */\n    tag_17:\n        /* \"contracts/Lesson3_Fund.sol\":1069:1254  function GetConversionRate(uint256 ETH) public view returns(uint256) {\r... */\n      dup2\n      add\n      swap1\n      dup1\n      dup1\n      calldataload\n      swap1\n      0x20\n      add\n      swap1\n      swap3\n      swap2\n      swap1\n      pop\n      pop\n      pop\n      tag_18\n      jump\t// in\n    tag_16:\n      mload(0x40)\n      dup1\n      dup3\n      dup2\n      mstore\n      0x20\n      add\n      swap2\n      pop\n      pop\n      mload(0x40)\n      dup1\n      swap2\n      sub\n      swap1\n      return\n        /* \"contracts/Lesson3_Fund.sol\":286:334  mapping (address => uint256) public addrToamount */\n    tag_6:\n      callvalue\n        /* \"--CODEGEN--\":5:14   */\n      dup1\n        /* \"--CODEGEN--\":2:4   */\n      iszero\n      tag_19\n      jumpi\n        /* \"--CODEGEN--\":27:28   */\n      0x00\n        /* \"--CODEGEN--\":24:25   */\n      dup1\n        /* \"--CODEGEN--\":17:29   */\n      revert\n        /* \"--CODEGEN--\":2:4   */\n    tag_19:\n        /* \"contracts/Lesson3_Fund.sol\":286:334  mapping (address => uint256) public addrToamount */\n      pop\n      tag_20\n      0x04\n      dup1\n      calldatasize\n      sub\n        /* \"--CODEGEN--\":15:17   */\n      0x20\n        /* \"--CODEGEN--\":10:13   */\n      dup2\n        /* \"--CODEGEN--\":7:18   */\n      lt\n        /* \"--CODEGEN--\":4:6   */\n      iszero\n      tag_21\n      jumpi\n        /* \"--CODEGEN--\":31:32   */\n      0x00\n        /* \"--CODEGEN--\":28:29   */\n      dup1\n        /* \"--CODEGEN--\":21:33   */\n      revert\n        /* \"--CODEGEN--\":4:6   */\n    tag_21:\n        /* \"contracts/Lesson3_Fund.sol\":286:334  mapping (address => uint256) public addrToamount */\n      dup2\n      add\n      swap1\n      dup1\n      dup1\n      calldataload\n      0xffffffffffffffffffffffffffffffffffffffff\n      and\n      swap1\n      0x20\n      add\n      swap1\n      swap3\n      swap2\n      swap1\n      pop\n      pop\n      pop\n      tag_22\n      jump\t// in\n    tag_20:\n      mload(0x40)\n      dup1\n      dup3\n      dup2\n      mstore\n      0x20\n      add\n      swap2\n      pop\n      pop\n      mload(0x40)\n      dup1\n      swap2\n      sub\n      swap1\n      return\n        /* \"contracts/Lesson3_Fund.sol\":1263:1476  function GetVersion() public view returns (uint256)\r... */\n    tag_7:\n      callvalue\n        /* \"--CODEGEN--\":5:14   */\n      dup1\n        /* \"--CODEGEN--\":2:4   */\n      iszero\n      tag_23\n      jumpi\n        /* \"--CODEGEN--\":27:28   */\n      0x00\n        /* \"--CODEGEN--\":24:25   */\n      dup1\n        /* \"--CODEGEN--\":17:29   */\n      revert\n        /* \"--CODEGEN--\":2:4   */\n    tag_23:\n        /* \"contracts/Lesson3_Fund.sol\":1263:1476  function GetVersion() public view returns (uint256)\r... */\n      pop\n      tag_24\n      tag_25\n      jump\t// in\n    tag_24:\n      mload(0x40)\n      dup1\n      dup3\n      dup2\n      mstore\n      0x20\n      add\n      swap2\n      pop\n      pop\n      mload(0x40)\n      dup1\n      swap2\n      sub\n      swap1\n      return\n        /* \"contracts/Lesson3_Fund.sol\":674:770  function Withdraw() public payable {\r... */\n    tag_9:\n        /* \"contracts/Lesson3_Fund.sol\":720:730  msg.sender */\n      caller\n        /* \"contracts/Lesson3_Fund.sol\":720:739  msg.sender.transfer */\n      0xffffffffffffffffffffffffffffffffffffffff\n      and\n        /* \"contracts/Lesson3_Fund.sol\":720:762  msg.sender.transfer(address(this).balance) */\n      0x08fc\n        /* \"contracts/Lesson3_Fund.sol\":740:761  address(this).balance */\n      selfbalance\n        /* \"contracts/Lesson3_Fund.sol\":720:762  msg.sender.transfer(address(this).balance) */\n      swap1\n      dup2\n      iszero\n      mul\n      swap1\n      mload(0x40)\n      0x00\n      mload(0x40)\n      dup1\n      dup4\n      sub\n      dup2\n      dup6\n      dup9\n      dup9\n      call\n      swap4\n      pop\n      pop\n      pop\n      pop\n      iszero\n        /* \"--CODEGEN--\":8:17   */\n      dup1\n        /* \"--CODEGEN--\":5:7   */\n      iszero\n      tag_28\n      jumpi\n        /* \"--CODEGEN--\":45:61   */\n      returndatasize\n        /* \"--CODEGEN--\":42:43   */\n      0x00\n        /* \"--CODEGEN--\":39:40   */\n      dup1\n        /* \"--CODEGEN--\":24:62   */\n      returndatacopy\n        /* \"--CODEGEN--\":77:93   */\n      returndatasize\n        /* \"--CODEGEN--\":74:75   */\n      0x00\n        /* \"--CODEGEN--\":67:94   */\n      revert\n        /* \"--CODEGEN--\":5:7   */\n    tag_28:\n        /* \"contracts/Lesson3_Fund.sol\":720:762  msg.sender.transfer(address(this).balance) */\n      pop\n        /* \"contracts/Lesson3_Fund.sol\":674:770  function Withdraw() public payable {\r... */\n      jump\t// out\n        /* \"contracts/Lesson3_Fund.sol\":343:666  function Fund() public payable {\r... */\n    tag_11:\n        /* \"contracts/Lesson3_Fund.sol\":389:400  uint256 min */\n      0x00\n        /* \"contracts/Lesson3_Fund.sol\":402:411  5 *10**18 */\n      0x4563918244f40000\n        /* \"contracts/Lesson3_Fund.sol\":389:411  uint256 min =5 *10**18 */\n      swap1\n      pop\n        /* \"contracts/Lesson3_Fund.sol\":547:550  min */\n      dup1\n        /* \"contracts/Lesson3_Fund.sol\":515:543  GetConversionRate(msg.value) */\n      tag_30\n        /* \"contracts/Lesson3_Fund.sol\":533:542  msg.value */\n      callvalue\n        /* \"contracts/Lesson3_Fund.sol\":515:532  GetConversionRate */\n      tag_18\n        /* \"contracts/Lesson3_Fund.sol\":515:543  GetConversionRate(msg.value) */\n      jump\t// in\n    tag_30:\n        /* \"contracts/Lesson3_Fund.sol\":515:550  GetConversionRate(msg.value) >= min */\n      lt\n      iszero\n        /* \"contracts/Lesson3_Fund.sol\":507:564  require(GetConversionRate(msg.value) >= min, \"Send more\") */\n      tag_31\n      jumpi\n      mload(0x40)\n      0x08c379a000000000000000000000000000000000000000000000000000000000\n      dup2\n      mstore\n      0x04\n      add\n      dup1\n      dup1\n      0x20\n      add\n      dup3\n      dup2\n      sub\n      dup3\n      mstore\n      0x09\n      dup2\n      mstore\n      0x20\n      add\n      dup1\n      0x53656e64206d6f72650000000000000000000000000000000000000000000000\n      dup2\n      mstore\n      pop\n      0x20\n      add\n      swap2\n      pop\n      pop\n      mload(0x40)\n      dup1\n      swap2\n      sub\n      swap1\n      revert\n    tag_31:\n        /* \"contracts/Lesson3_Fund.sol\":606:615  msg.value */\n      callvalue\n        /* \"contracts/Lesson3_Fund.sol\":579:591  addrToamount */\n      0x00\n        /* \"contracts/Lesson3_Fund.sol\":579:603  addrToamount[msg.sender] */\n      dup1\n        /* \"contracts/Lesson3_Fund.sol\":592:602  msg.sender */\n      caller\n        /* \"contracts/Lesson3_Fund.sol\":579:603  addrToamount[msg.sender] */\n      0xffffffffffffffffffffffffffffffffffffffff\n      and\n      0xffffffffffffffffffffffffffffffffffffffff\n      and\n      dup2\n      mstore\n      0x20\n      add\n      swap1\n      dup2\n      mstore\n      0x20\n      add\n      0x00\n      keccak256\n      0x00\n        /* \"contracts/Lesson3_Fund.sol\":579:615  addrToamount[msg.sender]+= msg.value */\n      dup3\n      dup3\n      sload\n      add\n      swap3\n      pop\n      pop\n      dup2\n      swap1\n      sstore\n      pop\n        /* \"contracts/Lesson3_Fund.sol\":343:666  function Fund() public payable {\r... */\n      pop\n      jump\t// out\n        /* \"contracts/Lesson3_Fund.sol\":778:1061  function GetPrice() public view returns(uint256)\r... */\n    tag_14:\n        /* \"contracts/Lesson3_Fund.sol\":818:825  uint256 */\n      0x00\n        /* \"contracts/Lesson3_Fund.sol\":843:874  AggregatorV3Interface PriceFeed */\n      dup1\n        /* \"contracts/Lesson3_Fund.sol\":899:941  0x8A753747A1Fa494EC906cE90E9f37563A8AF630e */\n      0x8a753747a1fa494ec906ce90e9f37563a8af630e\n        /* \"contracts/Lesson3_Fund.sol\":843:942  AggregatorV3Interface PriceFeed = AggregatorV3Interface(0x8A753747A1Fa494EC906cE90E9f37563A8AF630e) */\n      swap1\n      pop\n        /* \"contracts/Lesson3_Fund.sol\":972:981  int price */\n      0x00\n        /* \"contracts/Lesson3_Fund.sol\":987:996  PriceFeed */\n      dup2\n        /* \"contracts/Lesson3_Fund.sol\":987:1012  PriceFeed.latestRoundData */\n      0xffffffffffffffffffffffffffffffffffffffff\n      and\n      0xfeaf968c\n        /* \"contracts/Lesson3_Fund.sol\":987:1014  PriceFeed.latestRoundData() */\n      mload(0x40)\n      dup2\n      0xffffffff\n      and\n      0xe0\n      shl\n      dup2\n      mstore\n      0x04\n      add\n      0xa0\n      mload(0x40)\n      dup1\n      dup4\n      sub\n      dup2\n      dup7\n      dup1\n      extcodesize\n      iszero\n        /* \"--CODEGEN--\":5:14   */\n      dup1\n        /* \"--CODEGEN--\":2:4   */\n      iszero\n      tag_33\n      jumpi\n        /* \"--CODEGEN--\":27:28   */\n      0x00\n        /* \"--CODEGEN--\":24:25   */\n      dup1\n        /* \"--CODEGEN--\":17:29   */\n      revert\n        /* \"--CODEGEN--\":2:4   */\n    tag_33:\n        /* \"contracts/Lesson3_Fund.sol\":987:1014  PriceFeed.latestRoundData() */\n      pop\n      gas\n      staticcall\n      iszero\n        /* \"--CODEGEN--\":8:17   */\n      dup1\n        /* \"--CODEGEN--\":5:7   */\n      iszero\n      tag_35\n      jumpi\n        /* \"--CODEGEN--\":45:61   */\n      returndatasize\n        /* \"--CODEGEN--\":42:43   */\n      0x00\n        /* \"--CODEGEN--\":39:40   */\n      dup1\n        /* \"--CODEGEN--\":24:62   */\n      returndatacopy\n        /* \"--CODEGEN--\":77:93   */\n      returndatasize\n        /* \"--CODEGEN--\":74:75   */\n      0x00\n        /* \"--CODEGEN--\":67:94   */\n      revert\n        /* \"--CODEGEN--\":5:7   */\n    tag_35:\n        /* \"contracts/Lesson3_Fund.sol\":987:1014  PriceFeed.latestRoundData() */\n      pop\n      pop\n      pop\n      pop\n      mload(0x40)\n      returndatasize\n        /* \"--CODEGEN--\":15:18   */\n      0xa0\n        /* \"--CODEGEN--\":10:13   */\n      dup2\n        /* \"--CODEGEN--\":7:19   */\n      lt\n        /* \"--CODEGEN--\":4:6   */\n      iszero\n      tag_36\n      jumpi\n        /* \"--CODEGEN--\":32:33   */\n      0x00\n        /* \"--CODEGEN--\":29:30   */\n      dup1\n        /* \"--CODEGEN--\":22:34   */\n      revert\n        /* \"--CODEGEN--\":4:6   */\n    tag_36:\n        /* \"contracts/Lesson3_Fund.sol\":987:1014  PriceFeed.latestRoundData() */\n      dup2\n      add\n      swap1\n      dup1\n      dup1\n      mload\n      swap1\n      0x20\n      add\n      swap1\n      swap3\n      swap2\n      swap1\n      dup1\n      mload\n      swap1\n      0x20\n      add\n      swap1\n      swap3\n      swap2\n      swap1\n      dup1\n      mload\n      swap1\n      0x20\n      add\n      swap1\n      swap3\n      swap2\n      swap1\n      dup1\n      mload\n      swap1\n      0x20\n      add\n      swap1\n      swap3\n      swap2\n      swap1\n      dup1\n      mload\n      swap1\n      0x20\n      add\n      swap1\n      swap3\n      swap2\n      swap1\n      pop\n      pop\n      pop\n        /* \"contracts/Lesson3_Fund.sol\":953:1014  (   ,\r... */\n      pop\n      pop\n      pop\n      swap2\n      pop\n      pop\n        /* \"contracts/Lesson3_Fund.sol\":1046:1052  10**10 */\n      0x02540be400\n        /* \"contracts/Lesson3_Fund.sol\":1040:1045  price */\n      dup2\n        /* \"contracts/Lesson3_Fund.sol\":1040:1052  price*10**10 */\n      mul\n        /* \"contracts/Lesson3_Fund.sol\":1025:1053  return uint256(price*10**10) */\n      swap3\n      pop\n      pop\n      pop\n        /* \"contracts/Lesson3_Fund.sol\":778:1061  function GetPrice() public view returns(uint256)\r... */\n      swap1\n      jump\t// out\n        /* \"contracts/Lesson3_Fund.sol\":1069:1254  function GetConversionRate(uint256 ETH) public view returns(uint256) {\r... */\n    tag_18:\n        /* \"contracts/Lesson3_Fund.sol\":1129:1136  uint256 */\n      0x00\n        /* \"contracts/Lesson3_Fund.sol\":1149:1165  uint256 ETHPrice */\n      dup1\n        /* \"contracts/Lesson3_Fund.sol\":1168:1178  GetPrice() */\n      tag_38\n        /* \"contracts/Lesson3_Fund.sol\":1168:1176  GetPrice */\n      tag_14\n        /* \"contracts/Lesson3_Fund.sol\":1168:1178  GetPrice() */\n      jump\t// in\n    tag_38:\n        /* \"contracts/Lesson3_Fund.sol\":1149:1178  uint256 ETHPrice = GetPrice() */\n      swap1\n      pop\n        /* \"contracts/Lesson3_Fund.sol\":1189:1200  uint256 USD */\n      0x00\n        /* \"contracts/Lesson3_Fund.sol\":1218:1224  10**18 */\n      0x0de0b6b3a7640000\n        /* \"contracts/Lesson3_Fund.sol\":1212:1215  ETH */\n      dup5\n        /* \"contracts/Lesson3_Fund.sol\":1202:1210  ETHPrice */\n      dup4\n        /* \"contracts/Lesson3_Fund.sol\":1202:1215  ETHPrice* ETH */\n      mul\n        /* \"contracts/Lesson3_Fund.sol\":1201:1225  (ETHPrice* ETH)/(10**18) */\n      dup2\n      tag_39\n      jumpi\n      invalid\n    tag_39:\n      div\n        /* \"contracts/Lesson3_Fund.sol\":1189:1225  uint256 USD=(ETHPrice* ETH)/(10**18) */\n      swap1\n      pop\n        /* \"contracts/Lesson3_Fund.sol\":1243:1246  USD */\n      dup1\n        /* \"contracts/Lesson3_Fund.sol\":1236:1246  return USD */\n      swap3\n      pop\n      pop\n      pop\n        /* \"contracts/Lesson3_Fund.sol\":1069:1254  function GetConversionRate(uint256 ETH) public view returns(uint256) {\r... */\n      swap2\n      swap1\n      pop\n      jump\t// out\n        /* \"contracts/Lesson3_Fund.sol\":286:334  mapping (address => uint256) public addrToamount */\n    tag_22:\n      mstore(0x20, 0x00)\n      dup1\n      0x00\n      mstore\n      keccak256(0x00, 0x40)\n      0x00\n      swap2\n      pop\n      swap1\n      pop\n      sload\n      dup2\n      jump\t// out\n        /* \"contracts/Lesson3_Fund.sol\":1263:1476  function GetVersion() public view returns (uint256)\r... */\n    tag_25:\n        /* \"contracts/Lesson3_Fund.sol\":1306:1313  uint256 */\n      0x00\n        /* \"contracts/Lesson3_Fund.sol\":1331:1362  AggregatorV3Interface PriceFeed */\n      dup1\n        /* \"contracts/Lesson3_Fund.sol\":1388:1430  0x8A753747A1Fa494EC906cE90E9f37563A8AF630e */\n      0x8a753747a1fa494ec906ce90e9f37563a8af630e\n        /* \"contracts/Lesson3_Fund.sol\":1331:1431  AggregatorV3Interface PriceFeed =  AggregatorV3Interface(0x8A753747A1Fa494EC906cE90E9f37563A8AF630e) */\n      swap1\n      pop\n        /* \"contracts/Lesson3_Fund.sol\":1449:1458  PriceFeed */\n      dup1\n        /* \"contracts/Lesson3_Fund.sol\":1449:1466  PriceFeed.version */\n      0xffffffffffffffffffffffffffffffffffffffff\n      and\n      0x54fd4d50\n        /* \"contracts/Lesson3_Fund.sol\":1449:1468  PriceFeed.version() */\n      mload(0x40)\n      dup2\n      0xffffffff\n      and\n      0xe0\n      shl\n      dup2\n      mstore\n      0x04\n      add\n      0x20\n      mload(0x40)\n      dup1\n      dup4\n      sub\n      dup2\n      dup7\n      dup1\n      extcodesize\n      iszero\n        /* \"--CODEGEN--\":5:14   */\n      dup1\n        /* \"--CODEGEN--\":2:4   */\n      iszero\n      tag_41\n      jumpi\n        /* \"--CODEGEN--\":27:28   */\n      0x00\n        /* \"--CODEGEN--\":24:25   */\n      dup1\n        /* \"--CODEGEN--\":17:29   */\n      revert\n        /* \"--CODEGEN--\":2:4   */\n    tag_41:\n        /* \"contracts/Lesson3_Fund.sol\":1449:1468  PriceFeed.version() */\n      pop\n      gas\n      staticcall\n      iszero\n        /* \"--CODEGEN--\":8:17   */\n      dup1\n        /* \"--CODEGEN--\":5:7   */\n      iszero\n      tag_43\n      jumpi\n        /* \"--CODEGEN--\":45:61   */\n      returndatasize\n        /* \"--CODEGEN--\":42:43   */\n      0x00\n        /* \"--CODEGEN--\":39:40   */\n      dup1\n        /* \"--CODEGEN--\":24:62   */\n      returndatacopy\n        /* \"--CODEGEN--\":77:93   */\n      returndatasize\n        /* \"--CODEGEN--\":74:75   */\n      0x00\n        /* \"--CODEGEN--\":67:94   */\n      revert\n        /* \"--CODEGEN--\":5:7   */\n    tag_43:\n        /* \"contracts/Lesson3_Fund.sol\":1449:1468  PriceFeed.version() */\n      pop\n      pop\n      pop\n      pop\n      mload(0x40)\n      returndatasize\n        /* \"--CODEGEN--\":15:17   */\n      0x20\n        /* \"--CODEGEN--\":10:13   */\n      dup2\n        /* \"--CODEGEN--\":7:18   */\n      lt\n        /* \"--CODEGEN--\":4:6   */\n      iszero\n      tag_44\n      jumpi\n        /* \"--CODEGEN--\":31:32   */\n      0x00\n        /* \"--CODEGEN--\":28:29   */\n      dup1\n        /* \"--CODEGEN--\":21:33   */\n      revert\n        /* \"--CODEGEN--\":4:6   */\n    tag_44:\n        /* \"contracts/Lesson3_Fund.sol\":1449:1468  PriceFeed.version() */\n      dup2\n      add\n      swap1\n      dup1\n      dup1\n      mload\n      swap1\n      0x20\n      add\n      swap1\n      swap3\n      swap2\n      swap1\n      pop\n      pop\n      pop\n        /* \"contracts/Lesson3_Fund.sol\":1442:1468  return PriceFeed.version() */\n      swap2\n      pop\n      pop\n        /* \"contracts/Lesson3_Fund.sol\":1263:1476  function GetVersion() public view returns (uint256)\r... */\n      swap1\n      jump\t// out\n\n    auxdata: 0xa2646970667358221220aa9ec337ec633fa4c52cc8652d7feadb4e079eb872da1bba18b70456a0bd8d1664736f6c63430006060033\n}\n",
				"bytecode": {
					"linkReferences": {},
					"object": "608060405234801561001057600080fd5b50610493806100206000396000f3fe6080604052600436106100555760003560e01c806357ea89b61461005a5780636ce1417e146100645780636d90164e1461006e578063793b233b146100995780638789aaad146100e8578063c6129a5a1461014d575b600080fd5b610062610178565b005b61006c6101c1565b005b34801561007a57600080fd5b5061008361029b565b6040518082815260200191505060405180910390f35b3480156100a557600080fd5b506100d2600480360360208110156100bc57600080fd5b8101908080359060200190929190505050610375565b6040518082815260200191505060405180910390f35b3480156100f457600080fd5b506101376004803603602081101561010b57600080fd5b81019080803573ffffffffffffffffffffffffffffffffffffffff1690602001909291905050506103a4565b6040518082815260200191505060405180910390f35b34801561015957600080fd5b506101626103bc565b6040518082815260200191505060405180910390f35b3373ffffffffffffffffffffffffffffffffffffffff166108fc479081150290604051600060405180830381858888f193505050501580156101be573d6000803e3d6000fd5b50565b6000674563918244f400009050806101d834610375565b101561024c576040517f08c379a00000000000000000000000000000000000000000000000000000000081526004018080602001828103825260098152602001807f53656e64206d6f7265000000000000000000000000000000000000000000000081525060200191505060405180910390fd5b346000803373ffffffffffffffffffffffffffffffffffffffff1673ffffffffffffffffffffffffffffffffffffffff1681526020019081526020016000206000828254019250508190555050565b600080738a753747a1fa494ec906ce90e9f37563a8af630e905060008173ffffffffffffffffffffffffffffffffffffffff1663feaf968c6040518163ffffffff1660e01b815260040160a06040518083038186803b1580156102fd57600080fd5b505afa158015610311573d6000803e3d6000fd5b505050506040513d60a081101561032757600080fd5b8101908080519060200190929190805190602001909291908051906020019092919080519060200190929190805190602001909291905050505050509150506402540be40081029250505090565b60008061038061029b565b90506000670de0b6b3a76400008483028161039757fe5b0490508092505050919050565b60006020528060005260406000206000915090505481565b600080738a753747a1fa494ec906ce90e9f37563a8af630e90508073ffffffffffffffffffffffffffffffffffffffff166354fd4d506040518163ffffffff1660e01b815260040160206040518083038186803b15801561041c57600080fd5b505afa158015610430573d6000803e3d6000fd5b505050506040513d602081101561044657600080fd5b81019080805190602001909291905050509150509056fea2646970667358221220aa9ec337ec633fa4c52cc8652d7feadb4e079eb872da1bba18b70456a0bd8d1664736f6c63430006060033",
					"opcodes": "PUSH1 0x80 PUSH1 0x40 MSTORE CALLVALUE DUP1 ISZERO PUSH2 0x10 JUMPI PUSH1 0x0 DUP1 REVERT JUMPDEST POP PUSH2 0x493 DUP1 PUSH2 0x20 PUSH1 0x0 CODECOPY PUSH1 0x0 RETURN INVALID PUSH1 0x80 PUSH1 0x40 MSTORE PUSH1 0x4 CALLDATASIZE LT PUSH2 0x55 JUMPI PUSH1 0x0 CALLDATALOAD PUSH1 0xE0 SHR DUP1 PUSH4 0x57EA89B6 EQ PUSH2 0x5A JUMPI DUP1 PUSH4 0x6CE1417E EQ PUSH2 0x64 JUMPI DUP1 PUSH4 0x6D90164E EQ PUSH2 0x6E JUMPI DUP1 PUSH4 0x793B233B EQ PUSH2 0x99 JUMPI DUP1 PUSH4 0x8789AAAD EQ PUSH2 0xE8 JUMPI DUP1 PUSH4 0xC6129A5A EQ PUSH2 0x14D JUMPI JUMPDEST PUSH1 0x0 DUP1 REVERT JUMPDEST PUSH2 0x62 PUSH2 0x178 JUMP JUMPDEST STOP JUMPDEST PUSH2 0x6C PUSH2 0x1C1 JUMP JUMPDEST STOP JUMPDEST CALLVALUE DUP1 ISZERO PUSH2 0x7A JUMPI PUSH1 0x0 DUP1 REVERT JUMPDEST POP PUSH2 0x83 PUSH2 0x29B JUMP JUMPDEST PUSH1 0x40 MLOAD DUP1 DUP3 DUP2 MSTORE PUSH1 0x20 ADD SWAP2 POP POP PUSH1 0x40 MLOAD DUP1 SWAP2 SUB SWAP1 RETURN JUMPDEST CALLVALUE DUP1 ISZERO PUSH2 0xA5 JUMPI PUSH1 0x0 DUP1 REVERT JUMPDEST POP PUSH2 0xD2 PUSH1 0x4 DUP1 CALLDATASIZE SUB PUSH1 0x20 DUP2 LT ISZERO PUSH2 0xBC JUMPI PUSH1 0x0 DUP1 REVERT JUMPDEST DUP2 ADD SWAP1 DUP1 DUP1 CALLDATALOAD SWAP1 PUSH1 0x20 ADD SWAP1 SWAP3 SWAP2 SWAP1 POP POP POP PUSH2 0x375 JUMP JUMPDEST PUSH1 0x40 MLOAD DUP1 DUP3 DUP2 MSTORE PUSH1 0x20 ADD SWAP2 POP POP PUSH1 0x40 MLOAD DUP1 SWAP2 SUB SWAP1 RETURN JUMPDEST CALLVALUE DUP1 ISZERO PUSH2 0xF4 JUMPI PUSH1 0x0 DUP1 REVERT JUMPDEST POP PUSH2 0x137 PUSH1 0x4 DUP1 CALLDATASIZE SUB PUSH1 0x20 DUP2 LT ISZERO PUSH2 0x10B JUMPI PUSH1 0x0 DUP1 REVERT JUMPDEST DUP2 ADD SWAP1 DUP1 DUP1 CALLDATALOAD PUSH20 0xFFFFFFFFFFFFFFFFFFFFFFFFFFFFFFFFFFFFFFFF AND SWAP1 PUSH1 0x20 ADD SWAP1 SWAP3 SWAP2 SWAP1 POP POP POP PUSH2 0x3A4 JUMP JUMPDEST PUSH1 0x40 MLOAD DUP1 DUP3 DUP2 MSTORE PUSH1 0x20 ADD SWAP2 POP POP PUSH1 0x40 MLOAD DUP1 SWAP2 SUB SWAP1 RETURN JUMPDEST CALLVALUE DUP1 ISZERO PUSH2 0x159 JUMPI PUSH1 0x0 DUP1 REVERT JUMPDEST POP PUSH2 0x162 PUSH2 0x3BC JUMP JUMPDEST PUSH1 0x40 MLOAD DUP1 DUP3 DUP2 MSTORE PUSH1 0x20 ADD SWAP2 POP POP PUSH1 0x40 MLOAD DUP1 SWAP2 SUB SWAP1 RETURN JUMPDEST CALLER PUSH20 0xFFFFFFFFFFFFFFFFFFFFFFFFFFFFFFFFFFFFFFFF AND PUSH2 0x8FC SELFBALANCE SWAP1 DUP2 ISZERO MUL SWAP1 PUSH1 0x40 MLOAD PUSH1 0x0 PUSH1 0x40 MLOAD DUP1 DUP4 SUB DUP2 DUP6 DUP9 DUP9 CALL SWAP4 POP POP POP POP ISZERO DUP1 ISZERO PUSH2 0x1BE JUMPI RETURNDATASIZE PUSH1 0x0 DUP1 RETURNDATACOPY RETURNDATASIZE PUSH1 0x0 REVERT JUMPDEST POP JUMP JUMPDEST PUSH1 0x0 PUSH8 0x4563918244F40000 SWAP1 POP DUP1 PUSH2 0x1D8 CALLVALUE PUSH2 0x375 JUMP JUMPDEST LT ISZERO PUSH2 0x24C JUMPI PUSH1 0x40 MLOAD PUSH32 0x8C379A000000000000000000000000000000000000000000000000000000000 DUP2 MSTORE PUSH1 0x4 ADD DUP1 DUP1 PUSH1 0x20 ADD DUP3 DUP2 SUB DUP3 MSTORE PUSH1 0x9 DUP2 MSTORE PUSH1 0x20 ADD DUP1 PUSH32 0x53656E64206D6F72650000000000000000000000000000000000000000000000 DUP2 MSTORE POP PUSH1 0x20 ADD SWAP2 POP POP PUSH1 0x40 MLOAD DUP1 SWAP2 SUB SWAP1 REVERT JUMPDEST CALLVALUE PUSH1 0x0 DUP1 CALLER PUSH20 0xFFFFFFFFFFFFFFFFFFFFFFFFFFFFFFFFFFFFFFFF AND PUSH20 0xFFFFFFFFFFFFFFFFFFFFFFFFFFFFFFFFFFFFFFFF AND DUP2 MSTORE PUSH1 0x20 ADD SWAP1 DUP2 MSTORE PUSH1 0x20 ADD PUSH1 0x0 KECCAK256 PUSH1 0x0 DUP3 DUP3 SLOAD ADD SWAP3 POP POP DUP2 SWAP1 SSTORE POP POP JUMP JUMPDEST PUSH1 0x0 DUP1 PUSH20 0x8A753747A1FA494EC906CE90E9F37563A8AF630E SWAP1 POP PUSH1 0x0 DUP2 PUSH20 0xFFFFFFFFFFFFFFFFFFFFFFFFFFFFFFFFFFFFFFFF AND PUSH4 0xFEAF968C PUSH1 0x40 MLOAD DUP2 PUSH4 0xFFFFFFFF AND PUSH1 0xE0 SHL DUP2 MSTORE PUSH1 0x4 ADD PUSH1 0xA0 PUSH1 0x40 MLOAD DUP1 DUP4 SUB DUP2 DUP7 DUP1 EXTCODESIZE ISZERO DUP1 ISZERO PUSH2 0x2FD JUMPI PUSH1 0x0 DUP1 REVERT JUMPDEST POP GAS STATICCALL ISZERO DUP1 ISZERO PUSH2 0x311 JUMPI RETURNDATASIZE PUSH1 0x0 DUP1 RETURNDATACOPY RETURNDATASIZE PUSH1 0x0 REVERT JUMPDEST POP POP POP POP PUSH1 0x40 MLOAD RETURNDATASIZE PUSH1 0xA0 DUP2 LT ISZERO PUSH2 0x327 JUMPI PUSH1 0x0 DUP1 REVERT JUMPDEST DUP2 ADD SWAP1 DUP1 DUP1 MLOAD SWAP1 PUSH1 0x20 ADD SWAP1 SWAP3 SWAP2 SWAP1 DUP1 MLOAD SWAP1 PUSH1 0x20 ADD SWAP1 SWAP3 SWAP2 SWAP1 DUP1 MLOAD SWAP1 PUSH1 0x20 ADD SWAP1 SWAP3 SWAP2 SWAP1 DUP1 MLOAD SWAP1 PUSH1 0x20 ADD SWAP1 SWAP3 SWAP2 SWAP1 DUP1 MLOAD SWAP1 PUSH1 0x20 ADD SWAP1 SWAP3 SWAP2 SWAP1 POP POP POP POP POP POP SWAP2 POP POP PUSH5 0x2540BE400 DUP2 MUL SWAP3 POP POP POP SWAP1 JUMP JUMPDEST PUSH1 0x0 DUP1 PUSH2 0x380 PUSH2 0x29B JUMP JUMPDEST SWAP1 POP PUSH1 0x0 PUSH8 0xDE0B6B3A7640000 DUP5 DUP4 MUL DUP2 PUSH2 0x397 JUMPI INVALID JUMPDEST DIV SWAP1 POP DUP1 SWAP3 POP POP POP SWAP2 SWAP1 POP JUMP JUMPDEST PUSH1 0x0 PUSH1 0x20 MSTORE DUP1 PUSH1 0x0 MSTORE PUSH1 0x40 PUSH1 0x0 KECCAK256 PUSH1 0x0 SWAP2 POP SWAP1 POP SLOAD DUP2 JUMP JUMPDEST PUSH1 0x0 DUP1 PUSH20 0x8A753747A1FA494EC906CE90E9F37563A8AF630E SWAP1 POP DUP1 PUSH20 0xFFFFFFFFFFFFFFFFFFFFFFFFFFFFFFFFFFFFFFFF AND PUSH4 0x54FD4D50 PUSH1 0x40 MLOAD DUP2 PUSH4 0xFFFFFFFF AND PUSH1 0xE0 SHL DUP2 MSTORE PUSH1 0x4 ADD PUSH1 0x20 PUSH1 0x40 MLOAD DUP1 DUP4 SUB DUP2 DUP7 DUP1 EXTCODESIZE ISZERO DUP1 ISZERO PUSH2 0x41C JUMPI PUSH1 0x0 DUP1 REVERT JUMPDEST POP GAS STATICCALL ISZERO DUP1 ISZERO PUSH2 0x430 JUMPI RETURNDATASIZE PUSH1 0x0 DUP1 RETURNDATACOPY RETURNDATASIZE PUSH1 0x0 REVERT JUMPDEST POP POP POP POP PUSH1 0x40 MLOAD RETURNDATASIZE PUSH1 0x20 DUP2 LT ISZERO PUSH2 0x446 JUMPI PUSH1 0x0 DUP1 REVERT JUMPDEST DUP2 ADD SWAP1 DUP1 DUP1 MLOAD SWAP1 PUSH1 0x20 ADD SWAP1 SWAP3 SWAP2 SWAP1 POP POP POP SWAP2 POP POP SWAP1 JUMP INVALID LOG2 PUSH5 0x6970667358 0x22 SLT KECCAK256 0xAA SWAP15 0xC3 CALLDATACOPY 0xEC PUSH4 0x3FA4C52C 0xC8 PUSH6 0x2D7FEADB4E07 SWAP15 0xB8 PUSH19 0xDA1BBA18B70456A0BD8D1664736F6C63430006 MOD STOP CALLER "
				},
				"gasEstimates": {
					"creation": {
						"codeDepositCost": "234200",
						"executionCost": "275",
						"totalCost": "234475"
					},
					"external": {
						"Fund()": "infinite",
						"GetConversionRate(uint256)": "infinite",
						"GetPrice()": "infinite",
						"GetVersion()": "infinite",
						"Withdraw()": "infinite",
						"addrToamount(address)": "1235"
					}
				},
				"methodIdentifiers": {
					"Fund()": "6ce1417e",
					"GetConversionRate(uint256)": "793b233b",
					"GetPrice()": "6d90164e",
					"GetVersion()": "c6129a5a",
					"Withdraw()": "57ea89b6",
					"addrToamount(address)": "8789aaad"
				}
			},
			"storageLayout": {
				"storage": [
					{
						"astId": 195,
						"contract": "contracts/Lesson3_Fund.sol:Fundme",
						"label": "addrToamount",
						"offset": 0,
						"slot": "0",
						"type": "t_mapping(t_address,t_uint256)"
					}
				],
				"types": {
					"t_address": {
						"encoding": "inplace",
						"label": "address",
						"numberOfBytes": "20"
					},
					"t_mapping(t_address,t_uint256)": {
						"encoding": "mapping",
						"key": "t_address",
						"label": "mapping(address => uint256)",
						"numberOfBytes": "32",
						"value": "t_uint256"
					},
					"t_uint256": {
						"encoding": "inplace",
						"label": "uint256",
						"numberOfBytes": "32"
					}
				}
			},
			"userdoc": {
				"methods": {}
			}
		}
	}
}