{
	"contracts/Lesson3_Fund.sol": {
		"Fundme": {
			"abi": [
				{
					"inputs": [],
					"name": "Fund",
					"outputs": [],
					"stateMutability": "payable",
					"type": "function"
				},
				{
					"inputs": [
						{
							"internalType": "uint256",
							"name": "ETH",
							"type": "uint256"
						}
					],
					"name": "GetConversionRate",
					"outputs": [
						{
							"internalType": "uint256",
							"name": "",
							"type": "uint256"
						}
					],
					"stateMutability": "view",
					"type": "function"
				},
				{
					"inputs": [],
					"name": "GetPrice",
					"outputs": [
						{
							"internalType": "uint256",
							"name": "",
							"type": "uint256"
						}
					],
					"stateMutability": "view",
					"type": "function"
				},
				{
					"inputs": [],
					"name": "GetVersion",
					"outputs": [
						{
							"internalType": "uint256",
							"name": "",
							"type": "uint256"
						}
					],
					"stateMutability": "view",
					"type": "function"
				},
				{
					"inputs": [
						{
							"internalType": "address",
							"name": "",
							"type": "address"
						}
					],
					"name": "addrToamount",
					"outputs": [
						{
							"internalType": "uint256",
							"name": "",
							"type": "uint256"
						}
					],
					"stateMutability": "view",
					"type": "function"
				}
			],
			"devdoc": {
				"methods": {}
			},
			"evm": {
				"assembly": "    /* \"contracts/Lesson3_Fund.sol\":220:1138  contract Fundme{\r... */\n  mstore(0x40, 0x80)\n  callvalue\n    /* \"--CODEGEN--\":5:14   */\n  dup1\n    /* \"--CODEGEN--\":2:4   */\n  iszero\n  tag_1\n  jumpi\n    /* \"--CODEGEN--\":27:28   */\n  0x00\n    /* \"--CODEGEN--\":24:25   */\n  dup1\n    /* \"--CODEGEN--\":17:29   */\n  revert\n    /* \"--CODEGEN--\":2:4   */\ntag_1:\n    /* \"contracts/Lesson3_Fund.sol\":220:1138  contract Fundme{\r... */\n  pop\n  dataSize(sub_0)\n  dup1\n  dataOffset(sub_0)\n  0x00\n  codecopy\n  0x00\n  return\nstop\n\nsub_0: assembly {\n        /* \"contracts/Lesson3_Fund.sol\":220:1138  contract Fundme{\r... */\n      mstore(0x40, 0x80)\n      jumpi(tag_1, lt(calldatasize, 0x04))\n      shr(0xe0, calldataload(0x00))\n      dup1\n      0x6ce1417e\n      eq\n      tag_2\n      jumpi\n      dup1\n      0x6d90164e\n      eq\n      tag_3\n      jumpi\n      dup1\n      0x793b233b\n      eq\n      tag_4\n      jumpi\n      dup1\n      0x8789aaad\n      eq\n      tag_5\n      jumpi\n      dup1\n      0xc6129a5a\n      eq\n      tag_6\n      jumpi\n    tag_1:\n        /* \"--CODEGEN--\":12:13   */\n      0x00\n        /* \"--CODEGEN--\":9:10   */\n      dup1\n        /* \"--CODEGEN--\":2:14   */\n      revert\n        /* \"contracts/Lesson3_Fund.sol\":301:434  function Fund() public payable {\r... */\n    tag_2:\n      tag_7\n      tag_8\n      jump\t// in\n    tag_7:\n      stop\n        /* \"contracts/Lesson3_Fund.sol\":659:942  function GetPrice() public view returns(uint256)\r... */\n    tag_3:\n      callvalue\n        /* \"--CODEGEN--\":5:14   */\n      dup1\n        /* \"--CODEGEN--\":2:4   */\n      iszero\n      tag_9\n      jumpi\n        /* \"--CODEGEN--\":27:28   */\n      0x00\n        /* \"--CODEGEN--\":24:25   */\n      dup1\n        /* \"--CODEGEN--\":17:29   */\n      revert\n        /* \"--CODEGEN--\":2:4   */\n    tag_9:\n        /* \"contracts/Lesson3_Fund.sol\":659:942  function GetPrice() public view returns(uint256)\r... */\n      pop\n      tag_10\n      tag_11\n      jump\t// in\n    tag_10:\n      mload(0x40)\n      dup1\n      dup3\n      dup2\n      mstore\n      0x20\n      add\n      swap2\n      pop\n      pop\n      mload(0x40)\n      dup1\n      swap2\n      sub\n      swap1\n      return\n        /* \"contracts/Lesson3_Fund.sol\":950:1135  function GetConversionRate(uint256 ETH) public view returns(uint256) {\r... */\n    tag_4:\n      callvalue\n        /* \"--CODEGEN--\":5:14   */\n      dup1\n        /* \"--CODEGEN--\":2:4   */\n      iszero\n      tag_12\n      jumpi\n        /* \"--CODEGEN--\":27:28   */\n      0x00\n        /* \"--CODEGEN--\":24:25   */\n      dup1\n        /* \"--CODEGEN--\":17:29   */\n      revert\n        /* \"--CODEGEN--\":2:4   */\n    tag_12:\n        /* \"contracts/Lesson3_Fund.sol\":950:1135  function GetConversionRate(uint256 ETH) public view returns(uint256) {\r... */\n      pop\n      tag_13\n      0x04\n      dup1\n      calldatasize\n      sub\n        /* \"--CODEGEN--\":15:17   */\n      0x20\n        /* \"--CODEGEN--\":10:13   */\n      dup2\n        /* \"--CODEGEN--\":7:18   */\n      lt\n        /* \"--CODEGEN--\":4:6   */\n      iszero\n      tag_14\n      jumpi\n        /* \"--CODEGEN--\":31:32   */\n      0x00\n        /* \"--CODEGEN--\":28:29   */\n      dup1\n        /* \"--CODEGEN--\":21:33   */\n      revert\n        /* \"--CODEGEN--\":4:6   */\n    tag_14:\n        /* \"contracts/Lesson3_Fund.sol\":950:1135  function GetConversionRate(uint256 ETH) public view returns(uint256) {\r... */\n      dup2\n      add\n      swap1\n      dup1\n      dup1\n      calldataload\n      swap1\n      0x20\n      add\n      swap1\n      swap3\n      swap2\n      swap1\n      pop\n      pop\n      pop\n      tag_15\n      jump\t// in\n    tag_13:\n      mload(0x40)\n      dup1\n      dup3\n      dup2\n      mstore\n      0x20\n      add\n      swap2\n      pop\n      pop\n      mload(0x40)\n      dup1\n      swap2\n      sub\n      swap1\n      return\n        /* \"contracts/Lesson3_Fund.sol\":244:292  mapping (address => uint256) public addrToamount */\n    tag_5:\n      callvalue\n        /* \"--CODEGEN--\":5:14   */\n      dup1\n        /* \"--CODEGEN--\":2:4   */\n      iszero\n      tag_16\n      jumpi\n        /* \"--CODEGEN--\":27:28   */\n      0x00\n        /* \"--CODEGEN--\":24:25   */\n      dup1\n        /* \"--CODEGEN--\":17:29   */\n      revert\n        /* \"--CODEGEN--\":2:4   */\n    tag_16:\n        /* \"contracts/Lesson3_Fund.sol\":244:292  mapping (address => uint256) public addrToamount */\n      pop\n      tag_17\n      0x04\n      dup1\n      calldatasize\n      sub\n        /* \"--CODEGEN--\":15:17   */\n      0x20\n        /* \"--CODEGEN--\":10:13   */\n      dup2\n        /* \"--CODEGEN--\":7:18   */\n      lt\n        /* \"--CODEGEN--\":4:6   */\n      iszero\n      tag_18\n      jumpi\n        /* \"--CODEGEN--\":31:32   */\n      0x00\n        /* \"--CODEGEN--\":28:29   */\n      dup1\n        /* \"--CODEGEN--\":21:33   */\n      revert\n        /* \"--CODEGEN--\":4:6   */\n    tag_18:\n        /* \"contracts/Lesson3_Fund.sol\":244:292  mapping (address => uint256) public addrToamount */\n      dup2\n      add\n      swap1\n      dup1\n      dup1\n      calldataload\n      0xffffffffffffffffffffffffffffffffffffffff\n      and\n      swap1\n      0x20\n      add\n      swap1\n      swap3\n      swap2\n      swap1\n      pop\n      pop\n      pop\n      tag_19\n      jump\t// in\n    tag_17:\n      mload(0x40)\n      dup1\n      dup3\n      dup2\n      mstore\n      0x20\n      add\n      swap2\n      pop\n      pop\n      mload(0x40)\n      dup1\n      swap2\n      sub\n      swap1\n      return\n        /* \"contracts/Lesson3_Fund.sol\":440:653  function GetVersion() public view returns (uint256)\r... */\n    tag_6:\n      callvalue\n        /* \"--CODEGEN--\":5:14   */\n      dup1\n        /* \"--CODEGEN--\":2:4   */\n      iszero\n      tag_20\n      jumpi\n        /* \"--CODEGEN--\":27:28   */\n      0x00\n        /* \"--CODEGEN--\":24:25   */\n      dup1\n        /* \"--CODEGEN--\":17:29   */\n      revert\n        /* \"--CODEGEN--\":2:4   */\n    tag_20:\n        /* \"contracts/Lesson3_Fund.sol\":440:653  function GetVersion() public view returns (uint256)\r... */\n      pop\n      tag_21\n      tag_22\n      jump\t// in\n    tag_21:\n      mload(0x40)\n      dup1\n      dup3\n      dup2\n      mstore\n      0x20\n      add\n      swap2\n      pop\n      pop\n      mload(0x40)\n      dup1\n      swap2\n      sub\n      swap1\n      return\n        /* \"contracts/Lesson3_Fund.sol\":301:434  function Fund() public payable {\r... */\n    tag_8:\n        /* \"contracts/Lesson3_Fund.sol\":374:383  msg.value */\n      callvalue\n        /* \"contracts/Lesson3_Fund.sol\":347:359  addrToamount */\n      0x00\n        /* \"contracts/Lesson3_Fund.sol\":347:371  addrToamount[msg.sender] */\n      dup1\n        /* \"contracts/Lesson3_Fund.sol\":360:370  msg.sender */\n      caller\n        /* \"contracts/Lesson3_Fund.sol\":347:371  addrToamount[msg.sender] */\n      0xffffffffffffffffffffffffffffffffffffffff\n      and\n      0xffffffffffffffffffffffffffffffffffffffff\n      and\n      dup2\n      mstore\n      0x20\n      add\n      swap1\n      dup2\n      mstore\n      0x20\n      add\n      0x00\n      keccak256\n      0x00\n        /* \"contracts/Lesson3_Fund.sol\":347:383  addrToamount[msg.sender]+= msg.value */\n      dup3\n      dup3\n      sload\n      add\n      swap3\n      pop\n      pop\n      dup2\n      swap1\n      sstore\n      pop\n        /* \"contracts/Lesson3_Fund.sol\":301:434  function Fund() public payable {\r... */\n      jump\t// out\n        /* \"contracts/Lesson3_Fund.sol\":659:942  function GetPrice() public view returns(uint256)\r... */\n    tag_11:\n        /* \"contracts/Lesson3_Fund.sol\":699:706  uint256 */\n      0x00\n        /* \"contracts/Lesson3_Fund.sol\":724:755  AggregatorV3Interface PriceFeed */\n      dup1\n        /* \"contracts/Lesson3_Fund.sol\":780:822  0x8A753747A1Fa494EC906cE90E9f37563A8AF630e */\n      0x8a753747a1fa494ec906ce90e9f37563a8af630e\n        /* \"contracts/Lesson3_Fund.sol\":724:823  AggregatorV3Interface PriceFeed = AggregatorV3Interface(0x8A753747A1Fa494EC906cE90E9f37563A8AF630e) */\n      swap1\n      pop\n        /* \"contracts/Lesson3_Fund.sol\":853:862  int price */\n      0x00\n        /* \"contracts/Lesson3_Fund.sol\":868:877  PriceFeed */\n      dup2\n        /* \"contracts/Lesson3_Fund.sol\":868:893  PriceFeed.latestRoundData */\n      0xffffffffffffffffffffffffffffffffffffffff\n      and\n      0xfeaf968c\n        /* \"contracts/Lesson3_Fund.sol\":868:895  PriceFeed.latestRoundData() */\n      mload(0x40)\n      dup2\n      0xffffffff\n      and\n      0xe0\n      shl\n      dup2\n      mstore\n      0x04\n      add\n      0xa0\n      mload(0x40)\n      dup1\n      dup4\n      sub\n      dup2\n      dup7\n      dup1\n      extcodesize\n      iszero\n        /* \"--CODEGEN--\":5:14   */\n      dup1\n        /* \"--CODEGEN--\":2:4   */\n      iszero\n      tag_25\n      jumpi\n        /* \"--CODEGEN--\":27:28   */\n      0x00\n        /* \"--CODEGEN--\":24:25   */\n      dup1\n        /* \"--CODEGEN--\":17:29   */\n      revert\n        /* \"--CODEGEN--\":2:4   */\n    tag_25:\n        /* \"contracts/Lesson3_Fund.sol\":868:895  PriceFeed.latestRoundData() */\n      pop\n      gas\n      staticcall\n      iszero\n        /* \"--CODEGEN--\":8:17   */\n      dup1\n        /* \"--CODEGEN--\":5:7   */\n      iszero\n      tag_27\n      jumpi\n        /* \"--CODEGEN--\":45:61   */\n      returndatasize\n        /* \"--CODEGEN--\":42:43   */\n      0x00\n        /* \"--CODEGEN--\":39:40   */\n      dup1\n        /* \"--CODEGEN--\":24:62   */\n      returndatacopy\n        /* \"--CODEGEN--\":77:93   */\n      returndatasize\n        /* \"--CODEGEN--\":74:75   */\n      0x00\n        /* \"--CODEGEN--\":67:94   */\n      revert\n        /* \"--CODEGEN--\":5:7   */\n    tag_27:\n        /* \"contracts/Lesson3_Fund.sol\":868:895  PriceFeed.latestRoundData() */\n      pop\n      pop\n      pop\n      pop\n      mload(0x40)\n      returndatasize\n        /* \"--CODEGEN--\":15:18   */\n      0xa0\n        /* \"--CODEGEN--\":10:13   */\n      dup2\n        /* \"--CODEGEN--\":7:19   */\n      lt\n        /* \"--CODEGEN--\":4:6   */\n      iszero\n      tag_28\n      jumpi\n        /* \"--CODEGEN--\":32:33   */\n      0x00\n        /* \"--CODEGEN--\":29:30   */\n      dup1\n        /* \"--CODEGEN--\":22:34   */\n      revert\n        /* \"--CODEGEN--\":4:6   */\n    tag_28:\n        /* \"contracts/Lesson3_Fund.sol\":868:895  PriceFeed.latestRoundData() */\n      dup2\n      add\n      swap1\n      dup1\n      dup1\n      mload\n      swap1\n      0x20\n      add\n      swap1\n      swap3\n      swap2\n      swap1\n      dup1\n      mload\n      swap1\n      0x20\n      add\n      swap1\n      swap3\n      swap2\n      swap1\n      dup1\n      mload\n      swap1\n      0x20\n      add\n      swap1\n      swap3\n      swap2\n      swap1\n      dup1\n      mload\n      swap1\n      0x20\n      add\n      swap1\n      swap3\n      swap2\n      swap1\n      dup1\n      mload\n      swap1\n      0x20\n      add\n      swap1\n      swap3\n      swap2\n      swap1\n      pop\n      pop\n      pop\n        /* \"contracts/Lesson3_Fund.sol\":834:895  (   ,\r... */\n      pop\n      pop\n      pop\n      swap2\n      pop\n      pop\n        /* \"contracts/Lesson3_Fund.sol\":927:933  10**10 */\n      0x02540be400\n        /* \"contracts/Lesson3_Fund.sol\":921:926  price */\n      dup2\n        /* \"contracts/Lesson3_Fund.sol\":921:933  price*10**10 */\n      mul\n        /* \"contracts/Lesson3_Fund.sol\":906:934  return uint256(price*10**10) */\n      swap3\n      pop\n      pop\n      pop\n        /* \"contracts/Lesson3_Fund.sol\":659:942  function GetPrice() public view returns(uint256)\r... */\n      swap1\n      jump\t// out\n        /* \"contracts/Lesson3_Fund.sol\":950:1135  function GetConversionRate(uint256 ETH) public view returns(uint256) {\r... */\n    tag_15:\n        /* \"contracts/Lesson3_Fund.sol\":1010:1017  uint256 */\n      0x00\n        /* \"contracts/Lesson3_Fund.sol\":1030:1046  uint256 ETHPrice */\n      dup1\n        /* \"contracts/Lesson3_Fund.sol\":1049:1059  GetPrice() */\n      tag_30\n        /* \"contracts/Lesson3_Fund.sol\":1049:1057  GetPrice */\n      tag_11\n        /* \"contracts/Lesson3_Fund.sol\":1049:1059  GetPrice() */\n      jump\t// in\n    tag_30:\n        /* \"contracts/Lesson3_Fund.sol\":1030:1059  uint256 ETHPrice = GetPrice() */\n      swap1\n      pop\n        /* \"contracts/Lesson3_Fund.sol\":1070:1081  uint256 USD */\n      0x00\n        /* \"contracts/Lesson3_Fund.sol\":1099:1105  10**18 */\n      0x0de0b6b3a7640000\n        /* \"contracts/Lesson3_Fund.sol\":1093:1096  ETH */\n      dup5\n        /* \"contracts/Lesson3_Fund.sol\":1083:1091  ETHPrice */\n      dup4\n        /* \"contracts/Lesson3_Fund.sol\":1083:1096  ETHPrice* ETH */\n      mul\n        /* \"contracts/Lesson3_Fund.sol\":1082:1106  (ETHPrice* ETH)/(10**18) */\n      dup2\n      tag_31\n      jumpi\n      invalid\n    tag_31:\n      div\n        /* \"contracts/Lesson3_Fund.sol\":1070:1106  uint256 USD=(ETHPrice* ETH)/(10**18) */\n      swap1\n      pop\n        /* \"contracts/Lesson3_Fund.sol\":1124:1127  USD */\n      dup1\n        /* \"contracts/Lesson3_Fund.sol\":1117:1127  return USD */\n      swap3\n      pop\n      pop\n      pop\n        /* \"contracts/Lesson3_Fund.sol\":950:1135  function GetConversionRate(uint256 ETH) public view returns(uint256) {\r... */\n      swap2\n      swap1\n      pop\n      jump\t// out\n        /* \"contracts/Lesson3_Fund.sol\":244:292  mapping (address => uint256) public addrToamount */\n    tag_19:\n      mstore(0x20, 0x00)\n      dup1\n      0x00\n      mstore\n      keccak256(0x00, 0x40)\n      0x00\n      swap2\n      pop\n      swap1\n      pop\n      sload\n      dup2\n      jump\t// out\n        /* \"contracts/Lesson3_Fund.sol\":440:653  function GetVersion() public view returns (uint256)\r... */\n    tag_22:\n        /* \"contracts/Lesson3_Fund.sol\":483:490  uint256 */\n      0x00\n        /* \"contracts/Lesson3_Fund.sol\":508:539  AggregatorV3Interface PriceFeed */\n      dup1\n        /* \"contracts/Lesson3_Fund.sol\":565:607  0x8A753747A1Fa494EC906cE90E9f37563A8AF630e */\n      0x8a753747a1fa494ec906ce90e9f37563a8af630e\n        /* \"contracts/Lesson3_Fund.sol\":508:608  AggregatorV3Interface PriceFeed =  AggregatorV3Interface(0x8A753747A1Fa494EC906cE90E9f37563A8AF630e) */\n      swap1\n      pop\n        /* \"contracts/Lesson3_Fund.sol\":626:635  PriceFeed */\n      dup1\n        /* \"contracts/Lesson3_Fund.sol\":626:643  PriceFeed.version */\n      0xffffffffffffffffffffffffffffffffffffffff\n      and\n      0x54fd4d50\n        /* \"contracts/Lesson3_Fund.sol\":626:645  PriceFeed.version() */\n      mload(0x40)\n      dup2\n      0xffffffff\n      and\n      0xe0\n      shl\n      dup2\n      mstore\n      0x04\n      add\n      0x20\n      mload(0x40)\n      dup1\n      dup4\n      sub\n      dup2\n      dup7\n      dup1\n      extcodesize\n      iszero\n        /* \"--CODEGEN--\":5:14   */\n      dup1\n        /* \"--CODEGEN--\":2:4   */\n      iszero\n      tag_33\n      jumpi\n        /* \"--CODEGEN--\":27:28   */\n      0x00\n        /* \"--CODEGEN--\":24:25   */\n      dup1\n        /* \"--CODEGEN--\":17:29   */\n      revert\n        /* \"--CODEGEN--\":2:4   */\n    tag_33:\n        /* \"contracts/Lesson3_Fund.sol\":626:645  PriceFeed.version() */\n      pop\n      gas\n      staticcall\n      iszero\n        /* \"--CODEGEN--\":8:17   */\n      dup1\n        /* \"--CODEGEN--\":5:7   */\n      iszero\n      tag_35\n      jumpi\n        /* \"--CODEGEN--\":45:61   */\n      returndatasize\n        /* \"--CODEGEN--\":42:43   */\n      0x00\n        /* \"--CODEGEN--\":39:40   */\n      dup1\n        /* \"--CODEGEN--\":24:62   */\n      returndatacopy\n        /* \"--CODEGEN--\":77:93   */\n      returndatasize\n        /* \"--CODEGEN--\":74:75   */\n      0x00\n        /* \"--CODEGEN--\":67:94   */\n      revert\n        /* \"--CODEGEN--\":5:7   */\n    tag_35:\n        /* \"contracts/Lesson3_Fund.sol\":626:645  PriceFeed.version() */\n      pop\n      pop\n      pop\n      pop\n      mload(0x40)\n      returndatasize\n        /* \"--CODEGEN--\":15:17   */\n      0x20\n        /* \"--CODEGEN--\":10:13   */\n      dup2\n        /* \"--CODEGEN--\":7:18   */\n      lt\n        /* \"--CODEGEN--\":4:6   */\n      iszero\n      tag_36\n      jumpi\n        /* \"--CODEGEN--\":31:32   */\n      0x00\n        /* \"--CODEGEN--\":28:29   */\n      dup1\n        /* \"--CODEGEN--\":21:33   */\n      revert\n        /* \"--CODEGEN--\":4:6   */\n    tag_36:\n        /* \"contracts/Lesson3_Fund.sol\":626:645  PriceFeed.version() */\n      dup2\n      add\n      swap1\n      dup1\n      dup1\n      mload\n      swap1\n      0x20\n      add\n      swap1\n      swap3\n      swap2\n      swap1\n      pop\n      pop\n      pop\n        /* \"contracts/Lesson3_Fund.sol\":619:645  return PriceFeed.version() */\n      swap2\n      pop\n      pop\n        /* \"contracts/Lesson3_Fund.sol\":440:653  function GetVersion() public view returns (uint256)\r... */\n      swap1\n      jump\t// out\n\n    auxdata: 0xa2646970667358221220b6894b37edb1643ca0beb789d3b48a128eb014c15ddaa71a15cbe4678be7326a64736f6c63430006060033\n}\n",
				"bytecode": {
					"linkReferences": {},
					"object": "608060405234801561001057600080fd5b506103a9806100206000396000f3fe60806040526004361061004a5760003560e01c80636ce1417e1461004f5780636d90164e14610059578063793b233b146100845780638789aaad146100d3578063c6129a5a14610138575b600080fd5b610057610163565b005b34801561006557600080fd5b5061006e6101b1565b6040518082815260200191505060405180910390f35b34801561009057600080fd5b506100bd600480360360208110156100a757600080fd5b810190808035906020019092919050505061028b565b6040518082815260200191505060405180910390f35b3480156100df57600080fd5b50610122600480360360208110156100f657600080fd5b81019080803573ffffffffffffffffffffffffffffffffffffffff1690602001909291905050506102ba565b6040518082815260200191505060405180910390f35b34801561014457600080fd5b5061014d6102d2565b6040518082815260200191505060405180910390f35b346000803373ffffffffffffffffffffffffffffffffffffffff1673ffffffffffffffffffffffffffffffffffffffff16815260200190815260200160002060008282540192505081905550565b600080738a753747a1fa494ec906ce90e9f37563a8af630e905060008173ffffffffffffffffffffffffffffffffffffffff1663feaf968c6040518163ffffffff1660e01b815260040160a06040518083038186803b15801561021357600080fd5b505afa158015610227573d6000803e3d6000fd5b505050506040513d60a081101561023d57600080fd5b8101908080519060200190929190805190602001909291908051906020019092919080519060200190929190805190602001909291905050505050509150506402540be40081029250505090565b6000806102966101b1565b90506000670de0b6b3a7640000848302816102ad57fe5b0490508092505050919050565b60006020528060005260406000206000915090505481565b600080738a753747a1fa494ec906ce90e9f37563a8af630e90508073ffffffffffffffffffffffffffffffffffffffff166354fd4d506040518163ffffffff1660e01b815260040160206040518083038186803b15801561033257600080fd5b505afa158015610346573d6000803e3d6000fd5b505050506040513d602081101561035c57600080fd5b81019080805190602001909291905050509150509056fea2646970667358221220b6894b37edb1643ca0beb789d3b48a128eb014c15ddaa71a15cbe4678be7326a64736f6c63430006060033",
					"opcodes": "PUSH1 0x80 PUSH1 0x40 MSTORE CALLVALUE DUP1 ISZERO PUSH2 0x10 JUMPI PUSH1 0x0 DUP1 REVERT JUMPDEST POP PUSH2 0x3A9 DUP1 PUSH2 0x20 PUSH1 0x0 CODECOPY PUSH1 0x0 RETURN INVALID PUSH1 0x80 PUSH1 0x40 MSTORE PUSH1 0x4 CALLDATASIZE LT PUSH2 0x4A JUMPI PUSH1 0x0 CALLDATALOAD PUSH1 0xE0 SHR DUP1 PUSH4 0x6CE1417E EQ PUSH2 0x4F JUMPI DUP1 PUSH4 0x6D90164E EQ PUSH2 0x59 JUMPI DUP1 PUSH4 0x793B233B EQ PUSH2 0x84 JUMPI DUP1 PUSH4 0x8789AAAD EQ PUSH2 0xD3 JUMPI DUP1 PUSH4 0xC6129A5A EQ PUSH2 0x138 JUMPI JUMPDEST PUSH1 0x0 DUP1 REVERT JUMPDEST PUSH2 0x57 PUSH2 0x163 JUMP JUMPDEST STOP JUMPDEST CALLVALUE DUP1 ISZERO PUSH2 0x65 JUMPI PUSH1 0x0 DUP1 REVERT JUMPDEST POP PUSH2 0x6E PUSH2 0x1B1 JUMP JUMPDEST PUSH1 0x40 MLOAD DUP1 DUP3 DUP2 MSTORE PUSH1 0x20 ADD SWAP2 POP POP PUSH1 0x40 MLOAD DUP1 SWAP2 SUB SWAP1 RETURN JUMPDEST CALLVALUE DUP1 ISZERO PUSH2 0x90 JUMPI PUSH1 0x0 DUP1 REVERT JUMPDEST POP PUSH2 0xBD PUSH1 0x4 DUP1 CALLDATASIZE SUB PUSH1 0x20 DUP2 LT ISZERO PUSH2 0xA7 JUMPI PUSH1 0x0 DUP1 REVERT JUMPDEST DUP2 ADD SWAP1 DUP1 DUP1 CALLDATALOAD SWAP1 PUSH1 0x20 ADD SWAP1 SWAP3 SWAP2 SWAP1 POP POP POP PUSH2 0x28B JUMP JUMPDEST PUSH1 0x40 MLOAD DUP1 DUP3 DUP2 MSTORE PUSH1 0x20 ADD SWAP2 POP POP PUSH1 0x40 MLOAD DUP1 SWAP2 SUB SWAP1 RETURN JUMPDEST CALLVALUE DUP1 ISZERO PUSH2 0xDF JUMPI PUSH1 0x0 DUP1 REVERT JUMPDEST POP PUSH2 0x122 PUSH1 0x4 DUP1 CALLDATASIZE SUB PUSH1 0x20 DUP2 LT ISZERO PUSH2 0xF6 JUMPI PUSH1 0x0 DUP1 REVERT JUMPDEST DUP2 ADD SWAP1 DUP1 DUP1 CALLDATALOAD PUSH20 0xFFFFFFFFFFFFFFFFFFFFFFFFFFFFFFFFFFFFFFFF AND SWAP1 PUSH1 0x20 ADD SWAP1 SWAP3 SWAP2 SWAP1 POP POP POP PUSH2 0x2BA JUMP JUMPDEST PUSH1 0x40 MLOAD DUP1 DUP3 DUP2 MSTORE PUSH1 0x20 ADD SWAP2 POP POP PUSH1 0x40 MLOAD DUP1 SWAP2 SUB SWAP1 RETURN JUMPDEST CALLVALUE DUP1 ISZERO PUSH2 0x144 JUMPI PUSH1 0x0 DUP1 REVERT JUMPDEST POP PUSH2 0x14D PUSH2 0x2D2 JUMP JUMPDEST PUSH1 0x40 MLOAD DUP1 DUP3 DUP2 MSTORE PUSH1 0x20 ADD SWAP2 POP POP PUSH1 0x40 MLOAD DUP1 SWAP2 SUB SWAP1 RETURN JUMPDEST CALLVALUE PUSH1 0x0 DUP1 CALLER PUSH20 0xFFFFFFFFFFFFFFFFFFFFFFFFFFFFFFFFFFFFFFFF AND PUSH20 0xFFFFFFFFFFFFFFFFFFFFFFFFFFFFFFFFFFFFFFFF AND DUP2 MSTORE PUSH1 0x20 ADD SWAP1 DUP2 MSTORE PUSH1 0x20 ADD PUSH1 0x0 KECCAK256 PUSH1 0x0 DUP3 DUP3 SLOAD ADD SWAP3 POP POP DUP2 SWAP1 SSTORE POP JUMP JUMPDEST PUSH1 0x0 DUP1 PUSH20 0x8A753747A1FA494EC906CE90E9F37563A8AF630E SWAP1 POP PUSH1 0x0 DUP2 PUSH20 0xFFFFFFFFFFFFFFFFFFFFFFFFFFFFFFFFFFFFFFFF AND PUSH4 0xFEAF968C PUSH1 0x40 MLOAD DUP2 PUSH4 0xFFFFFFFF AND PUSH1 0xE0 SHL DUP2 MSTORE PUSH1 0x4 ADD PUSH1 0xA0 PUSH1 0x40 MLOAD DUP1 DUP4 SUB DUP2 DUP7 DUP1 EXTCODESIZE ISZERO DUP1 ISZERO PUSH2 0x213 JUMPI PUSH1 0x0 DUP1 REVERT JUMPDEST POP GAS STATICCALL ISZERO DUP1 ISZERO PUSH2 0x227 JUMPI RETURNDATASIZE PUSH1 0x0 DUP1 RETURNDATACOPY RETURNDATASIZE PUSH1 0x0 REVERT JUMPDEST POP POP POP POP PUSH1 0x40 MLOAD RETURNDATASIZE PUSH1 0xA0 DUP2 LT ISZERO PUSH2 0x23D JUMPI PUSH1 0x0 DUP1 REVERT JUMPDEST DUP2 ADD SWAP1 DUP1 DUP1 MLOAD SWAP1 PUSH1 0x20 ADD SWAP1 SWAP3 SWAP2 SWAP1 DUP1 MLOAD SWAP1 PUSH1 0x20 ADD SWAP1 SWAP3 SWAP2 SWAP1 DUP1 MLOAD SWAP1 PUSH1 0x20 ADD SWAP1 SWAP3 SWAP2 SWAP1 DUP1 MLOAD SWAP1 PUSH1 0x20 ADD SWAP1 SWAP3 SWAP2 SWAP1 DUP1 MLOAD SWAP1 PUSH1 0x20 ADD SWAP1 SWAP3 SWAP2 SWAP1 POP POP POP POP POP POP SWAP2 POP POP PUSH5 0x2540BE400 DUP2 MUL SWAP3 POP POP POP SWAP1 JUMP JUMPDEST PUSH1 0x0 DUP1 PUSH2 0x296 PUSH2 0x1B1 JUMP JUMPDEST SWAP1 POP PUSH1 0x0 PUSH8 0xDE0B6B3A7640000 DUP5 DUP4 MUL DUP2 PUSH2 0x2AD JUMPI INVALID JUMPDEST DIV SWAP1 POP DUP1 SWAP3 POP POP POP SWAP2 SWAP1 POP JUMP JUMPDEST PUSH1 0x0 PUSH1 0x20 MSTORE DUP1 PUSH1 0x0 MSTORE PUSH1 0x40 PUSH1 0x0 KECCAK256 PUSH1 0x0 SWAP2 POP SWAP1 POP SLOAD DUP2 JUMP JUMPDEST PUSH1 0x0 DUP1 PUSH20 0x8A753747A1FA494EC906CE90E9F37563A8AF630E SWAP1 POP DUP1 PUSH20 0xFFFFFFFFFFFFFFFFFFFFFFFFFFFFFFFFFFFFFFFF AND PUSH4 0x54FD4D50 PUSH1 0x40 MLOAD DUP2 PUSH4 0xFFFFFFFF AND PUSH1 0xE0 SHL DUP2 MSTORE PUSH1 0x4 ADD PUSH1 0x20 PUSH1 0x40 MLOAD DUP1 DUP4 SUB DUP2 DUP7 DUP1 EXTCODESIZE ISZERO DUP1 ISZERO PUSH2 0x332 JUMPI PUSH1 0x0 DUP1 REVERT JUMPDEST POP GAS STATICCALL ISZERO DUP1 ISZERO PUSH2 0x346 JUMPI RETURNDATASIZE PUSH1 0x0 DUP1 RETURNDATACOPY RETURNDATASIZE PUSH1 0x0 REVERT JUMPDEST POP POP POP POP PUSH1 0x40 MLOAD RETURNDATASIZE PUSH1 0x20 DUP2 LT ISZERO PUSH2 0x35C JUMPI PUSH1 0x0 DUP1 REVERT JUMPDEST DUP2 ADD SWAP1 DUP1 DUP1 MLOAD SWAP1 PUSH1 0x20 ADD SWAP1 SWAP3 SWAP2 SWAP1 POP POP POP SWAP2 POP POP SWAP1 JUMP INVALID LOG2 PUSH5 0x6970667358 0x22 SLT KECCAK256 0xB6 DUP10 0x4B CALLDATACOPY 0xED 0xB1 PUSH5 0x3CA0BEB789 0xD3 0xB4 DUP11 SLT DUP15 0xB0 EQ 0xC1 0x5D 0xDA 0xA7 BYTE ISZERO 0xCB 0xE4 PUSH8 0x8BE7326A64736F6C PUSH4 0x43000606 STOP CALLER "
				},
				"gasEstimates": {
					"creation": {
						"codeDepositCost": "187400",
						"executionCost": "232",
						"totalCost": "187632"
					},
					"external": {
						"Fund()": "21019",
						"GetConversionRate(uint256)": "infinite",
						"GetPrice()": "infinite",
						"GetVersion()": "infinite",
						"addrToamount(address)": "1213"
					}
				},
				"methodIdentifiers": {
					"Fund()": "6ce1417e",
					"GetConversionRate(uint256)": "793b233b",
					"GetPrice()": "6d90164e",
					"GetVersion()": "c6129a5a",
					"addrToamount(address)": "8789aaad"
				}
			},
			"storageLayout": {
				"storage": [
					{
						"astId": 192,
						"contract": "contracts/Lesson3_Fund.sol:Fundme",
						"label": "addrToamount",
						"offset": 0,
						"slot": "0",
						"type": "t_mapping(t_address,t_uint256)"
					}
				],
				"types": {
					"t_address": {
						"encoding": "inplace",
						"label": "address",
						"numberOfBytes": "20"
					},
					"t_mapping(t_address,t_uint256)": {
						"encoding": "mapping",
						"key": "t_address",
						"label": "mapping(address => uint256)",
						"numberOfBytes": "32",
						"value": "t_uint256"
					},
					"t_uint256": {
						"encoding": "inplace",
						"label": "uint256",
						"numberOfBytes": "32"
					}
				}
			},
			"userdoc": {
				"methods": {}
			}
		}
	}
}