{
	"contracts/Lesson3_Fund.sol": {
		"Fundme": {
			"abi": [
				{
					"inputs": [],
					"stateMutability": "nonpayable",
					"type": "constructor"
				},
				{
					"inputs": [],
					"name": "Fund",
					"outputs": [],
					"stateMutability": "payable",
					"type": "function"
				},
				{
					"inputs": [
						{
							"internalType": "uint256",
							"name": "ETH",
							"type": "uint256"
						}
					],
					"name": "GetConversionRate",
					"outputs": [
						{
							"internalType": "uint256",
							"name": "",
							"type": "uint256"
						}
					],
					"stateMutability": "view",
					"type": "function"
				},
				{
					"inputs": [],
					"name": "GetPrice",
					"outputs": [
						{
							"internalType": "uint256",
							"name": "",
							"type": "uint256"
						}
					],
					"stateMutability": "view",
					"type": "function"
				},
				{
					"inputs": [],
					"name": "GetVersion",
					"outputs": [
						{
							"internalType": "uint256",
							"name": "",
							"type": "uint256"
						}
					],
					"stateMutability": "view",
					"type": "function"
				},
				{
					"inputs": [],
					"name": "Withdraw",
					"outputs": [],
					"stateMutability": "payable",
					"type": "function"
				},
				{
					"inputs": [
						{
							"internalType": "address",
							"name": "",
							"type": "address"
						}
					],
					"name": "addrToamount",
					"outputs": [
						{
							"internalType": "uint256",
							"name": "",
							"type": "uint256"
						}
					],
					"stateMutability": "view",
					"type": "function"
				},
				{
					"inputs": [],
					"name": "owner",
					"outputs": [
						{
							"internalType": "address",
							"name": "",
							"type": "address"
						}
					],
					"stateMutability": "view",
					"type": "function"
				}
			],
			"devdoc": {
				"methods": {}
			},
			"evm": {
				"assembly": "    /* \"contracts/Lesson3_Fund.sol\":220:1606  contract Fundme{\r... */\n  mstore(0x40, 0x80)\n    /* \"contracts/Lesson3_Fund.sol\":370:427  constructor() public {\r... */\n  callvalue\n    /* \"--CODEGEN--\":5:14   */\n  dup1\n    /* \"--CODEGEN--\":2:4   */\n  iszero\n  tag_1\n  jumpi\n    /* \"--CODEGEN--\":27:28   */\n  0x00\n    /* \"--CODEGEN--\":24:25   */\n  dup1\n    /* \"--CODEGEN--\":17:29   */\n  revert\n    /* \"--CODEGEN--\":2:4   */\ntag_1:\n    /* \"contracts/Lesson3_Fund.sol\":370:427  constructor() public {\r... */\n  pop\n    /* \"contracts/Lesson3_Fund.sol\":409:419  msg.sender */\n  caller\n    /* \"contracts/Lesson3_Fund.sol\":402:407  owner */\n  0x01\n  0x00\n    /* \"contracts/Lesson3_Fund.sol\":402:419  owner= msg.sender */\n  0x0100\n  exp\n  dup2\n  sload\n  dup2\n  0xffffffffffffffffffffffffffffffffffffffff\n  mul\n  not\n  and\n  swap1\n  dup4\n  0xffffffffffffffffffffffffffffffffffffffff\n  and\n  mul\n  or\n  swap1\n  sstore\n  pop\n    /* \"contracts/Lesson3_Fund.sol\":220:1606  contract Fundme{\r... */\n  dataSize(sub_0)\n  dup1\n  dataOffset(sub_0)\n  0x00\n  codecopy\n  0x00\n  return\nstop\n\nsub_0: assembly {\n        /* \"contracts/Lesson3_Fund.sol\":220:1606  contract Fundme{\r... */\n      mstore(0x40, 0x80)\n      jumpi(tag_1, lt(calldatasize, 0x04))\n      shr(0xe0, calldataload(0x00))\n      dup1\n      0x793b233b\n      gt\n      tag_9\n      jumpi\n      dup1\n      0x793b233b\n      eq\n      tag_5\n      jumpi\n      dup1\n      0x8789aaad\n      eq\n      tag_6\n      jumpi\n      dup1\n      0x8da5cb5b\n      eq\n      tag_7\n      jumpi\n      dup1\n      0xc6129a5a\n      eq\n      tag_8\n      jumpi\n      jump(tag_1)\n    tag_9:\n      dup1\n      0x57ea89b6\n      eq\n      tag_2\n      jumpi\n      dup1\n      0x6ce1417e\n      eq\n      tag_3\n      jumpi\n      dup1\n      0x6d90164e\n      eq\n      tag_4\n      jumpi\n    tag_1:\n        /* \"--CODEGEN--\":12:13   */\n      0x00\n        /* \"--CODEGEN--\":9:10   */\n      dup1\n        /* \"--CODEGEN--\":2:14   */\n      revert\n        /* \"contracts/Lesson3_Fund.sol\":764:897  function Withdraw() public payable {\r... */\n    tag_2:\n      tag_10\n      tag_11\n      jump\t// in\n    tag_10:\n      stop\n        /* \"contracts/Lesson3_Fund.sol\":433:756  function Fund() public payable {\r... */\n    tag_3:\n      tag_12\n      tag_13\n      jump\t// in\n    tag_12:\n      stop\n        /* \"contracts/Lesson3_Fund.sol\":905:1188  function GetPrice() public view returns(uint256)\r... */\n    tag_4:\n      callvalue\n        /* \"--CODEGEN--\":5:14   */\n      dup1\n        /* \"--CODEGEN--\":2:4   */\n      iszero\n      tag_14\n      jumpi\n        /* \"--CODEGEN--\":27:28   */\n      0x00\n        /* \"--CODEGEN--\":24:25   */\n      dup1\n        /* \"--CODEGEN--\":17:29   */\n      revert\n        /* \"--CODEGEN--\":2:4   */\n    tag_14:\n        /* \"contracts/Lesson3_Fund.sol\":905:1188  function GetPrice() public view returns(uint256)\r... */\n      pop\n      tag_15\n      tag_16\n      jump\t// in\n    tag_15:\n      mload(0x40)\n      dup1\n      dup3\n      dup2\n      mstore\n      0x20\n      add\n      swap2\n      pop\n      pop\n      mload(0x40)\n      dup1\n      swap2\n      sub\n      swap1\n      return\n        /* \"contracts/Lesson3_Fund.sol\":1196:1381  function GetConversionRate(uint256 ETH) public view returns(uint256) {\r... */\n    tag_5:\n      callvalue\n        /* \"--CODEGEN--\":5:14   */\n      dup1\n        /* \"--CODEGEN--\":2:4   */\n      iszero\n      tag_17\n      jumpi\n        /* \"--CODEGEN--\":27:28   */\n      0x00\n        /* \"--CODEGEN--\":24:25   */\n      dup1\n        /* \"--CODEGEN--\":17:29   */\n      revert\n        /* \"--CODEGEN--\":2:4   */\n    tag_17:\n        /* \"contracts/Lesson3_Fund.sol\":1196:1381  function GetConversionRate(uint256 ETH) public view returns(uint256) {\r... */\n      pop\n      tag_18\n      0x04\n      dup1\n      calldatasize\n      sub\n        /* \"--CODEGEN--\":15:17   */\n      0x20\n        /* \"--CODEGEN--\":10:13   */\n      dup2\n        /* \"--CODEGEN--\":7:18   */\n      lt\n        /* \"--CODEGEN--\":4:6   */\n      iszero\n      tag_19\n      jumpi\n        /* \"--CODEGEN--\":31:32   */\n      0x00\n        /* \"--CODEGEN--\":28:29   */\n      dup1\n        /* \"--CODEGEN--\":21:33   */\n      revert\n        /* \"--CODEGEN--\":4:6   */\n    tag_19:\n        /* \"contracts/Lesson3_Fund.sol\":1196:1381  function GetConversionRate(uint256 ETH) public view returns(uint256) {\r... */\n      dup2\n      add\n      swap1\n      dup1\n      dup1\n      calldataload\n      swap1\n      0x20\n      add\n      swap1\n      swap3\n      swap2\n      swap1\n      pop\n      pop\n      pop\n      tag_20\n      jump\t// in\n    tag_18:\n      mload(0x40)\n      dup1\n      dup3\n      dup2\n      mstore\n      0x20\n      add\n      swap2\n      pop\n      pop\n      mload(0x40)\n      dup1\n      swap2\n      sub\n      swap1\n      return\n        /* \"contracts/Lesson3_Fund.sol\":286:334  mapping (address => uint256) public addrToamount */\n    tag_6:\n      callvalue\n        /* \"--CODEGEN--\":5:14   */\n      dup1\n        /* \"--CODEGEN--\":2:4   */\n      iszero\n      tag_21\n      jumpi\n        /* \"--CODEGEN--\":27:28   */\n      0x00\n        /* \"--CODEGEN--\":24:25   */\n      dup1\n        /* \"--CODEGEN--\":17:29   */\n      revert\n        /* \"--CODEGEN--\":2:4   */\n    tag_21:\n        /* \"contracts/Lesson3_Fund.sol\":286:334  mapping (address => uint256) public addrToamount */\n      pop\n      tag_22\n      0x04\n      dup1\n      calldatasize\n      sub\n        /* \"--CODEGEN--\":15:17   */\n      0x20\n        /* \"--CODEGEN--\":10:13   */\n      dup2\n        /* \"--CODEGEN--\":7:18   */\n      lt\n        /* \"--CODEGEN--\":4:6   */\n      iszero\n      tag_23\n      jumpi\n        /* \"--CODEGEN--\":31:32   */\n      0x00\n        /* \"--CODEGEN--\":28:29   */\n      dup1\n        /* \"--CODEGEN--\":21:33   */\n      revert\n        /* \"--CODEGEN--\":4:6   */\n    tag_23:\n        /* \"contracts/Lesson3_Fund.sol\":286:334  mapping (address => uint256) public addrToamount */\n      dup2\n      add\n      swap1\n      dup1\n      dup1\n      calldataload\n      0xffffffffffffffffffffffffffffffffffffffff\n      and\n      swap1\n      0x20\n      add\n      swap1\n      swap3\n      swap2\n      swap1\n      pop\n      pop\n      pop\n      tag_24\n      jump\t// in\n    tag_22:\n      mload(0x40)\n      dup1\n      dup3\n      dup2\n      mstore\n      0x20\n      add\n      swap2\n      pop\n      pop\n      mload(0x40)\n      dup1\n      swap2\n      sub\n      swap1\n      return\n        /* \"contracts/Lesson3_Fund.sol\":343:363  address public owner */\n    tag_7:\n      callvalue\n        /* \"--CODEGEN--\":5:14   */\n      dup1\n        /* \"--CODEGEN--\":2:4   */\n      iszero\n      tag_25\n      jumpi\n        /* \"--CODEGEN--\":27:28   */\n      0x00\n        /* \"--CODEGEN--\":24:25   */\n      dup1\n        /* \"--CODEGEN--\":17:29   */\n      revert\n        /* \"--CODEGEN--\":2:4   */\n    tag_25:\n        /* \"contracts/Lesson3_Fund.sol\":343:363  address public owner */\n      pop\n      tag_26\n      tag_27\n      jump\t// in\n    tag_26:\n      mload(0x40)\n      dup1\n      dup3\n      0xffffffffffffffffffffffffffffffffffffffff\n      and\n      0xffffffffffffffffffffffffffffffffffffffff\n      and\n      dup2\n      mstore\n      0x20\n      add\n      swap2\n      pop\n      pop\n      mload(0x40)\n      dup1\n      swap2\n      sub\n      swap1\n      return\n        /* \"contracts/Lesson3_Fund.sol\":1390:1603  function GetVersion() public view returns (uint256)\r... */\n    tag_8:\n      callvalue\n        /* \"--CODEGEN--\":5:14   */\n      dup1\n        /* \"--CODEGEN--\":2:4   */\n      iszero\n      tag_28\n      jumpi\n        /* \"--CODEGEN--\":27:28   */\n      0x00\n        /* \"--CODEGEN--\":24:25   */\n      dup1\n        /* \"--CODEGEN--\":17:29   */\n      revert\n        /* \"--CODEGEN--\":2:4   */\n    tag_28:\n        /* \"contracts/Lesson3_Fund.sol\":1390:1603  function GetVersion() public view returns (uint256)\r... */\n      pop\n      tag_29\n      tag_30\n      jump\t// in\n    tag_29:\n      mload(0x40)\n      dup1\n      dup3\n      dup2\n      mstore\n      0x20\n      add\n      swap2\n      pop\n      pop\n      mload(0x40)\n      dup1\n      swap2\n      sub\n      swap1\n      return\n        /* \"contracts/Lesson3_Fund.sol\":764:897  function Withdraw() public payable {\r... */\n    tag_11:\n        /* \"contracts/Lesson3_Fund.sol\":830:835  owner */\n      0x01\n      0x00\n      swap1\n      sload\n      swap1\n      0x0100\n      exp\n      swap1\n      div\n      0xffffffffffffffffffffffffffffffffffffffff\n      and\n        /* \"contracts/Lesson3_Fund.sol\":818:835  msg.sender==owner */\n      0xffffffffffffffffffffffffffffffffffffffff\n      and\n        /* \"contracts/Lesson3_Fund.sol\":818:828  msg.sender */\n      caller\n        /* \"contracts/Lesson3_Fund.sol\":818:835  msg.sender==owner */\n      0xffffffffffffffffffffffffffffffffffffffff\n      and\n      eq\n        /* \"contracts/Lesson3_Fund.sol\":810:836  require(msg.sender==owner) */\n      tag_32\n      jumpi\n        /* \"--CODEGEN--\":12:13   */\n      0x00\n        /* \"--CODEGEN--\":9:10   */\n      dup1\n        /* \"--CODEGEN--\":2:14   */\n      revert\n        /* \"contracts/Lesson3_Fund.sol\":810:836  require(msg.sender==owner) */\n    tag_32:\n        /* \"contracts/Lesson3_Fund.sol\":847:857  msg.sender */\n      caller\n        /* \"contracts/Lesson3_Fund.sol\":847:866  msg.sender.transfer */\n      0xffffffffffffffffffffffffffffffffffffffff\n      and\n        /* \"contracts/Lesson3_Fund.sol\":847:889  msg.sender.transfer(address(this).balance) */\n      0x08fc\n        /* \"contracts/Lesson3_Fund.sol\":867:888  address(this).balance */\n      selfbalance\n        /* \"contracts/Lesson3_Fund.sol\":847:889  msg.sender.transfer(address(this).balance) */\n      swap1\n      dup2\n      iszero\n      mul\n      swap1\n      mload(0x40)\n      0x00\n      mload(0x40)\n      dup1\n      dup4\n      sub\n      dup2\n      dup6\n      dup9\n      dup9\n      call\n      swap4\n      pop\n      pop\n      pop\n      pop\n      iszero\n        /* \"--CODEGEN--\":8:17   */\n      dup1\n        /* \"--CODEGEN--\":5:7   */\n      iszero\n      tag_34\n      jumpi\n        /* \"--CODEGEN--\":45:61   */\n      returndatasize\n        /* \"--CODEGEN--\":42:43   */\n      0x00\n        /* \"--CODEGEN--\":39:40   */\n      dup1\n        /* \"--CODEGEN--\":24:62   */\n      returndatacopy\n        /* \"--CODEGEN--\":77:93   */\n      returndatasize\n        /* \"--CODEGEN--\":74:75   */\n      0x00\n        /* \"--CODEGEN--\":67:94   */\n      revert\n        /* \"--CODEGEN--\":5:7   */\n    tag_34:\n        /* \"contracts/Lesson3_Fund.sol\":847:889  msg.sender.transfer(address(this).balance) */\n      pop\n        /* \"contracts/Lesson3_Fund.sol\":764:897  function Withdraw() public payable {\r... */\n      jump\t// out\n        /* \"contracts/Lesson3_Fund.sol\":433:756  function Fund() public payable {\r... */\n    tag_13:\n        /* \"contracts/Lesson3_Fund.sol\":479:490  uint256 min */\n      0x00\n        /* \"contracts/Lesson3_Fund.sol\":492:501  5 *10**18 */\n      0x4563918244f40000\n        /* \"contracts/Lesson3_Fund.sol\":479:501  uint256 min =5 *10**18 */\n      swap1\n      pop\n        /* \"contracts/Lesson3_Fund.sol\":637:640  min */\n      dup1\n        /* \"contracts/Lesson3_Fund.sol\":605:633  GetConversionRate(msg.value) */\n      tag_36\n        /* \"contracts/Lesson3_Fund.sol\":623:632  msg.value */\n      callvalue\n        /* \"contracts/Lesson3_Fund.sol\":605:622  GetConversionRate */\n      tag_20\n        /* \"contracts/Lesson3_Fund.sol\":605:633  GetConversionRate(msg.value) */\n      jump\t// in\n    tag_36:\n        /* \"contracts/Lesson3_Fund.sol\":605:640  GetConversionRate(msg.value) >= min */\n      lt\n      iszero\n        /* \"contracts/Lesson3_Fund.sol\":597:654  require(GetConversionRate(msg.value) >= min, \"Send more\") */\n      tag_37\n      jumpi\n      mload(0x40)\n      0x08c379a000000000000000000000000000000000000000000000000000000000\n      dup2\n      mstore\n      0x04\n      add\n      dup1\n      dup1\n      0x20\n      add\n      dup3\n      dup2\n      sub\n      dup3\n      mstore\n      0x09\n      dup2\n      mstore\n      0x20\n      add\n      dup1\n      0x53656e64206d6f72650000000000000000000000000000000000000000000000\n      dup2\n      mstore\n      pop\n      0x20\n      add\n      swap2\n      pop\n      pop\n      mload(0x40)\n      dup1\n      swap2\n      sub\n      swap1\n      revert\n    tag_37:\n        /* \"contracts/Lesson3_Fund.sol\":696:705  msg.value */\n      callvalue\n        /* \"contracts/Lesson3_Fund.sol\":669:681  addrToamount */\n      0x00\n        /* \"contracts/Lesson3_Fund.sol\":669:693  addrToamount[msg.sender] */\n      dup1\n        /* \"contracts/Lesson3_Fund.sol\":682:692  msg.sender */\n      caller\n        /* \"contracts/Lesson3_Fund.sol\":669:693  addrToamount[msg.sender] */\n      0xffffffffffffffffffffffffffffffffffffffff\n      and\n      0xffffffffffffffffffffffffffffffffffffffff\n      and\n      dup2\n      mstore\n      0x20\n      add\n      swap1\n      dup2\n      mstore\n      0x20\n      add\n      0x00\n      keccak256\n      0x00\n        /* \"contracts/Lesson3_Fund.sol\":669:705  addrToamount[msg.sender]+= msg.value */\n      dup3\n      dup3\n      sload\n      add\n      swap3\n      pop\n      pop\n      dup2\n      swap1\n      sstore\n      pop\n        /* \"contracts/Lesson3_Fund.sol\":433:756  function Fund() public payable {\r... */\n      pop\n      jump\t// out\n        /* \"contracts/Lesson3_Fund.sol\":905:1188  function GetPrice() public view returns(uint256)\r... */\n    tag_16:\n        /* \"contracts/Lesson3_Fund.sol\":945:952  uint256 */\n      0x00\n        /* \"contracts/Lesson3_Fund.sol\":970:1001  AggregatorV3Interface PriceFeed */\n      dup1\n        /* \"contracts/Lesson3_Fund.sol\":1026:1068  0x8A753747A1Fa494EC906cE90E9f37563A8AF630e */\n      0x8a753747a1fa494ec906ce90e9f37563a8af630e\n        /* \"contracts/Lesson3_Fund.sol\":970:1069  AggregatorV3Interface PriceFeed = AggregatorV3Interface(0x8A753747A1Fa494EC906cE90E9f37563A8AF630e) */\n      swap1\n      pop\n        /* \"contracts/Lesson3_Fund.sol\":1099:1108  int price */\n      0x00\n        /* \"contracts/Lesson3_Fund.sol\":1114:1123  PriceFeed */\n      dup2\n        /* \"contracts/Lesson3_Fund.sol\":1114:1139  PriceFeed.latestRoundData */\n      0xffffffffffffffffffffffffffffffffffffffff\n      and\n      0xfeaf968c\n        /* \"contracts/Lesson3_Fund.sol\":1114:1141  PriceFeed.latestRoundData() */\n      mload(0x40)\n      dup2\n      0xffffffff\n      and\n      0xe0\n      shl\n      dup2\n      mstore\n      0x04\n      add\n      0xa0\n      mload(0x40)\n      dup1\n      dup4\n      sub\n      dup2\n      dup7\n      dup1\n      extcodesize\n      iszero\n        /* \"--CODEGEN--\":5:14   */\n      dup1\n        /* \"--CODEGEN--\":2:4   */\n      iszero\n      tag_39\n      jumpi\n        /* \"--CODEGEN--\":27:28   */\n      0x00\n        /* \"--CODEGEN--\":24:25   */\n      dup1\n        /* \"--CODEGEN--\":17:29   */\n      revert\n        /* \"--CODEGEN--\":2:4   */\n    tag_39:\n        /* \"contracts/Lesson3_Fund.sol\":1114:1141  PriceFeed.latestRoundData() */\n      pop\n      gas\n      staticcall\n      iszero\n        /* \"--CODEGEN--\":8:17   */\n      dup1\n        /* \"--CODEGEN--\":5:7   */\n      iszero\n      tag_41\n      jumpi\n        /* \"--CODEGEN--\":45:61   */\n      returndatasize\n        /* \"--CODEGEN--\":42:43   */\n      0x00\n        /* \"--CODEGEN--\":39:40   */\n      dup1\n        /* \"--CODEGEN--\":24:62   */\n      returndatacopy\n        /* \"--CODEGEN--\":77:93   */\n      returndatasize\n        /* \"--CODEGEN--\":74:75   */\n      0x00\n        /* \"--CODEGEN--\":67:94   */\n      revert\n        /* \"--CODEGEN--\":5:7   */\n    tag_41:\n        /* \"contracts/Lesson3_Fund.sol\":1114:1141  PriceFeed.latestRoundData() */\n      pop\n      pop\n      pop\n      pop\n      mload(0x40)\n      returndatasize\n        /* \"--CODEGEN--\":15:18   */\n      0xa0\n        /* \"--CODEGEN--\":10:13   */\n      dup2\n        /* \"--CODEGEN--\":7:19   */\n      lt\n        /* \"--CODEGEN--\":4:6   */\n      iszero\n      tag_42\n      jumpi\n        /* \"--CODEGEN--\":32:33   */\n      0x00\n        /* \"--CODEGEN--\":29:30   */\n      dup1\n        /* \"--CODEGEN--\":22:34   */\n      revert\n        /* \"--CODEGEN--\":4:6   */\n    tag_42:\n        /* \"contracts/Lesson3_Fund.sol\":1114:1141  PriceFeed.latestRoundData() */\n      dup2\n      add\n      swap1\n      dup1\n      dup1\n      mload\n      swap1\n      0x20\n      add\n      swap1\n      swap3\n      swap2\n      swap1\n      dup1\n      mload\n      swap1\n      0x20\n      add\n      swap1\n      swap3\n      swap2\n      swap1\n      dup1\n      mload\n      swap1\n      0x20\n      add\n      swap1\n      swap3\n      swap2\n      swap1\n      dup1\n      mload\n      swap1\n      0x20\n      add\n      swap1\n      swap3\n      swap2\n      swap1\n      dup1\n      mload\n      swap1\n      0x20\n      add\n      swap1\n      swap3\n      swap2\n      swap1\n      pop\n      pop\n      pop\n        /* \"contracts/Lesson3_Fund.sol\":1080:1141  (   ,\r... */\n      pop\n      pop\n      pop\n      swap2\n      pop\n      pop\n        /* \"contracts/Lesson3_Fund.sol\":1173:1179  10**10 */\n      0x02540be400\n        /* \"contracts/Lesson3_Fund.sol\":1167:1172  price */\n      dup2\n        /* \"contracts/Lesson3_Fund.sol\":1167:1179  price*10**10 */\n      mul\n        /* \"contracts/Lesson3_Fund.sol\":1152:1180  return uint256(price*10**10) */\n      swap3\n      pop\n      pop\n      pop\n        /* \"contracts/Lesson3_Fund.sol\":905:1188  function GetPrice() public view returns(uint256)\r... */\n      swap1\n      jump\t// out\n        /* \"contracts/Lesson3_Fund.sol\":1196:1381  function GetConversionRate(uint256 ETH) public view returns(uint256) {\r... */\n    tag_20:\n        /* \"contracts/Lesson3_Fund.sol\":1256:1263  uint256 */\n      0x00\n        /* \"contracts/Lesson3_Fund.sol\":1276:1292  uint256 ETHPrice */\n      dup1\n        /* \"contracts/Lesson3_Fund.sol\":1295:1305  GetPrice() */\n      tag_44\n        /* \"contracts/Lesson3_Fund.sol\":1295:1303  GetPrice */\n      tag_16\n        /* \"contracts/Lesson3_Fund.sol\":1295:1305  GetPrice() */\n      jump\t// in\n    tag_44:\n        /* \"contracts/Lesson3_Fund.sol\":1276:1305  uint256 ETHPrice = GetPrice() */\n      swap1\n      pop\n        /* \"contracts/Lesson3_Fund.sol\":1316:1327  uint256 USD */\n      0x00\n        /* \"contracts/Lesson3_Fund.sol\":1345:1351  10**18 */\n      0x0de0b6b3a7640000\n        /* \"contracts/Lesson3_Fund.sol\":1339:1342  ETH */\n      dup5\n        /* \"contracts/Lesson3_Fund.sol\":1329:1337  ETHPrice */\n      dup4\n        /* \"contracts/Lesson3_Fund.sol\":1329:1342  ETHPrice* ETH */\n      mul\n        /* \"contracts/Lesson3_Fund.sol\":1328:1352  (ETHPrice* ETH)/(10**18) */\n      dup2\n      tag_45\n      jumpi\n      invalid\n    tag_45:\n      div\n        /* \"contracts/Lesson3_Fund.sol\":1316:1352  uint256 USD=(ETHPrice* ETH)/(10**18) */\n      swap1\n      pop\n        /* \"contracts/Lesson3_Fund.sol\":1370:1373  USD */\n      dup1\n        /* \"contracts/Lesson3_Fund.sol\":1363:1373  return USD */\n      swap3\n      pop\n      pop\n      pop\n        /* \"contracts/Lesson3_Fund.sol\":1196:1381  function GetConversionRate(uint256 ETH) public view returns(uint256) {\r... */\n      swap2\n      swap1\n      pop\n      jump\t// out\n        /* \"contracts/Lesson3_Fund.sol\":286:334  mapping (address => uint256) public addrToamount */\n    tag_24:\n      mstore(0x20, 0x00)\n      dup1\n      0x00\n      mstore\n      keccak256(0x00, 0x40)\n      0x00\n      swap2\n      pop\n      swap1\n      pop\n      sload\n      dup2\n      jump\t// out\n        /* \"contracts/Lesson3_Fund.sol\":343:363  address public owner */\n    tag_27:\n      0x01\n      0x00\n      swap1\n      sload\n      swap1\n      0x0100\n      exp\n      swap1\n      div\n      0xffffffffffffffffffffffffffffffffffffffff\n      and\n      dup2\n      jump\t// out\n        /* \"contracts/Lesson3_Fund.sol\":1390:1603  function GetVersion() public view returns (uint256)\r... */\n    tag_30:\n        /* \"contracts/Lesson3_Fund.sol\":1433:1440  uint256 */\n      0x00\n        /* \"contracts/Lesson3_Fund.sol\":1458:1489  AggregatorV3Interface PriceFeed */\n      dup1\n        /* \"contracts/Lesson3_Fund.sol\":1515:1557  0x8A753747A1Fa494EC906cE90E9f37563A8AF630e */\n      0x8a753747a1fa494ec906ce90e9f37563a8af630e\n        /* \"contracts/Lesson3_Fund.sol\":1458:1558  AggregatorV3Interface PriceFeed =  AggregatorV3Interface(0x8A753747A1Fa494EC906cE90E9f37563A8AF630e) */\n      swap1\n      pop\n        /* \"contracts/Lesson3_Fund.sol\":1576:1585  PriceFeed */\n      dup1\n        /* \"contracts/Lesson3_Fund.sol\":1576:1593  PriceFeed.version */\n      0xffffffffffffffffffffffffffffffffffffffff\n      and\n      0x54fd4d50\n        /* \"contracts/Lesson3_Fund.sol\":1576:1595  PriceFeed.version() */\n      mload(0x40)\n      dup2\n      0xffffffff\n      and\n      0xe0\n      shl\n      dup2\n      mstore\n      0x04\n      add\n      0x20\n      mload(0x40)\n      dup1\n      dup4\n      sub\n      dup2\n      dup7\n      dup1\n      extcodesize\n      iszero\n        /* \"--CODEGEN--\":5:14   */\n      dup1\n        /* \"--CODEGEN--\":2:4   */\n      iszero\n      tag_47\n      jumpi\n        /* \"--CODEGEN--\":27:28   */\n      0x00\n        /* \"--CODEGEN--\":24:25   */\n      dup1\n        /* \"--CODEGEN--\":17:29   */\n      revert\n        /* \"--CODEGEN--\":2:4   */\n    tag_47:\n        /* \"contracts/Lesson3_Fund.sol\":1576:1595  PriceFeed.version() */\n      pop\n      gas\n      staticcall\n      iszero\n        /* \"--CODEGEN--\":8:17   */\n      dup1\n        /* \"--CODEGEN--\":5:7   */\n      iszero\n      tag_49\n      jumpi\n        /* \"--CODEGEN--\":45:61   */\n      returndatasize\n        /* \"--CODEGEN--\":42:43   */\n      0x00\n        /* \"--CODEGEN--\":39:40   */\n      dup1\n        /* \"--CODEGEN--\":24:62   */\n      returndatacopy\n        /* \"--CODEGEN--\":77:93   */\n      returndatasize\n        /* \"--CODEGEN--\":74:75   */\n      0x00\n        /* \"--CODEGEN--\":67:94   */\n      revert\n        /* \"--CODEGEN--\":5:7   */\n    tag_49:\n        /* \"contracts/Lesson3_Fund.sol\":1576:1595  PriceFeed.version() */\n      pop\n      pop\n      pop\n      pop\n      mload(0x40)\n      returndatasize\n        /* \"--CODEGEN--\":15:17   */\n      0x20\n        /* \"--CODEGEN--\":10:13   */\n      dup2\n        /* \"--CODEGEN--\":7:18   */\n      lt\n        /* \"--CODEGEN--\":4:6   */\n      iszero\n      tag_50\n      jumpi\n        /* \"--CODEGEN--\":31:32   */\n      0x00\n        /* \"--CODEGEN--\":28:29   */\n      dup1\n        /* \"--CODEGEN--\":21:33   */\n      revert\n        /* \"--CODEGEN--\":4:6   */\n    tag_50:\n        /* \"contracts/Lesson3_Fund.sol\":1576:1595  PriceFeed.version() */\n      dup2\n      add\n      swap1\n      dup1\n      dup1\n      mload\n      swap1\n      0x20\n      add\n      swap1\n      swap3\n      swap2\n      swap1\n      pop\n      pop\n      pop\n        /* \"contracts/Lesson3_Fund.sol\":1569:1595  return PriceFeed.version() */\n      swap2\n      pop\n      pop\n        /* \"contracts/Lesson3_Fund.sol\":1390:1603  function GetVersion() public view returns (uint256)\r... */\n      swap1\n      jump\t// out\n\n    auxdata: 0xa2646970667358221220c4aa5d014654029a2c88a84401ff1b8a8f7c261a591b50d5fcfb24ee802d9a4a64736f6c63430006060033\n}\n",
				"bytecode": {
					"linkReferences": {},
					"object": "608060405234801561001057600080fd5b5033600160006101000a81548173ffffffffffffffffffffffffffffffffffffffff021916908373ffffffffffffffffffffffffffffffffffffffff160217905550610585806100616000396000f3fe6080604052600436106100705760003560e01c8063793b233b1161004e578063793b233b146100b45780638789aaad146101035780638da5cb5b14610168578063c6129a5a146101bf57610070565b806357ea89b6146100755780636ce1417e1461007f5780636d90164e14610089575b600080fd5b61007d6101ea565b005b61008761028d565b005b34801561009557600080fd5b5061009e610367565b6040518082815260200191505060405180910390f35b3480156100c057600080fd5b506100ed600480360360208110156100d757600080fd5b8101908080359060200190929190505050610441565b6040518082815260200191505060405180910390f35b34801561010f57600080fd5b506101526004803603602081101561012657600080fd5b81019080803573ffffffffffffffffffffffffffffffffffffffff169060200190929190505050610470565b6040518082815260200191505060405180910390f35b34801561017457600080fd5b5061017d610488565b604051808273ffffffffffffffffffffffffffffffffffffffff1673ffffffffffffffffffffffffffffffffffffffff16815260200191505060405180910390f35b3480156101cb57600080fd5b506101d46104ae565b6040518082815260200191505060405180910390f35b600160009054906101000a900473ffffffffffffffffffffffffffffffffffffffff1673ffffffffffffffffffffffffffffffffffffffff163373ffffffffffffffffffffffffffffffffffffffff161461024457600080fd5b3373ffffffffffffffffffffffffffffffffffffffff166108fc479081150290604051600060405180830381858888f1935050505015801561028a573d6000803e3d6000fd5b50565b6000674563918244f400009050806102a434610441565b1015610318576040517f08c379a00000000000000000000000000000000000000000000000000000000081526004018080602001828103825260098152602001807f53656e64206d6f7265000000000000000000000000000000000000000000000081525060200191505060405180910390fd5b346000803373ffffffffffffffffffffffffffffffffffffffff1673ffffffffffffffffffffffffffffffffffffffff1681526020019081526020016000206000828254019250508190555050565b600080738a753747a1fa494ec906ce90e9f37563a8af630e905060008173ffffffffffffffffffffffffffffffffffffffff1663feaf968c6040518163ffffffff1660e01b815260040160a06040518083038186803b1580156103c957600080fd5b505afa1580156103dd573d6000803e3d6000fd5b505050506040513d60a08110156103f357600080fd5b8101908080519060200190929190805190602001909291908051906020019092919080519060200190929190805190602001909291905050505050509150506402540be40081029250505090565b60008061044c610367565b90506000670de0b6b3a76400008483028161046357fe5b0490508092505050919050565b60006020528060005260406000206000915090505481565b600160009054906101000a900473ffffffffffffffffffffffffffffffffffffffff1681565b600080738a753747a1fa494ec906ce90e9f37563a8af630e90508073ffffffffffffffffffffffffffffffffffffffff166354fd4d506040518163ffffffff1660e01b815260040160206040518083038186803b15801561050e57600080fd5b505afa158015610522573d6000803e3d6000fd5b505050506040513d602081101561053857600080fd5b81019080805190602001909291905050509150509056fea2646970667358221220c4aa5d014654029a2c88a84401ff1b8a8f7c261a591b50d5fcfb24ee802d9a4a64736f6c63430006060033",
					"opcodes": "PUSH1 0x80 PUSH1 0x40 MSTORE CALLVALUE DUP1 ISZERO PUSH2 0x10 JUMPI PUSH1 0x0 DUP1 REVERT JUMPDEST POP CALLER PUSH1 0x1 PUSH1 0x0 PUSH2 0x100 EXP DUP2 SLOAD DUP2 PUSH20 0xFFFFFFFFFFFFFFFFFFFFFFFFFFFFFFFFFFFFFFFF MUL NOT AND SWAP1 DUP4 PUSH20 0xFFFFFFFFFFFFFFFFFFFFFFFFFFFFFFFFFFFFFFFF AND MUL OR SWAP1 SSTORE POP PUSH2 0x585 DUP1 PUSH2 0x61 PUSH1 0x0 CODECOPY PUSH1 0x0 RETURN INVALID PUSH1 0x80 PUSH1 0x40 MSTORE PUSH1 0x4 CALLDATASIZE LT PUSH2 0x70 JUMPI PUSH1 0x0 CALLDATALOAD PUSH1 0xE0 SHR DUP1 PUSH4 0x793B233B GT PUSH2 0x4E JUMPI DUP1 PUSH4 0x793B233B EQ PUSH2 0xB4 JUMPI DUP1 PUSH4 0x8789AAAD EQ PUSH2 0x103 JUMPI DUP1 PUSH4 0x8DA5CB5B EQ PUSH2 0x168 JUMPI DUP1 PUSH4 0xC6129A5A EQ PUSH2 0x1BF JUMPI PUSH2 0x70 JUMP JUMPDEST DUP1 PUSH4 0x57EA89B6 EQ PUSH2 0x75 JUMPI DUP1 PUSH4 0x6CE1417E EQ PUSH2 0x7F JUMPI DUP1 PUSH4 0x6D90164E EQ PUSH2 0x89 JUMPI JUMPDEST PUSH1 0x0 DUP1 REVERT JUMPDEST PUSH2 0x7D PUSH2 0x1EA JUMP JUMPDEST STOP JUMPDEST PUSH2 0x87 PUSH2 0x28D JUMP JUMPDEST STOP JUMPDEST CALLVALUE DUP1 ISZERO PUSH2 0x95 JUMPI PUSH1 0x0 DUP1 REVERT JUMPDEST POP PUSH2 0x9E PUSH2 0x367 JUMP JUMPDEST PUSH1 0x40 MLOAD DUP1 DUP3 DUP2 MSTORE PUSH1 0x20 ADD SWAP2 POP POP PUSH1 0x40 MLOAD DUP1 SWAP2 SUB SWAP1 RETURN JUMPDEST CALLVALUE DUP1 ISZERO PUSH2 0xC0 JUMPI PUSH1 0x0 DUP1 REVERT JUMPDEST POP PUSH2 0xED PUSH1 0x4 DUP1 CALLDATASIZE SUB PUSH1 0x20 DUP2 LT ISZERO PUSH2 0xD7 JUMPI PUSH1 0x0 DUP1 REVERT JUMPDEST DUP2 ADD SWAP1 DUP1 DUP1 CALLDATALOAD SWAP1 PUSH1 0x20 ADD SWAP1 SWAP3 SWAP2 SWAP1 POP POP POP PUSH2 0x441 JUMP JUMPDEST PUSH1 0x40 MLOAD DUP1 DUP3 DUP2 MSTORE PUSH1 0x20 ADD SWAP2 POP POP PUSH1 0x40 MLOAD DUP1 SWAP2 SUB SWAP1 RETURN JUMPDEST CALLVALUE DUP1 ISZERO PUSH2 0x10F JUMPI PUSH1 0x0 DUP1 REVERT JUMPDEST POP PUSH2 0x152 PUSH1 0x4 DUP1 CALLDATASIZE SUB PUSH1 0x20 DUP2 LT ISZERO PUSH2 0x126 JUMPI PUSH1 0x0 DUP1 REVERT JUMPDEST DUP2 ADD SWAP1 DUP1 DUP1 CALLDATALOAD PUSH20 0xFFFFFFFFFFFFFFFFFFFFFFFFFFFFFFFFFFFFFFFF AND SWAP1 PUSH1 0x20 ADD SWAP1 SWAP3 SWAP2 SWAP1 POP POP POP PUSH2 0x470 JUMP JUMPDEST PUSH1 0x40 MLOAD DUP1 DUP3 DUP2 MSTORE PUSH1 0x20 ADD SWAP2 POP POP PUSH1 0x40 MLOAD DUP1 SWAP2 SUB SWAP1 RETURN JUMPDEST CALLVALUE DUP1 ISZERO PUSH2 0x174 JUMPI PUSH1 0x0 DUP1 REVERT JUMPDEST POP PUSH2 0x17D PUSH2 0x488 JUMP JUMPDEST PUSH1 0x40 MLOAD DUP1 DUP3 PUSH20 0xFFFFFFFFFFFFFFFFFFFFFFFFFFFFFFFFFFFFFFFF AND PUSH20 0xFFFFFFFFFFFFFFFFFFFFFFFFFFFFFFFFFFFFFFFF AND DUP2 MSTORE PUSH1 0x20 ADD SWAP2 POP POP PUSH1 0x40 MLOAD DUP1 SWAP2 SUB SWAP1 RETURN JUMPDEST CALLVALUE DUP1 ISZERO PUSH2 0x1CB JUMPI PUSH1 0x0 DUP1 REVERT JUMPDEST POP PUSH2 0x1D4 PUSH2 0x4AE JUMP JUMPDEST PUSH1 0x40 MLOAD DUP1 DUP3 DUP2 MSTORE PUSH1 0x20 ADD SWAP2 POP POP PUSH1 0x40 MLOAD DUP1 SWAP2 SUB SWAP1 RETURN JUMPDEST PUSH1 0x1 PUSH1 0x0 SWAP1 SLOAD SWAP1 PUSH2 0x100 EXP SWAP1 DIV PUSH20 0xFFFFFFFFFFFFFFFFFFFFFFFFFFFFFFFFFFFFFFFF AND PUSH20 0xFFFFFFFFFFFFFFFFFFFFFFFFFFFFFFFFFFFFFFFF AND CALLER PUSH20 0xFFFFFFFFFFFFFFFFFFFFFFFFFFFFFFFFFFFFFFFF AND EQ PUSH2 0x244 JUMPI PUSH1 0x0 DUP1 REVERT JUMPDEST CALLER PUSH20 0xFFFFFFFFFFFFFFFFFFFFFFFFFFFFFFFFFFFFFFFF AND PUSH2 0x8FC SELFBALANCE SWAP1 DUP2 ISZERO MUL SWAP1 PUSH1 0x40 MLOAD PUSH1 0x0 PUSH1 0x40 MLOAD DUP1 DUP4 SUB DUP2 DUP6 DUP9 DUP9 CALL SWAP4 POP POP POP POP ISZERO DUP1 ISZERO PUSH2 0x28A JUMPI RETURNDATASIZE PUSH1 0x0 DUP1 RETURNDATACOPY RETURNDATASIZE PUSH1 0x0 REVERT JUMPDEST POP JUMP JUMPDEST PUSH1 0x0 PUSH8 0x4563918244F40000 SWAP1 POP DUP1 PUSH2 0x2A4 CALLVALUE PUSH2 0x441 JUMP JUMPDEST LT ISZERO PUSH2 0x318 JUMPI PUSH1 0x40 MLOAD PUSH32 0x8C379A000000000000000000000000000000000000000000000000000000000 DUP2 MSTORE PUSH1 0x4 ADD DUP1 DUP1 PUSH1 0x20 ADD DUP3 DUP2 SUB DUP3 MSTORE PUSH1 0x9 DUP2 MSTORE PUSH1 0x20 ADD DUP1 PUSH32 0x53656E64206D6F72650000000000000000000000000000000000000000000000 DUP2 MSTORE POP PUSH1 0x20 ADD SWAP2 POP POP PUSH1 0x40 MLOAD DUP1 SWAP2 SUB SWAP1 REVERT JUMPDEST CALLVALUE PUSH1 0x0 DUP1 CALLER PUSH20 0xFFFFFFFFFFFFFFFFFFFFFFFFFFFFFFFFFFFFFFFF AND PUSH20 0xFFFFFFFFFFFFFFFFFFFFFFFFFFFFFFFFFFFFFFFF AND DUP2 MSTORE PUSH1 0x20 ADD SWAP1 DUP2 MSTORE PUSH1 0x20 ADD PUSH1 0x0 KECCAK256 PUSH1 0x0 DUP3 DUP3 SLOAD ADD SWAP3 POP POP DUP2 SWAP1 SSTORE POP POP JUMP JUMPDEST PUSH1 0x0 DUP1 PUSH20 0x8A753747A1FA494EC906CE90E9F37563A8AF630E SWAP1 POP PUSH1 0x0 DUP2 PUSH20 0xFFFFFFFFFFFFFFFFFFFFFFFFFFFFFFFFFFFFFFFF AND PUSH4 0xFEAF968C PUSH1 0x40 MLOAD DUP2 PUSH4 0xFFFFFFFF AND PUSH1 0xE0 SHL DUP2 MSTORE PUSH1 0x4 ADD PUSH1 0xA0 PUSH1 0x40 MLOAD DUP1 DUP4 SUB DUP2 DUP7 DUP1 EXTCODESIZE ISZERO DUP1 ISZERO PUSH2 0x3C9 JUMPI PUSH1 0x0 DUP1 REVERT JUMPDEST POP GAS STATICCALL ISZERO DUP1 ISZERO PUSH2 0x3DD JUMPI RETURNDATASIZE PUSH1 0x0 DUP1 RETURNDATACOPY RETURNDATASIZE PUSH1 0x0 REVERT JUMPDEST POP POP POP POP PUSH1 0x40 MLOAD RETURNDATASIZE PUSH1 0xA0 DUP2 LT ISZERO PUSH2 0x3F3 JUMPI PUSH1 0x0 DUP1 REVERT JUMPDEST DUP2 ADD SWAP1 DUP1 DUP1 MLOAD SWAP1 PUSH1 0x20 ADD SWAP1 SWAP3 SWAP2 SWAP1 DUP1 MLOAD SWAP1 PUSH1 0x20 ADD SWAP1 SWAP3 SWAP2 SWAP1 DUP1 MLOAD SWAP1 PUSH1 0x20 ADD SWAP1 SWAP3 SWAP2 SWAP1 DUP1 MLOAD SWAP1 PUSH1 0x20 ADD SWAP1 SWAP3 SWAP2 SWAP1 DUP1 MLOAD SWAP1 PUSH1 0x20 ADD SWAP1 SWAP3 SWAP2 SWAP1 POP POP POP POP POP POP SWAP2 POP POP PUSH5 0x2540BE400 DUP2 MUL SWAP3 POP POP POP SWAP1 JUMP JUMPDEST PUSH1 0x0 DUP1 PUSH2 0x44C PUSH2 0x367 JUMP JUMPDEST SWAP1 POP PUSH1 0x0 PUSH8 0xDE0B6B3A7640000 DUP5 DUP4 MUL DUP2 PUSH2 0x463 JUMPI INVALID JUMPDEST DIV SWAP1 POP DUP1 SWAP3 POP POP POP SWAP2 SWAP1 POP JUMP JUMPDEST PUSH1 0x0 PUSH1 0x20 MSTORE DUP1 PUSH1 0x0 MSTORE PUSH1 0x40 PUSH1 0x0 KECCAK256 PUSH1 0x0 SWAP2 POP SWAP1 POP SLOAD DUP2 JUMP JUMPDEST PUSH1 0x1 PUSH1 0x0 SWAP1 SLOAD SWAP1 PUSH2 0x100 EXP SWAP1 DIV PUSH20 0xFFFFFFFFFFFFFFFFFFFFFFFFFFFFFFFFFFFFFFFF AND DUP2 JUMP JUMPDEST PUSH1 0x0 DUP1 PUSH20 0x8A753747A1FA494EC906CE90E9F37563A8AF630E SWAP1 POP DUP1 PUSH20 0xFFFFFFFFFFFFFFFFFFFFFFFFFFFFFFFFFFFFFFFF AND PUSH4 0x54FD4D50 PUSH1 0x40 MLOAD DUP2 PUSH4 0xFFFFFFFF AND PUSH1 0xE0 SHL DUP2 MSTORE PUSH1 0x4 ADD PUSH1 0x20 PUSH1 0x40 MLOAD DUP1 DUP4 SUB DUP2 DUP7 DUP1 EXTCODESIZE ISZERO DUP1 ISZERO PUSH2 0x50E JUMPI PUSH1 0x0 DUP1 REVERT JUMPDEST POP GAS STATICCALL ISZERO DUP1 ISZERO PUSH2 0x522 JUMPI RETURNDATASIZE PUSH1 0x0 DUP1 RETURNDATACOPY RETURNDATASIZE PUSH1 0x0 REVERT JUMPDEST POP POP POP POP PUSH1 0x40 MLOAD RETURNDATASIZE PUSH1 0x20 DUP2 LT ISZERO PUSH2 0x538 JUMPI PUSH1 0x0 DUP1 REVERT JUMPDEST DUP2 ADD SWAP1 DUP1 DUP1 MLOAD SWAP1 PUSH1 0x20 ADD SWAP1 SWAP3 SWAP2 SWAP1 POP POP POP SWAP2 POP POP SWAP1 JUMP INVALID LOG2 PUSH5 0x6970667358 0x22 SLT KECCAK256 0xC4 0xAA 0x5D ADD CHAINID SLOAD MUL SWAP11 0x2C DUP9 0xA8 DIFFICULTY ADD SELFDESTRUCT SHL DUP11 DUP16 PUSH29 0x261A591B50D5FCFB24EE802D9A4A64736F6C6343000606003300000000 "
				},
				"gasEstimates": {
					"creation": {
						"codeDepositCost": "282600",
						"executionCost": "21190",
						"totalCost": "303790"
					},
					"external": {
						"Fund()": "infinite",
						"GetConversionRate(uint256)": "infinite",
						"GetPrice()": "infinite",
						"GetVersion()": "infinite",
						"Withdraw()": "infinite",
						"addrToamount(address)": "1191",
						"owner()": "1097"
					}
				},
				"methodIdentifiers": {
					"Fund()": "6ce1417e",
					"GetConversionRate(uint256)": "793b233b",
					"GetPrice()": "6d90164e",
					"GetVersion()": "c6129a5a",
					"Withdraw()": "57ea89b6",
					"addrToamount(address)": "8789aaad",
					"owner()": "8da5cb5b"
				}
			},
			"storageLayout": {
				"storage": [
					{
						"astId": 195,
						"contract": "contracts/Lesson3_Fund.sol:Fundme",
						"label": "addrToamount",
						"offset": 0,
						"slot": "0",
						"type": "t_mapping(t_address,t_uint256)"
					},
					{
						"astId": 197,
						"contract": "contracts/Lesson3_Fund.sol:Fundme",
						"label": "owner",
						"offset": 0,
						"slot": "1",
						"type": "t_address"
					}
				],
				"types": {
					"t_address": {
						"encoding": "inplace",
						"label": "address",
						"numberOfBytes": "20"
					},
					"t_mapping(t_address,t_uint256)": {
						"encoding": "mapping",
						"key": "t_address",
						"label": "mapping(address => uint256)",
						"numberOfBytes": "32",
						"value": "t_uint256"
					},
					"t_uint256": {
						"encoding": "inplace",
						"label": "uint256",
						"numberOfBytes": "32"
					}
				}
			},
			"userdoc": {
				"methods": {}
			}
		}
	}
}