{
	"contracts/Lesson3_Storage_Factory.sol": {
		"StorageFactory": {
			"abi": [
				{
					"inputs": [],
					"name": "CreateSC",
					"outputs": [],
					"stateMutability": "nonpayable",
					"type": "function"
				},
				{
					"inputs": [
						{
							"internalType": "uint256",
							"name": "index",
							"type": "uint256"
						}
					],
					"name": "sfget",
					"outputs": [
						{
							"internalType": "int256",
							"name": "",
							"type": "int256"
						}
					],
					"stateMutability": "view",
					"type": "function"
				},
				{
					"inputs": [
						{
							"internalType": "uint256",
							"name": "index",
							"type": "uint256"
						},
						{
							"internalType": "int256",
							"name": "num",
							"type": "int256"
						}
					],
					"name": "sfstr",
					"outputs": [],
					"stateMutability": "nonpayable",
					"type": "function"
				},
				{
					"inputs": [
						{
							"internalType": "uint256",
							"name": "",
							"type": "uint256"
						}
					],
					"name": "sta",
					"outputs": [
						{
							"internalType": "contract Storage",
							"name": "",
							"type": "address"
						}
					],
					"stateMutability": "view",
					"type": "function"
				}
			],
			"devdoc": {
				"kind": "dev",
				"methods": {},
				"version": 1
			},
			"evm": {
				"assembly": "    /* \"contracts/Lesson3_Storage_Factory.sol\":97:495  contract StorageFactory{\r... */\n  mstore(0x40, 0x80)\n  callvalue\n  dup1\n  iszero\n  tag_1\n  jumpi\n  0x00\n  dup1\n  revert\ntag_1:\n  pop\n  dataSize(sub_0)\n  dup1\n  dataOffset(sub_0)\n  0x00\n  codecopy\n  0x00\n  return\nstop\n\nsub_0: assembly {\n        /* \"contracts/Lesson3_Storage_Factory.sol\":97:495  contract StorageFactory{\r... */\n      mstore(0x40, 0x80)\n      callvalue\n      dup1\n      iszero\n      tag_1\n      jumpi\n      0x00\n      dup1\n      revert\n    tag_1:\n      pop\n      jumpi(tag_2, lt(calldatasize, 0x04))\n      shr(0xe0, calldataload(0x00))\n      dup1\n      0x0ad91b64\n      eq\n      tag_3\n      jumpi\n      dup1\n      0x3a986bb7\n      eq\n      tag_4\n      jumpi\n      dup1\n      0x7662a8c2\n      eq\n      tag_5\n      jumpi\n      dup1\n      0xbe093e53\n      eq\n      tag_6\n      jumpi\n    tag_2:\n      0x00\n      dup1\n      revert\n        /* \"contracts/Lesson3_Storage_Factory.sol\":366:492  function sfget(uint256 index) public view returns (int)\r... */\n    tag_3:\n      tag_7\n      0x04\n      dup1\n      calldatasize\n      sub\n      0x20\n      dup2\n      lt\n      iszero\n      tag_8\n      jumpi\n      0x00\n      dup1\n      revert\n    tag_8:\n      dup2\n      add\n      swap1\n      dup1\n      dup1\n      calldataload\n      swap1\n      0x20\n      add\n      swap1\n      swap3\n      swap2\n      swap1\n      pop\n      pop\n      pop\n      tag_9\n      jump\t// in\n    tag_7:\n      mload(0x40)\n      dup1\n      dup3\n      dup2\n      mstore\n      0x20\n      add\n      swap2\n      pop\n      pop\n      mload(0x40)\n      dup1\n      swap2\n      sub\n      swap1\n      return\n        /* \"contracts/Lesson3_Storage_Factory.sol\":156:253  function CreateSC() public {\r... */\n    tag_4:\n      tag_10\n      tag_11\n      jump\t// in\n    tag_10:\n      stop\n        /* \"contracts/Lesson3_Storage_Factory.sol\":127:147  Storage[] public sta */\n    tag_5:\n      tag_12\n      0x04\n      dup1\n      calldatasize\n      sub\n      0x20\n      dup2\n      lt\n      iszero\n      tag_13\n      jumpi\n      0x00\n      dup1\n      revert\n    tag_13:\n      dup2\n      add\n      swap1\n      dup1\n      dup1\n      calldataload\n      swap1\n      0x20\n      add\n      swap1\n      swap3\n      swap2\n      swap1\n      pop\n      pop\n      pop\n      tag_14\n      jump\t// in\n    tag_12:\n      mload(0x40)\n      dup1\n      dup3\n      0xffffffffffffffffffffffffffffffffffffffff\n      and\n      dup2\n      mstore\n      0x20\n      add\n      swap2\n      pop\n      pop\n      mload(0x40)\n      dup1\n      swap2\n      sub\n      swap1\n      return\n        /* \"contracts/Lesson3_Storage_Factory.sol\":259:360  function sfstr(uint256 index, int num) public{\r... */\n    tag_6:\n      tag_15\n      0x04\n      dup1\n      calldatasize\n      sub\n      0x40\n      dup2\n      lt\n      iszero\n      tag_16\n      jumpi\n      0x00\n      dup1\n      revert\n    tag_16:\n      dup2\n      add\n      swap1\n      dup1\n      dup1\n      calldataload\n      swap1\n      0x20\n      add\n      swap1\n      swap3\n      swap2\n      swap1\n      dup1\n      calldataload\n      swap1\n      0x20\n      add\n      swap1\n      swap3\n      swap2\n      swap1\n      pop\n      pop\n      pop\n      tag_17\n      jump\t// in\n    tag_15:\n      stop\n        /* \"contracts/Lesson3_Storage_Factory.sol\":366:492  function sfget(uint256 index) public view returns (int)\r... */\n    tag_9:\n        /* \"contracts/Lesson3_Storage_Factory.sol\":417:420  int */\n      0x00\n        /* \"contracts/Lesson3_Storage_Factory.sol\":461:464  sta */\n      dup1\n        /* \"contracts/Lesson3_Storage_Factory.sol\":465:470  index */\n      dup3\n        /* \"contracts/Lesson3_Storage_Factory.sol\":461:471  sta[index] */\n      dup2\n      sload\n      dup2\n      lt\n      tag_19\n      jumpi\n      invalid\n    tag_19:\n      swap1\n      0x00\n      mstore\n      keccak256(0x00, 0x20)\n      add\n      0x00\n      swap1\n      sload\n      swap1\n      0x0100\n      exp\n      swap1\n      div\n      0xffffffffffffffffffffffffffffffffffffffff\n      and\n        /* \"contracts/Lesson3_Storage_Factory.sol\":445:482  Storage(address(sta[index])).retrieve */\n      0xffffffffffffffffffffffffffffffffffffffff\n      and\n      0x2e64cec1\n        /* \"contracts/Lesson3_Storage_Factory.sol\":445:484  Storage(address(sta[index])).retrieve() */\n      mload(0x40)\n      dup2\n      0xffffffff\n      and\n      0xe0\n      shl\n      dup2\n      mstore\n      0x04\n      add\n      0x20\n      mload(0x40)\n      dup1\n      dup4\n      sub\n      dup2\n      dup7\n      dup1\n      extcodesize\n      iszero\n      dup1\n      iszero\n      tag_21\n      jumpi\n      0x00\n      dup1\n      revert\n    tag_21:\n      pop\n      gas\n      staticcall\n      iszero\n      dup1\n      iszero\n      tag_23\n      jumpi\n      returndatasize\n      0x00\n      dup1\n      returndatacopy\n      revert(0x00, returndatasize)\n    tag_23:\n      pop\n      pop\n      pop\n      pop\n      mload(0x40)\n      returndatasize\n      0x20\n      dup2\n      lt\n      iszero\n      tag_24\n      jumpi\n      0x00\n      dup1\n      revert\n    tag_24:\n      dup2\n      add\n      swap1\n      dup1\n      dup1\n      mload\n      swap1\n      0x20\n      add\n      swap1\n      swap3\n      swap2\n      swap1\n      pop\n      pop\n      pop\n        /* \"contracts/Lesson3_Storage_Factory.sol\":438:484  return Storage(address(sta[index])).retrieve() */\n      swap1\n      pop\n        /* \"contracts/Lesson3_Storage_Factory.sol\":366:492  function sfget(uint256 index) public view returns (int)\r... */\n      swap2\n      swap1\n      pop\n      jump\t// out\n        /* \"contracts/Lesson3_Storage_Factory.sol\":156:253  function CreateSC() public {\r... */\n    tag_11:\n        /* \"contracts/Lesson3_Storage_Factory.sol\":194:205  Storage bag */\n      0x00\n        /* \"contracts/Lesson3_Storage_Factory.sol\":208:221  new Storage() */\n      mload(0x40)\n      tag_26\n      swap1\n      tag_27\n      jump\t// in\n    tag_26:\n      mload(0x40)\n      dup1\n      swap2\n      sub\n      swap1\n      0x00\n      create\n      dup1\n      iszero\n      dup1\n      iszero\n      tag_28\n      jumpi\n      returndatasize\n      0x00\n      dup1\n      returndatacopy\n      revert(0x00, returndatasize)\n    tag_28:\n      pop\n        /* \"contracts/Lesson3_Storage_Factory.sol\":194:221  Storage bag = new Storage() */\n      swap1\n      pop\n        /* \"contracts/Lesson3_Storage_Factory.sol\":232:235  sta */\n      0x00\n        /* \"contracts/Lesson3_Storage_Factory.sol\":241:244  bag */\n      dup2\n        /* \"contracts/Lesson3_Storage_Factory.sol\":232:245  sta.push(bag) */\n      swap1\n      dup1\n      0x01\n      dup2\n      sload\n      add\n      dup1\n      dup3\n      sstore\n      dup1\n      swap2\n      pop\n      pop\n      0x01\n      swap1\n      sub\n      swap1\n      0x00\n      mstore\n      keccak256(0x00, 0x20)\n      add\n      0x00\n      swap1\n      swap2\n      swap1\n      swap2\n      swap1\n      swap2\n      0x0100\n      exp\n      dup2\n      sload\n      dup2\n      0xffffffffffffffffffffffffffffffffffffffff\n      mul\n      not\n      and\n      swap1\n      dup4\n      0xffffffffffffffffffffffffffffffffffffffff\n      and\n      mul\n      or\n      swap1\n      sstore\n      pop\n        /* \"contracts/Lesson3_Storage_Factory.sol\":156:253  function CreateSC() public {\r... */\n      pop\n      jump\t// out\n        /* \"contracts/Lesson3_Storage_Factory.sol\":127:147  Storage[] public sta */\n    tag_14:\n      0x00\n      dup2\n      dup2\n      sload\n      dup2\n      lt\n      tag_30\n      jumpi\n      invalid\n    tag_30:\n      swap1\n      0x00\n      mstore\n      keccak256(0x00, 0x20)\n      add\n      0x00\n      swap2\n      pop\n      sload\n      swap1\n      0x0100\n      exp\n      swap1\n      div\n      0xffffffffffffffffffffffffffffffffffffffff\n      and\n      dup2\n      jump\t// out\n        /* \"contracts/Lesson3_Storage_Factory.sol\":259:360  function sfstr(uint256 index, int num) public{\r... */\n    tag_17:\n        /* \"contracts/Lesson3_Storage_Factory.sol\":331:334  sta */\n      0x00\n        /* \"contracts/Lesson3_Storage_Factory.sol\":335:340  index */\n      dup3\n        /* \"contracts/Lesson3_Storage_Factory.sol\":331:341  sta[index] */\n      dup2\n      sload\n      dup2\n      lt\n      tag_33\n      jumpi\n      invalid\n    tag_33:\n      swap1\n      0x00\n      mstore\n      keccak256(0x00, 0x20)\n      add\n      0x00\n      swap1\n      sload\n      swap1\n      0x0100\n      exp\n      swap1\n      div\n      0xffffffffffffffffffffffffffffffffffffffff\n      and\n        /* \"contracts/Lesson3_Storage_Factory.sol\":315:347  Storage(address(sta[index])).str */\n      0xffffffffffffffffffffffffffffffffffffffff\n      and\n      0xbb90bc05\n        /* \"contracts/Lesson3_Storage_Factory.sol\":348:351  num */\n      dup3\n        /* \"contracts/Lesson3_Storage_Factory.sol\":315:352  Storage(address(sta[index])).str(num) */\n      mload(0x40)\n      dup3\n      0xffffffff\n      and\n      0xe0\n      shl\n      dup2\n      mstore\n      0x04\n      add\n      dup1\n      dup3\n      dup2\n      mstore\n      0x20\n      add\n      swap2\n      pop\n      pop\n      0x00\n      mload(0x40)\n      dup1\n      dup4\n      sub\n      dup2\n      0x00\n      dup8\n      dup1\n      extcodesize\n      iszero\n      dup1\n      iszero\n      tag_35\n      jumpi\n      0x00\n      dup1\n      revert\n    tag_35:\n      pop\n      gas\n      call\n      iszero\n      dup1\n      iszero\n      tag_37\n      jumpi\n      returndatasize\n      0x00\n      dup1\n      returndatacopy\n      revert(0x00, returndatasize)\n    tag_37:\n      pop\n      pop\n      pop\n      pop\n        /* \"contracts/Lesson3_Storage_Factory.sol\":259:360  function sfstr(uint256 index, int num) public{\r... */\n      pop\n      pop\n      jump\t// out\n    tag_27:\n      dataSize(sub_0)\n      dup1\n      dataOffset(sub_0)\n      dup4\n      codecopy\n      add\n      swap1\n      jump\t// out\n    stop\n\n    sub_0: assembly {\n            /* \"contracts/Lesson1_Storage.sol\":29:464  contract Storage{\r... */\n          mstore(0x40, 0x80)\n          callvalue\n          dup1\n          iszero\n          tag_1\n          jumpi\n          0x00\n          dup1\n          revert\n        tag_1:\n          pop\n          dataSize(sub_0)\n          dup1\n          dataOffset(sub_0)\n          0x00\n          codecopy\n          0x00\n          return\n        stop\n\n        sub_0: assembly {\n                /* \"contracts/Lesson1_Storage.sol\":29:464  contract Storage{\r... */\n              mstore(0x40, 0x80)\n              callvalue\n              dup1\n              iszero\n              tag_1\n              jumpi\n              0x00\n              dup1\n              revert\n            tag_1:\n              pop\n              jumpi(tag_2, lt(calldatasize, 0x04))\n              shr(0xe0, calldataload(0x00))\n              dup1\n              0x2b77973b\n              eq\n              tag_3\n              jumpi\n              dup1\n              0x2e64cec1\n              eq\n              tag_4\n              jumpi\n              dup1\n              0xbb90bc05\n              eq\n              tag_5\n              jumpi\n              dup1\n              0xf4ba37cf\n              eq\n              tag_6\n              jumpi\n              dup1\n              0xfe883e2e\n              eq\n              tag_7\n              jumpi\n            tag_2:\n              0x00\n              dup1\n              revert\n                /* \"contracts/Lesson1_Storage.sol\":162:203  mapping(string => int ) public name_money */\n            tag_3:\n              tag_8\n              0x04\n              dup1\n              calldatasize\n              sub\n              0x20\n              dup2\n              lt\n              iszero\n              tag_9\n              jumpi\n              0x00\n              dup1\n              revert\n            tag_9:\n              dup2\n              add\n              swap1\n              dup1\n              dup1\n              calldataload\n              swap1\n              0x20\n              add\n              swap1\n              0x0100000000\n              dup2\n              gt\n              iszero\n              tag_10\n              jumpi\n              0x00\n              dup1\n              revert\n            tag_10:\n              dup3\n              add\n              dup4\n              0x20\n              dup3\n              add\n              gt\n              iszero\n              tag_11\n              jumpi\n              0x00\n              dup1\n              revert\n            tag_11:\n              dup1\n              calldataload\n              swap1\n              0x20\n              add\n              swap2\n              dup5\n              0x01\n              dup4\n              mul\n              dup5\n              add\n              gt\n              0x0100000000\n              dup4\n              gt\n              or\n              iszero\n              tag_12\n              jumpi\n              0x00\n              dup1\n              revert\n            tag_12:\n              swap2\n              swap1\n              dup1\n              dup1\n              0x1f\n              add\n              0x20\n              dup1\n              swap2\n              div\n              mul\n              0x20\n              add\n              mload(0x40)\n              swap1\n              dup2\n              add\n              0x40\n              mstore\n              dup1\n              swap4\n              swap3\n              swap2\n              swap1\n              dup2\n              dup2\n              mstore\n              0x20\n              add\n              dup4\n              dup4\n              dup1\n              dup3\n              dup5\n              calldatacopy\n              0x00\n              dup2\n              dup5\n              add\n              mstore\n              not(0x1f)\n              0x1f\n              dup3\n              add\n              and\n              swap1\n              pop\n              dup1\n              dup4\n              add\n              swap3\n              pop\n              pop\n              pop\n              pop\n              pop\n              pop\n              pop\n              swap2\n              swap3\n              swap2\n              swap3\n              swap1\n              pop\n              pop\n              pop\n              tag_13\n              jump\t// in\n            tag_8:\n              mload(0x40)\n              dup1\n              dup3\n              dup2\n              mstore\n              0x20\n              add\n              swap2\n              pop\n              pop\n              mload(0x40)\n              dup1\n              swap2\n              sub\n              swap1\n              return\n                /* \"contracts/Lesson1_Storage.sol\":321:398  function retrieve() public view returns(int) {\r... */\n            tag_4:\n              tag_14\n              tag_15\n              jump\t// in\n            tag_14:\n              mload(0x40)\n              dup1\n              dup3\n              dup2\n              mstore\n              0x20\n              add\n              swap2\n              pop\n              pop\n              mload(0x40)\n              dup1\n              swap2\n              sub\n              swap1\n              return\n                /* \"contracts/Lesson1_Storage.sol\":404:461  function str(int num) public{\r... */\n            tag_5:\n              tag_16\n              0x04\n              dup1\n              calldatasize\n              sub\n              0x20\n              dup2\n              lt\n              iszero\n              tag_17\n              jumpi\n              0x00\n              dup1\n              revert\n            tag_17:\n              dup2\n              add\n              swap1\n              dup1\n              dup1\n              calldataload\n              swap1\n              0x20\n              add\n              swap1\n              swap3\n              swap2\n              swap1\n              pop\n              pop\n              pop\n              tag_18\n              jump\t// in\n            tag_16:\n              stop\n                /* \"contracts/Lesson1_Storage.sol\":212:314  function StoreP(string memory name, int money) public {\r... */\n            tag_6:\n              tag_19\n              0x04\n              dup1\n              calldatasize\n              sub\n              0x40\n              dup2\n              lt\n              iszero\n              tag_20\n              jumpi\n              0x00\n              dup1\n              revert\n            tag_20:\n              dup2\n              add\n              swap1\n              dup1\n              dup1\n              calldataload\n              swap1\n              0x20\n              add\n              swap1\n              0x0100000000\n              dup2\n              gt\n              iszero\n              tag_21\n              jumpi\n              0x00\n              dup1\n              revert\n            tag_21:\n              dup3\n              add\n              dup4\n              0x20\n              dup3\n              add\n              gt\n              iszero\n              tag_22\n              jumpi\n              0x00\n              dup1\n              revert\n            tag_22:\n              dup1\n              calldataload\n              swap1\n              0x20\n              add\n              swap2\n              dup5\n              0x01\n              dup4\n              mul\n              dup5\n              add\n              gt\n              0x0100000000\n              dup4\n              gt\n              or\n              iszero\n              tag_23\n              jumpi\n              0x00\n              dup1\n              revert\n            tag_23:\n              swap2\n              swap1\n              dup1\n              dup1\n              0x1f\n              add\n              0x20\n              dup1\n              swap2\n              div\n              mul\n              0x20\n              add\n              mload(0x40)\n              swap1\n              dup2\n              add\n              0x40\n              mstore\n              dup1\n              swap4\n              swap3\n              swap2\n              swap1\n              dup2\n              dup2\n              mstore\n              0x20\n              add\n              dup4\n              dup4\n              dup1\n              dup3\n              dup5\n              calldatacopy\n              0x00\n              dup2\n              dup5\n              add\n              mstore\n              not(0x1f)\n              0x1f\n              dup3\n              add\n              and\n              swap1\n              pop\n              dup1\n              dup4\n              add\n              swap3\n              pop\n              pop\n              pop\n              pop\n              pop\n              pop\n              pop\n              swap2\n              swap3\n              swap2\n              swap3\n              swap1\n              dup1\n              calldataload\n              swap1\n              0x20\n              add\n              swap1\n              swap3\n              swap2\n              swap1\n              pop\n              pop\n              pop\n              tag_24\n              jump\t// in\n            tag_19:\n              stop\n                /* \"contracts/Lesson1_Storage.sol\":139:155  man[] public men */\n            tag_7:\n              tag_25\n              0x04\n              dup1\n              calldatasize\n              sub\n              0x20\n              dup2\n              lt\n              iszero\n              tag_26\n              jumpi\n              0x00\n              dup1\n              revert\n            tag_26:\n              dup2\n              add\n              swap1\n              dup1\n              dup1\n              calldataload\n              swap1\n              0x20\n              add\n              swap1\n              swap3\n              swap2\n              swap1\n              pop\n              pop\n              pop\n              tag_27\n              jump\t// in\n            tag_25:\n              mload(0x40)\n              dup1\n              dup1\n              0x20\n              add\n              dup4\n              dup2\n              mstore\n              0x20\n              add\n              dup3\n              dup2\n              sub\n              dup3\n              mstore\n              dup5\n              dup2\n              dup2\n              mload\n              dup2\n              mstore\n              0x20\n              add\n              swap2\n              pop\n              dup1\n              mload\n              swap1\n              0x20\n              add\n              swap1\n              dup1\n              dup4\n              dup4\n              0x00\n            tag_28:\n              dup4\n              dup2\n              lt\n              iszero\n              tag_30\n              jumpi\n              dup1\n              dup3\n              add\n              mload\n              dup2\n              dup5\n              add\n              mstore\n              0x20\n              dup2\n              add\n              swap1\n              pop\n              jump(tag_28)\n            tag_30:\n              pop\n              pop\n              pop\n              pop\n              swap1\n              pop\n              swap1\n              dup2\n              add\n              swap1\n              0x1f\n              and\n              dup1\n              iszero\n              tag_31\n              jumpi\n              dup1\n              dup3\n              sub\n              dup1\n              mload\n              0x01\n              dup4\n              0x20\n              sub\n              0x0100\n              exp\n              sub\n              not\n              and\n              dup2\n              mstore\n              0x20\n              add\n              swap2\n              pop\n            tag_31:\n              pop\n              swap4\n              pop\n              pop\n              pop\n              pop\n              mload(0x40)\n              dup1\n              swap2\n              sub\n              swap1\n              return\n                /* \"contracts/Lesson1_Storage.sol\":162:203  mapping(string => int ) public name_money */\n            tag_13:\n              0x02\n              dup2\n              dup1\n              mload\n              0x20\n              dup2\n              add\n              dup3\n              add\n              dup1\n              mload\n              dup5\n              dup3\n              mstore\n              0x20\n              dup4\n              add\n              0x20\n              dup6\n              add\n              keccak256\n              dup2\n              dup4\n              mstore\n              dup1\n              swap6\n              pop\n              pop\n              pop\n              pop\n              pop\n              pop\n              0x00\n              swap2\n              pop\n              swap1\n              pop\n              sload\n              dup2\n              jump\t// out\n                /* \"contracts/Lesson1_Storage.sol\":321:398  function retrieve() public view returns(int) {\r... */\n            tag_15:\n                /* \"contracts/Lesson1_Storage.sol\":361:364  int */\n              0x00\n                /* \"contracts/Lesson1_Storage.sol\":384:390  favnum */\n              dup1\n              sload\n                /* \"contracts/Lesson1_Storage.sol\":377:390  return favnum */\n              swap1\n              pop\n                /* \"contracts/Lesson1_Storage.sol\":321:398  function retrieve() public view returns(int) {\r... */\n              swap1\n              jump\t// out\n                /* \"contracts/Lesson1_Storage.sol\":404:461  function str(int num) public{\r... */\n            tag_18:\n                /* \"contracts/Lesson1_Storage.sol\":450:453  num */\n              dup1\n                /* \"contracts/Lesson1_Storage.sol\":443:449  favnum */\n              0x00\n                /* \"contracts/Lesson1_Storage.sol\":443:453  favnum=num */\n              dup2\n              swap1\n              sstore\n              pop\n                /* \"contracts/Lesson1_Storage.sol\":404:461  function str(int num) public{\r... */\n              pop\n              jump\t// out\n                /* \"contracts/Lesson1_Storage.sol\":212:314  function StoreP(string memory name, int money) public {\r... */\n            tag_24:\n                /* \"contracts/Lesson1_Storage.sol\":281:284  men */\n              0x01\n                /* \"contracts/Lesson1_Storage.sol\":290:305  man(name,money) */\n              mload(0x40)\n              dup1\n              0x40\n              add\n              0x40\n              mstore\n              dup1\n                /* \"contracts/Lesson1_Storage.sol\":294:298  name */\n              dup5\n                /* \"contracts/Lesson1_Storage.sol\":290:305  man(name,money) */\n              dup2\n              mstore\n              0x20\n              add\n                /* \"contracts/Lesson1_Storage.sol\":299:304  money */\n              dup4\n                /* \"contracts/Lesson1_Storage.sol\":290:305  man(name,money) */\n              dup2\n              mstore\n              pop\n                /* \"contracts/Lesson1_Storage.sol\":281:306  men.push(man(name,money)) */\n              swap1\n              dup1\n              0x01\n              dup2\n              sload\n              add\n              dup1\n              dup3\n              sstore\n              dup1\n              swap2\n              pop\n              pop\n              0x01\n              swap1\n              sub\n              swap1\n              0x00\n              mstore\n              keccak256(0x00, 0x20)\n              swap1\n              0x02\n              mul\n              add\n              0x00\n              swap1\n              swap2\n              swap1\n              swap2\n              swap1\n              swap2\n              pop\n              0x00\n              dup3\n              add\n              mload\n              dup2\n              0x00\n              add\n              swap1\n              dup1\n              mload\n              swap1\n              0x20\n              add\n              swap1\n              tag_36\n              swap3\n              swap2\n              swap1\n              tag_37\n              jump\t// in\n            tag_36:\n              pop\n              0x20\n              dup3\n              add\n              mload\n              dup2\n              0x01\n              add\n              sstore\n              pop\n              pop\n                /* \"contracts/Lesson1_Storage.sol\":212:314  function StoreP(string memory name, int money) public {\r... */\n              pop\n              pop\n              jump\t// out\n                /* \"contracts/Lesson1_Storage.sol\":139:155  man[] public men */\n            tag_27:\n              0x01\n              dup2\n              dup2\n              sload\n              dup2\n              lt\n              tag_38\n              jumpi\n              invalid\n            tag_38:\n              swap1\n              0x00\n              mstore\n              keccak256(0x00, 0x20)\n              swap1\n              0x02\n              mul\n              add\n              0x00\n              swap2\n              pop\n              swap1\n              pop\n              dup1\n              0x00\n              add\n              dup1\n              sload\n              0x01\n              dup2\n              0x01\n              and\n              iszero\n              0x0100\n              mul\n              sub\n              and\n              0x02\n              swap1\n              div\n              dup1\n              0x1f\n              add\n              0x20\n              dup1\n              swap2\n              div\n              mul\n              0x20\n              add\n              mload(0x40)\n              swap1\n              dup2\n              add\n              0x40\n              mstore\n              dup1\n              swap3\n              swap2\n              swap1\n              dup2\n              dup2\n              mstore\n              0x20\n              add\n              dup3\n              dup1\n              sload\n              0x01\n              dup2\n              0x01\n              and\n              iszero\n              0x0100\n              mul\n              sub\n              and\n              0x02\n              swap1\n              div\n              dup1\n              iszero\n              tag_40\n              jumpi\n              dup1\n              0x1f\n              lt\n              tag_41\n              jumpi\n              0x0100\n              dup1\n              dup4\n              sload\n              div\n              mul\n              dup4\n              mstore\n              swap2\n              0x20\n              add\n              swap2\n              jump(tag_40)\n            tag_41:\n              dup3\n              add\n              swap2\n              swap1\n              0x00\n              mstore\n              keccak256(0x00, 0x20)\n              swap1\n            tag_42:\n              dup2\n              sload\n              dup2\n              mstore\n              swap1\n              0x01\n              add\n              swap1\n              0x20\n              add\n              dup1\n              dup4\n              gt\n              tag_42\n              jumpi\n              dup3\n              swap1\n              sub\n              0x1f\n              and\n              dup3\n              add\n              swap2\n            tag_40:\n              pop\n              pop\n              pop\n              pop\n              pop\n              swap1\n              dup1\n              0x01\n              add\n              sload\n              swap1\n              pop\n              dup3\n              jump\t// out\n            tag_37:\n              dup3\n              dup1\n              sload\n              0x01\n              dup2\n              0x01\n              and\n              iszero\n              0x0100\n              mul\n              sub\n              and\n              0x02\n              swap1\n              div\n              swap1\n              0x00\n              mstore\n              keccak256(0x00, 0x20)\n              swap1\n              0x1f\n              add\n              0x20\n              swap1\n              div\n              dup2\n              add\n              swap3\n              dup3\n              0x1f\n              lt\n              tag_44\n              jumpi\n              dup1\n              mload\n              not(0xff)\n              and\n              dup4\n              dup1\n              add\n              or\n              dup6\n              sstore\n              jump(tag_43)\n            tag_44:\n              dup3\n              dup1\n              add\n              0x01\n              add\n              dup6\n              sstore\n              dup3\n              iszero\n              tag_43\n              jumpi\n              swap2\n              dup3\n              add\n            tag_45:\n              dup3\n              dup2\n              gt\n              iszero\n              tag_46\n              jumpi\n              dup3\n              mload\n              dup3\n              sstore\n              swap2\n              0x20\n              add\n              swap2\n              swap1\n              0x01\n              add\n              swap1\n              jump(tag_45)\n            tag_46:\n            tag_43:\n              pop\n              swap1\n              pop\n              tag_47\n              swap2\n              swap1\n              tag_48\n              jump\t// in\n            tag_47:\n              pop\n              swap1\n              jump\t// out\n            tag_48:\n            tag_49:\n              dup1\n              dup3\n              gt\n              iszero\n              tag_50\n              jumpi\n              0x00\n              dup2\n              0x00\n              swap1\n              sstore\n              pop\n              0x01\n              add\n              jump(tag_49)\n            tag_50:\n              pop\n              swap1\n              jump\t// out\n\n            auxdata: 0xa2646970667358221220d9024a782900de3e45f6d4e334344597bfbc266a22518e8cb361e43b0f07e9c264736f6c634300060c0033\n        }\n    }\n\n    auxdata: 0xa26469706673582212205fb72d9b374fbc3f88507f3e8e09dbd51b5e8d57990526c2171e0eaf7f0c2ec664736f6c634300060c0033\n}\n",
				"bytecode": {
					"linkReferences": {},
					"object": "608060405234801561001057600080fd5b506108f9806100206000396000f3fe608060405234801561001057600080fd5b506004361061004c5760003560e01c80630ad91b64146100515780633a986bb7146100935780637662a8c21461009d578063be093e53146100f5575b600080fd5b61007d6004803603602081101561006757600080fd5b810190808035906020019092919050505061012d565b6040518082815260200191505060405180910390f35b61009b6101ed565b005b6100c9600480360360208110156100b357600080fd5b8101908080359060200190929190505050610280565b604051808273ffffffffffffffffffffffffffffffffffffffff16815260200191505060405180910390f35b61012b6004803603604081101561010b57600080fd5b8101908080359060200190929190803590602001909291905050506102bc565b005b600080828154811061013b57fe5b9060005260206000200160009054906101000a900473ffffffffffffffffffffffffffffffffffffffff1673ffffffffffffffffffffffffffffffffffffffff16632e64cec16040518163ffffffff1660e01b815260040160206040518083038186803b1580156101ab57600080fd5b505afa1580156101bf573d6000803e3d6000fd5b505050506040513d60208110156101d557600080fd5b81019080805190602001909291905050509050919050565b60006040516101fb90610362565b604051809103906000f080158015610217573d6000803e3d6000fd5b5090506000819080600181540180825580915050600190039060005260206000200160009091909190916101000a81548173ffffffffffffffffffffffffffffffffffffffff021916908373ffffffffffffffffffffffffffffffffffffffff16021790555050565b6000818154811061028d57fe5b906000526020600020016000915054906101000a900473ffffffffffffffffffffffffffffffffffffffff1681565b600082815481106102c957fe5b9060005260206000200160009054906101000a900473ffffffffffffffffffffffffffffffffffffffff1673ffffffffffffffffffffffffffffffffffffffff1663bb90bc05826040518263ffffffff1660e01b815260040180828152602001915050600060405180830381600087803b15801561034657600080fd5b505af115801561035a573d6000803e3d6000fd5b505050505050565b610554806103708339019056fe608060405234801561001057600080fd5b50610534806100206000396000f3fe608060405234801561001057600080fd5b50600436106100575760003560e01c80632b77973b1461005c5780632e64cec11461012b578063bb90bc0514610149578063f4ba37cf14610177578063fe883e2e1461023c575b600080fd5b6101156004803603602081101561007257600080fd5b810190808035906020019064010000000081111561008f57600080fd5b8201836020820111156100a157600080fd5b803590602001918460018302840111640100000000831117156100c357600080fd5b91908080601f016020809104026020016040519081016040528093929190818152602001838380828437600081840152601f19601f8201169050808301925050505050505091929192905050506102ea565b6040518082815260200191505060405180910390f35b610133610318565b6040518082815260200191505060405180910390f35b6101756004803603602081101561015f57600080fd5b8101908080359060200190929190505050610321565b005b61023a6004803603604081101561018d57600080fd5b81019080803590602001906401000000008111156101aa57600080fd5b8201836020820111156101bc57600080fd5b803590602001918460018302840111640100000000831117156101de57600080fd5b91908080601f016020809104026020016040519081016040528093929190818152602001838380828437600081840152601f19601f8201169050808301925050505050505091929192908035906020019092919050505061032b565b005b6102686004803603602081101561025257600080fd5b8101908080359060200190929190505050610398565b6040518080602001838152602001828103825284818151815260200191508051906020019080838360005b838110156102ae578082015181840152602081019050610293565b50505050905090810190601f1680156102db5780820380516001836020036101000a031916815260200191505b50935050505060405180910390f35b6002818051602081018201805184825260208301602085012081835280955050505050506000915090505481565b60008054905090565b8060008190555050565b600160405180604001604052808481526020018381525090806001815401808255809150506001900390600052602060002090600202016000909190919091506000820151816000019080519060200190610387929190610461565b506020820151816001015550505050565b600181815481106103a557fe5b9060005260206000209060020201600091509050806000018054600181600116156101000203166002900480601f0160208091040260200160405190810160405280929190818152602001828054600181600116156101000203166002900480156104515780601f1061042657610100808354040283529160200191610451565b820191906000526020600020905b81548152906001019060200180831161043457829003601f168201915b5050505050908060010154905082565b828054600181600116156101000203166002900490600052602060002090601f016020900481019282601f106104a257805160ff19168380011785556104d0565b828001600101855582156104d0579182015b828111156104cf5782518255916020019190600101906104b4565b5b5090506104dd91906104e1565b5090565b5b808211156104fa5760008160009055506001016104e2565b509056fea2646970667358221220d9024a782900de3e45f6d4e334344597bfbc266a22518e8cb361e43b0f07e9c264736f6c634300060c0033a26469706673582212205fb72d9b374fbc3f88507f3e8e09dbd51b5e8d57990526c2171e0eaf7f0c2ec664736f6c634300060c0033",
					"opcodes": "PUSH1 0x80 PUSH1 0x40 MSTORE CALLVALUE DUP1 ISZERO PUSH2 0x10 JUMPI PUSH1 0x0 DUP1 REVERT JUMPDEST POP PUSH2 0x8F9 DUP1 PUSH2 0x20 PUSH1 0x0 CODECOPY PUSH1 0x0 RETURN INVALID PUSH1 0x80 PUSH1 0x40 MSTORE CALLVALUE DUP1 ISZERO PUSH2 0x10 JUMPI PUSH1 0x0 DUP1 REVERT JUMPDEST POP PUSH1 0x4 CALLDATASIZE LT PUSH2 0x4C JUMPI PUSH1 0x0 CALLDATALOAD PUSH1 0xE0 SHR DUP1 PUSH4 0xAD91B64 EQ PUSH2 0x51 JUMPI DUP1 PUSH4 0x3A986BB7 EQ PUSH2 0x93 JUMPI DUP1 PUSH4 0x7662A8C2 EQ PUSH2 0x9D JUMPI DUP1 PUSH4 0xBE093E53 EQ PUSH2 0xF5 JUMPI JUMPDEST PUSH1 0x0 DUP1 REVERT JUMPDEST PUSH2 0x7D PUSH1 0x4 DUP1 CALLDATASIZE SUB PUSH1 0x20 DUP2 LT ISZERO PUSH2 0x67 JUMPI PUSH1 0x0 DUP1 REVERT JUMPDEST DUP2 ADD SWAP1 DUP1 DUP1 CALLDATALOAD SWAP1 PUSH1 0x20 ADD SWAP1 SWAP3 SWAP2 SWAP1 POP POP POP PUSH2 0x12D JUMP JUMPDEST PUSH1 0x40 MLOAD DUP1 DUP3 DUP2 MSTORE PUSH1 0x20 ADD SWAP2 POP POP PUSH1 0x40 MLOAD DUP1 SWAP2 SUB SWAP1 RETURN JUMPDEST PUSH2 0x9B PUSH2 0x1ED JUMP JUMPDEST STOP JUMPDEST PUSH2 0xC9 PUSH1 0x4 DUP1 CALLDATASIZE SUB PUSH1 0x20 DUP2 LT ISZERO PUSH2 0xB3 JUMPI PUSH1 0x0 DUP1 REVERT JUMPDEST DUP2 ADD SWAP1 DUP1 DUP1 CALLDATALOAD SWAP1 PUSH1 0x20 ADD SWAP1 SWAP3 SWAP2 SWAP1 POP POP POP PUSH2 0x280 JUMP JUMPDEST PUSH1 0x40 MLOAD DUP1 DUP3 PUSH20 0xFFFFFFFFFFFFFFFFFFFFFFFFFFFFFFFFFFFFFFFF AND DUP2 MSTORE PUSH1 0x20 ADD SWAP2 POP POP PUSH1 0x40 MLOAD DUP1 SWAP2 SUB SWAP1 RETURN JUMPDEST PUSH2 0x12B PUSH1 0x4 DUP1 CALLDATASIZE SUB PUSH1 0x40 DUP2 LT ISZERO PUSH2 0x10B JUMPI PUSH1 0x0 DUP1 REVERT JUMPDEST DUP2 ADD SWAP1 DUP1 DUP1 CALLDATALOAD SWAP1 PUSH1 0x20 ADD SWAP1 SWAP3 SWAP2 SWAP1 DUP1 CALLDATALOAD SWAP1 PUSH1 0x20 ADD SWAP1 SWAP3 SWAP2 SWAP1 POP POP POP PUSH2 0x2BC JUMP JUMPDEST STOP JUMPDEST PUSH1 0x0 DUP1 DUP3 DUP2 SLOAD DUP2 LT PUSH2 0x13B JUMPI INVALID JUMPDEST SWAP1 PUSH1 0x0 MSTORE PUSH1 0x20 PUSH1 0x0 KECCAK256 ADD PUSH1 0x0 SWAP1 SLOAD SWAP1 PUSH2 0x100 EXP SWAP1 DIV PUSH20 0xFFFFFFFFFFFFFFFFFFFFFFFFFFFFFFFFFFFFFFFF AND PUSH20 0xFFFFFFFFFFFFFFFFFFFFFFFFFFFFFFFFFFFFFFFF AND PUSH4 0x2E64CEC1 PUSH1 0x40 MLOAD DUP2 PUSH4 0xFFFFFFFF AND PUSH1 0xE0 SHL DUP2 MSTORE PUSH1 0x4 ADD PUSH1 0x20 PUSH1 0x40 MLOAD DUP1 DUP4 SUB DUP2 DUP7 DUP1 EXTCODESIZE ISZERO DUP1 ISZERO PUSH2 0x1AB JUMPI PUSH1 0x0 DUP1 REVERT JUMPDEST POP GAS STATICCALL ISZERO DUP1 ISZERO PUSH2 0x1BF JUMPI RETURNDATASIZE PUSH1 0x0 DUP1 RETURNDATACOPY RETURNDATASIZE PUSH1 0x0 REVERT JUMPDEST POP POP POP POP PUSH1 0x40 MLOAD RETURNDATASIZE PUSH1 0x20 DUP2 LT ISZERO PUSH2 0x1D5 JUMPI PUSH1 0x0 DUP1 REVERT JUMPDEST DUP2 ADD SWAP1 DUP1 DUP1 MLOAD SWAP1 PUSH1 0x20 ADD SWAP1 SWAP3 SWAP2 SWAP1 POP POP POP SWAP1 POP SWAP2 SWAP1 POP JUMP JUMPDEST PUSH1 0x0 PUSH1 0x40 MLOAD PUSH2 0x1FB SWAP1 PUSH2 0x362 JUMP JUMPDEST PUSH1 0x40 MLOAD DUP1 SWAP2 SUB SWAP1 PUSH1 0x0 CREATE DUP1 ISZERO DUP1 ISZERO PUSH2 0x217 JUMPI RETURNDATASIZE PUSH1 0x0 DUP1 RETURNDATACOPY RETURNDATASIZE PUSH1 0x0 REVERT JUMPDEST POP SWAP1 POP PUSH1 0x0 DUP2 SWAP1 DUP1 PUSH1 0x1 DUP2 SLOAD ADD DUP1 DUP3 SSTORE DUP1 SWAP2 POP POP PUSH1 0x1 SWAP1 SUB SWAP1 PUSH1 0x0 MSTORE PUSH1 0x20 PUSH1 0x0 KECCAK256 ADD PUSH1 0x0 SWAP1 SWAP2 SWAP1 SWAP2 SWAP1 SWAP2 PUSH2 0x100 EXP DUP2 SLOAD DUP2 PUSH20 0xFFFFFFFFFFFFFFFFFFFFFFFFFFFFFFFFFFFFFFFF MUL NOT AND SWAP1 DUP4 PUSH20 0xFFFFFFFFFFFFFFFFFFFFFFFFFFFFFFFFFFFFFFFF AND MUL OR SWAP1 SSTORE POP POP JUMP JUMPDEST PUSH1 0x0 DUP2 DUP2 SLOAD DUP2 LT PUSH2 0x28D JUMPI INVALID JUMPDEST SWAP1 PUSH1 0x0 MSTORE PUSH1 0x20 PUSH1 0x0 KECCAK256 ADD PUSH1 0x0 SWAP2 POP SLOAD SWAP1 PUSH2 0x100 EXP SWAP1 DIV PUSH20 0xFFFFFFFFFFFFFFFFFFFFFFFFFFFFFFFFFFFFFFFF AND DUP2 JUMP JUMPDEST PUSH1 0x0 DUP3 DUP2 SLOAD DUP2 LT PUSH2 0x2C9 JUMPI INVALID JUMPDEST SWAP1 PUSH1 0x0 MSTORE PUSH1 0x20 PUSH1 0x0 KECCAK256 ADD PUSH1 0x0 SWAP1 SLOAD SWAP1 PUSH2 0x100 EXP SWAP1 DIV PUSH20 0xFFFFFFFFFFFFFFFFFFFFFFFFFFFFFFFFFFFFFFFF AND PUSH20 0xFFFFFFFFFFFFFFFFFFFFFFFFFFFFFFFFFFFFFFFF AND PUSH4 0xBB90BC05 DUP3 PUSH1 0x40 MLOAD DUP3 PUSH4 0xFFFFFFFF AND PUSH1 0xE0 SHL DUP2 MSTORE PUSH1 0x4 ADD DUP1 DUP3 DUP2 MSTORE PUSH1 0x20 ADD SWAP2 POP POP PUSH1 0x0 PUSH1 0x40 MLOAD DUP1 DUP4 SUB DUP2 PUSH1 0x0 DUP8 DUP1 EXTCODESIZE ISZERO DUP1 ISZERO PUSH2 0x346 JUMPI PUSH1 0x0 DUP1 REVERT JUMPDEST POP GAS CALL ISZERO DUP1 ISZERO PUSH2 0x35A JUMPI RETURNDATASIZE PUSH1 0x0 DUP1 RETURNDATACOPY RETURNDATASIZE PUSH1 0x0 REVERT JUMPDEST POP POP POP POP POP POP JUMP JUMPDEST PUSH2 0x554 DUP1 PUSH2 0x370 DUP4 CODECOPY ADD SWAP1 JUMP INVALID PUSH1 0x80 PUSH1 0x40 MSTORE CALLVALUE DUP1 ISZERO PUSH2 0x10 JUMPI PUSH1 0x0 DUP1 REVERT JUMPDEST POP PUSH2 0x534 DUP1 PUSH2 0x20 PUSH1 0x0 CODECOPY PUSH1 0x0 RETURN INVALID PUSH1 0x80 PUSH1 0x40 MSTORE CALLVALUE DUP1 ISZERO PUSH2 0x10 JUMPI PUSH1 0x0 DUP1 REVERT JUMPDEST POP PUSH1 0x4 CALLDATASIZE LT PUSH2 0x57 JUMPI PUSH1 0x0 CALLDATALOAD PUSH1 0xE0 SHR DUP1 PUSH4 0x2B77973B EQ PUSH2 0x5C JUMPI DUP1 PUSH4 0x2E64CEC1 EQ PUSH2 0x12B JUMPI DUP1 PUSH4 0xBB90BC05 EQ PUSH2 0x149 JUMPI DUP1 PUSH4 0xF4BA37CF EQ PUSH2 0x177 JUMPI DUP1 PUSH4 0xFE883E2E EQ PUSH2 0x23C JUMPI JUMPDEST PUSH1 0x0 DUP1 REVERT JUMPDEST PUSH2 0x115 PUSH1 0x4 DUP1 CALLDATASIZE SUB PUSH1 0x20 DUP2 LT ISZERO PUSH2 0x72 JUMPI PUSH1 0x0 DUP1 REVERT JUMPDEST DUP2 ADD SWAP1 DUP1 DUP1 CALLDATALOAD SWAP1 PUSH1 0x20 ADD SWAP1 PUSH5 0x100000000 DUP2 GT ISZERO PUSH2 0x8F JUMPI PUSH1 0x0 DUP1 REVERT JUMPDEST DUP3 ADD DUP4 PUSH1 0x20 DUP3 ADD GT ISZERO PUSH2 0xA1 JUMPI PUSH1 0x0 DUP1 REVERT JUMPDEST DUP1 CALLDATALOAD SWAP1 PUSH1 0x20 ADD SWAP2 DUP5 PUSH1 0x1 DUP4 MUL DUP5 ADD GT PUSH5 0x100000000 DUP4 GT OR ISZERO PUSH2 0xC3 JUMPI PUSH1 0x0 DUP1 REVERT JUMPDEST SWAP2 SWAP1 DUP1 DUP1 PUSH1 0x1F ADD PUSH1 0x20 DUP1 SWAP2 DIV MUL PUSH1 0x20 ADD PUSH1 0x40 MLOAD SWAP1 DUP2 ADD PUSH1 0x40 MSTORE DUP1 SWAP4 SWAP3 SWAP2 SWAP1 DUP2 DUP2 MSTORE PUSH1 0x20 ADD DUP4 DUP4 DUP1 DUP3 DUP5 CALLDATACOPY PUSH1 0x0 DUP2 DUP5 ADD MSTORE PUSH1 0x1F NOT PUSH1 0x1F DUP3 ADD AND SWAP1 POP DUP1 DUP4 ADD SWAP3 POP POP POP POP POP POP POP SWAP2 SWAP3 SWAP2 SWAP3 SWAP1 POP POP POP PUSH2 0x2EA JUMP JUMPDEST PUSH1 0x40 MLOAD DUP1 DUP3 DUP2 MSTORE PUSH1 0x20 ADD SWAP2 POP POP PUSH1 0x40 MLOAD DUP1 SWAP2 SUB SWAP1 RETURN JUMPDEST PUSH2 0x133 PUSH2 0x318 JUMP JUMPDEST PUSH1 0x40 MLOAD DUP1 DUP3 DUP2 MSTORE PUSH1 0x20 ADD SWAP2 POP POP PUSH1 0x40 MLOAD DUP1 SWAP2 SUB SWAP1 RETURN JUMPDEST PUSH2 0x175 PUSH1 0x4 DUP1 CALLDATASIZE SUB PUSH1 0x20 DUP2 LT ISZERO PUSH2 0x15F JUMPI PUSH1 0x0 DUP1 REVERT JUMPDEST DUP2 ADD SWAP1 DUP1 DUP1 CALLDATALOAD SWAP1 PUSH1 0x20 ADD SWAP1 SWAP3 SWAP2 SWAP1 POP POP POP PUSH2 0x321 JUMP JUMPDEST STOP JUMPDEST PUSH2 0x23A PUSH1 0x4 DUP1 CALLDATASIZE SUB PUSH1 0x40 DUP2 LT ISZERO PUSH2 0x18D JUMPI PUSH1 0x0 DUP1 REVERT JUMPDEST DUP2 ADD SWAP1 DUP1 DUP1 CALLDATALOAD SWAP1 PUSH1 0x20 ADD SWAP1 PUSH5 0x100000000 DUP2 GT ISZERO PUSH2 0x1AA JUMPI PUSH1 0x0 DUP1 REVERT JUMPDEST DUP3 ADD DUP4 PUSH1 0x20 DUP3 ADD GT ISZERO PUSH2 0x1BC JUMPI PUSH1 0x0 DUP1 REVERT JUMPDEST DUP1 CALLDATALOAD SWAP1 PUSH1 0x20 ADD SWAP2 DUP5 PUSH1 0x1 DUP4 MUL DUP5 ADD GT PUSH5 0x100000000 DUP4 GT OR ISZERO PUSH2 0x1DE JUMPI PUSH1 0x0 DUP1 REVERT JUMPDEST SWAP2 SWAP1 DUP1 DUP1 PUSH1 0x1F ADD PUSH1 0x20 DUP1 SWAP2 DIV MUL PUSH1 0x20 ADD PUSH1 0x40 MLOAD SWAP1 DUP2 ADD PUSH1 0x40 MSTORE DUP1 SWAP4 SWAP3 SWAP2 SWAP1 DUP2 DUP2 MSTORE PUSH1 0x20 ADD DUP4 DUP4 DUP1 DUP3 DUP5 CALLDATACOPY PUSH1 0x0 DUP2 DUP5 ADD MSTORE PUSH1 0x1F NOT PUSH1 0x1F DUP3 ADD AND SWAP1 POP DUP1 DUP4 ADD SWAP3 POP POP POP POP POP POP POP SWAP2 SWAP3 SWAP2 SWAP3 SWAP1 DUP1 CALLDATALOAD SWAP1 PUSH1 0x20 ADD SWAP1 SWAP3 SWAP2 SWAP1 POP POP POP PUSH2 0x32B JUMP JUMPDEST STOP JUMPDEST PUSH2 0x268 PUSH1 0x4 DUP1 CALLDATASIZE SUB PUSH1 0x20 DUP2 LT ISZERO PUSH2 0x252 JUMPI PUSH1 0x0 DUP1 REVERT JUMPDEST DUP2 ADD SWAP1 DUP1 DUP1 CALLDATALOAD SWAP1 PUSH1 0x20 ADD SWAP1 SWAP3 SWAP2 SWAP1 POP POP POP PUSH2 0x398 JUMP JUMPDEST PUSH1 0x40 MLOAD DUP1 DUP1 PUSH1 0x20 ADD DUP4 DUP2 MSTORE PUSH1 0x20 ADD DUP3 DUP2 SUB DUP3 MSTORE DUP5 DUP2 DUP2 MLOAD DUP2 MSTORE PUSH1 0x20 ADD SWAP2 POP DUP1 MLOAD SWAP1 PUSH1 0x20 ADD SWAP1 DUP1 DUP4 DUP4 PUSH1 0x0 JUMPDEST DUP4 DUP2 LT ISZERO PUSH2 0x2AE JUMPI DUP1 DUP3 ADD MLOAD DUP2 DUP5 ADD MSTORE PUSH1 0x20 DUP2 ADD SWAP1 POP PUSH2 0x293 JUMP JUMPDEST POP POP POP POP SWAP1 POP SWAP1 DUP2 ADD SWAP1 PUSH1 0x1F AND DUP1 ISZERO PUSH2 0x2DB JUMPI DUP1 DUP3 SUB DUP1 MLOAD PUSH1 0x1 DUP4 PUSH1 0x20 SUB PUSH2 0x100 EXP SUB NOT AND DUP2 MSTORE PUSH1 0x20 ADD SWAP2 POP JUMPDEST POP SWAP4 POP POP POP POP PUSH1 0x40 MLOAD DUP1 SWAP2 SUB SWAP1 RETURN JUMPDEST PUSH1 0x2 DUP2 DUP1 MLOAD PUSH1 0x20 DUP2 ADD DUP3 ADD DUP1 MLOAD DUP5 DUP3 MSTORE PUSH1 0x20 DUP4 ADD PUSH1 0x20 DUP6 ADD KECCAK256 DUP2 DUP4 MSTORE DUP1 SWAP6 POP POP POP POP POP POP PUSH1 0x0 SWAP2 POP SWAP1 POP SLOAD DUP2 JUMP JUMPDEST PUSH1 0x0 DUP1 SLOAD SWAP1 POP SWAP1 JUMP JUMPDEST DUP1 PUSH1 0x0 DUP2 SWAP1 SSTORE POP POP JUMP JUMPDEST PUSH1 0x1 PUSH1 0x40 MLOAD DUP1 PUSH1 0x40 ADD PUSH1 0x40 MSTORE DUP1 DUP5 DUP2 MSTORE PUSH1 0x20 ADD DUP4 DUP2 MSTORE POP SWAP1 DUP1 PUSH1 0x1 DUP2 SLOAD ADD DUP1 DUP3 SSTORE DUP1 SWAP2 POP POP PUSH1 0x1 SWAP1 SUB SWAP1 PUSH1 0x0 MSTORE PUSH1 0x20 PUSH1 0x0 KECCAK256 SWAP1 PUSH1 0x2 MUL ADD PUSH1 0x0 SWAP1 SWAP2 SWAP1 SWAP2 SWAP1 SWAP2 POP PUSH1 0x0 DUP3 ADD MLOAD DUP2 PUSH1 0x0 ADD SWAP1 DUP1 MLOAD SWAP1 PUSH1 0x20 ADD SWAP1 PUSH2 0x387 SWAP3 SWAP2 SWAP1 PUSH2 0x461 JUMP JUMPDEST POP PUSH1 0x20 DUP3 ADD MLOAD DUP2 PUSH1 0x1 ADD SSTORE POP POP POP POP JUMP JUMPDEST PUSH1 0x1 DUP2 DUP2 SLOAD DUP2 LT PUSH2 0x3A5 JUMPI INVALID JUMPDEST SWAP1 PUSH1 0x0 MSTORE PUSH1 0x20 PUSH1 0x0 KECCAK256 SWAP1 PUSH1 0x2 MUL ADD PUSH1 0x0 SWAP2 POP SWAP1 POP DUP1 PUSH1 0x0 ADD DUP1 SLOAD PUSH1 0x1 DUP2 PUSH1 0x1 AND ISZERO PUSH2 0x100 MUL SUB AND PUSH1 0x2 SWAP1 DIV DUP1 PUSH1 0x1F ADD PUSH1 0x20 DUP1 SWAP2 DIV MUL PUSH1 0x20 ADD PUSH1 0x40 MLOAD SWAP1 DUP2 ADD PUSH1 0x40 MSTORE DUP1 SWAP3 SWAP2 SWAP1 DUP2 DUP2 MSTORE PUSH1 0x20 ADD DUP3 DUP1 SLOAD PUSH1 0x1 DUP2 PUSH1 0x1 AND ISZERO PUSH2 0x100 MUL SUB AND PUSH1 0x2 SWAP1 DIV DUP1 ISZERO PUSH2 0x451 JUMPI DUP1 PUSH1 0x1F LT PUSH2 0x426 JUMPI PUSH2 0x100 DUP1 DUP4 SLOAD DIV MUL DUP4 MSTORE SWAP2 PUSH1 0x20 ADD SWAP2 PUSH2 0x451 JUMP JUMPDEST DUP3 ADD SWAP2 SWAP1 PUSH1 0x0 MSTORE PUSH1 0x20 PUSH1 0x0 KECCAK256 SWAP1 JUMPDEST DUP2 SLOAD DUP2 MSTORE SWAP1 PUSH1 0x1 ADD SWAP1 PUSH1 0x20 ADD DUP1 DUP4 GT PUSH2 0x434 JUMPI DUP3 SWAP1 SUB PUSH1 0x1F AND DUP3 ADD SWAP2 JUMPDEST POP POP POP POP POP SWAP1 DUP1 PUSH1 0x1 ADD SLOAD SWAP1 POP DUP3 JUMP JUMPDEST DUP3 DUP1 SLOAD PUSH1 0x1 DUP2 PUSH1 0x1 AND ISZERO PUSH2 0x100 MUL SUB AND PUSH1 0x2 SWAP1 DIV SWAP1 PUSH1 0x0 MSTORE PUSH1 0x20 PUSH1 0x0 KECCAK256 SWAP1 PUSH1 0x1F ADD PUSH1 0x20 SWAP1 DIV DUP2 ADD SWAP3 DUP3 PUSH1 0x1F LT PUSH2 0x4A2 JUMPI DUP1 MLOAD PUSH1 0xFF NOT AND DUP4 DUP1 ADD OR DUP6 SSTORE PUSH2 0x4D0 JUMP JUMPDEST DUP3 DUP1 ADD PUSH1 0x1 ADD DUP6 SSTORE DUP3 ISZERO PUSH2 0x4D0 JUMPI SWAP2 DUP3 ADD JUMPDEST DUP3 DUP2 GT ISZERO PUSH2 0x4CF JUMPI DUP3 MLOAD DUP3 SSTORE SWAP2 PUSH1 0x20 ADD SWAP2 SWAP1 PUSH1 0x1 ADD SWAP1 PUSH2 0x4B4 JUMP JUMPDEST JUMPDEST POP SWAP1 POP PUSH2 0x4DD SWAP2 SWAP1 PUSH2 0x4E1 JUMP JUMPDEST POP SWAP1 JUMP JUMPDEST JUMPDEST DUP1 DUP3 GT ISZERO PUSH2 0x4FA JUMPI PUSH1 0x0 DUP2 PUSH1 0x0 SWAP1 SSTORE POP PUSH1 0x1 ADD PUSH2 0x4E2 JUMP JUMPDEST POP SWAP1 JUMP INVALID LOG2 PUSH5 0x6970667358 0x22 SLT KECCAK256 0xD9 MUL 0x4A PUSH25 0x2900DE3E45F6D4E334344597BFBC266A22518E8CB361E43B0F SMOD 0xE9 0xC2 PUSH5 0x736F6C6343 STOP MOD 0xC STOP CALLER LOG2 PUSH5 0x6970667358 0x22 SLT KECCAK256 0x5F 0xB7 0x2D SWAP12 CALLDATACOPY 0x4F 0xBC EXTCODEHASH DUP9 POP PUSH32 0x3E8E09DBD51B5E8D57990526C2171E0EAF7F0C2EC664736F6C634300060C0033 "
				},
				"gasEstimates": {
					"creation": {
						"codeDepositCost": "459400",
						"executionCost": "493",
						"totalCost": "459893"
					},
					"external": {
						"CreateSC()": "infinite",
						"sfget(uint256)": "infinite",
						"sfstr(uint256,int256)": "infinite",
						"sta(uint256)": "2033"
					}
				},
				"methodIdentifiers": {
					"CreateSC()": "3a986bb7",
					"sfget(uint256)": "0ad91b64",
					"sfstr(uint256,int256)": "be093e53",
					"sta(uint256)": "7662a8c2"
				}
			},
			"storageLayout": {
				"storage": [
					{
						"astId": 57,
						"contract": "contracts/Lesson3_Storage_Factory.sol:StorageFactory",
						"label": "sta",
						"offset": 0,
						"slot": "0",
						"type": "t_array(t_contract(Storage)51)dyn_storage"
					}
				],
				"types": {
					"t_array(t_contract(Storage)51)dyn_storage": {
						"base": "t_contract(Storage)51",
						"encoding": "dynamic_array",
						"label": "contract Storage[]",
						"numberOfBytes": "32"
					},
					"t_contract(Storage)51": {
						"encoding": "inplace",
						"label": "contract Storage",
						"numberOfBytes": "20"
					}
				}
			},
			"userdoc": {
				"kind": "user",
				"methods": {},
				"version": 1
			}
		}
	}
}