{
	"contracts/Lesson3_Fund.sol": {
		"Fundme": {
			"abi": [
				{
					"inputs": [],
					"name": "Fund",
					"outputs": [],
					"stateMutability": "payable",
					"type": "function"
				},
				{
					"inputs": [],
					"name": "GetPrice",
					"outputs": [
						{
							"internalType": "uint256",
							"name": "",
							"type": "uint256"
						}
					],
					"stateMutability": "view",
					"type": "function"
				},
				{
					"inputs": [],
					"name": "GetVersion",
					"outputs": [
						{
							"internalType": "uint256",
							"name": "",
							"type": "uint256"
						}
					],
					"stateMutability": "view",
					"type": "function"
				},
				{
					"inputs": [
						{
							"internalType": "address",
							"name": "",
							"type": "address"
						}
					],
					"name": "addrToamount",
					"outputs": [
						{
							"internalType": "uint256",
							"name": "",
							"type": "uint256"
						}
					],
					"stateMutability": "view",
					"type": "function"
				}
			],
			"devdoc": {
				"methods": {}
			},
			"evm": {
				"assembly": "    /* \"contracts/Lesson3_Fund.sol\":150:868  contract Fundme{\r... */\n  mstore(0x40, 0x80)\n  callvalue\n    /* \"--CODEGEN--\":5:14   */\n  dup1\n    /* \"--CODEGEN--\":2:4   */\n  iszero\n  tag_1\n  jumpi\n    /* \"--CODEGEN--\":27:28   */\n  0x00\n    /* \"--CODEGEN--\":24:25   */\n  dup1\n    /* \"--CODEGEN--\":17:29   */\n  revert\n    /* \"--CODEGEN--\":2:4   */\ntag_1:\n    /* \"contracts/Lesson3_Fund.sol\":150:868  contract Fundme{\r... */\n  pop\n  dataSize(sub_0)\n  dup1\n  dataOffset(sub_0)\n  0x00\n  codecopy\n  0x00\n  return\nstop\n\nsub_0: assembly {\n        /* \"contracts/Lesson3_Fund.sol\":150:868  contract Fundme{\r... */\n      mstore(0x40, 0x80)\n      jumpi(tag_1, lt(calldatasize, 0x04))\n      shr(0xe0, calldataload(0x00))\n      dup1\n      0x6ce1417e\n      eq\n      tag_2\n      jumpi\n      dup1\n      0x6d90164e\n      eq\n      tag_3\n      jumpi\n      dup1\n      0x8789aaad\n      eq\n      tag_4\n      jumpi\n      dup1\n      0xc6129a5a\n      eq\n      tag_5\n      jumpi\n    tag_1:\n        /* \"--CODEGEN--\":12:13   */\n      0x00\n        /* \"--CODEGEN--\":9:10   */\n      dup1\n        /* \"--CODEGEN--\":2:14   */\n      revert\n        /* \"contracts/Lesson3_Fund.sol\":231:364  function Fund() public payable {\r... */\n    tag_2:\n      tag_6\n      tag_7\n      jump\t// in\n    tag_6:\n      stop\n        /* \"contracts/Lesson3_Fund.sol\":589:865  function GetPrice() public view returns(uint256)\r... */\n    tag_3:\n      callvalue\n        /* \"--CODEGEN--\":5:14   */\n      dup1\n        /* \"--CODEGEN--\":2:4   */\n      iszero\n      tag_8\n      jumpi\n        /* \"--CODEGEN--\":27:28   */\n      0x00\n        /* \"--CODEGEN--\":24:25   */\n      dup1\n        /* \"--CODEGEN--\":17:29   */\n      revert\n        /* \"--CODEGEN--\":2:4   */\n    tag_8:\n        /* \"contracts/Lesson3_Fund.sol\":589:865  function GetPrice() public view returns(uint256)\r... */\n      pop\n      tag_9\n      tag_10\n      jump\t// in\n    tag_9:\n      mload(0x40)\n      dup1\n      dup3\n      dup2\n      mstore\n      0x20\n      add\n      swap2\n      pop\n      pop\n      mload(0x40)\n      dup1\n      swap2\n      sub\n      swap1\n      return\n        /* \"contracts/Lesson3_Fund.sol\":174:222  mapping (address => uint256) public addrToamount */\n    tag_4:\n      callvalue\n        /* \"--CODEGEN--\":5:14   */\n      dup1\n        /* \"--CODEGEN--\":2:4   */\n      iszero\n      tag_11\n      jumpi\n        /* \"--CODEGEN--\":27:28   */\n      0x00\n        /* \"--CODEGEN--\":24:25   */\n      dup1\n        /* \"--CODEGEN--\":17:29   */\n      revert\n        /* \"--CODEGEN--\":2:4   */\n    tag_11:\n        /* \"contracts/Lesson3_Fund.sol\":174:222  mapping (address => uint256) public addrToamount */\n      pop\n      tag_12\n      0x04\n      dup1\n      calldatasize\n      sub\n        /* \"--CODEGEN--\":15:17   */\n      0x20\n        /* \"--CODEGEN--\":10:13   */\n      dup2\n        /* \"--CODEGEN--\":7:18   */\n      lt\n        /* \"--CODEGEN--\":4:6   */\n      iszero\n      tag_13\n      jumpi\n        /* \"--CODEGEN--\":31:32   */\n      0x00\n        /* \"--CODEGEN--\":28:29   */\n      dup1\n        /* \"--CODEGEN--\":21:33   */\n      revert\n        /* \"--CODEGEN--\":4:6   */\n    tag_13:\n        /* \"contracts/Lesson3_Fund.sol\":174:222  mapping (address => uint256) public addrToamount */\n      dup2\n      add\n      swap1\n      dup1\n      dup1\n      calldataload\n      0xffffffffffffffffffffffffffffffffffffffff\n      and\n      swap1\n      0x20\n      add\n      swap1\n      swap3\n      swap2\n      swap1\n      pop\n      pop\n      pop\n      tag_14\n      jump\t// in\n    tag_12:\n      mload(0x40)\n      dup1\n      dup3\n      dup2\n      mstore\n      0x20\n      add\n      swap2\n      pop\n      pop\n      mload(0x40)\n      dup1\n      swap2\n      sub\n      swap1\n      return\n        /* \"contracts/Lesson3_Fund.sol\":370:583  function GetVersion() public view returns (uint256)\r... */\n    tag_5:\n      callvalue\n        /* \"--CODEGEN--\":5:14   */\n      dup1\n        /* \"--CODEGEN--\":2:4   */\n      iszero\n      tag_15\n      jumpi\n        /* \"--CODEGEN--\":27:28   */\n      0x00\n        /* \"--CODEGEN--\":24:25   */\n      dup1\n        /* \"--CODEGEN--\":17:29   */\n      revert\n        /* \"--CODEGEN--\":2:4   */\n    tag_15:\n        /* \"contracts/Lesson3_Fund.sol\":370:583  function GetVersion() public view returns (uint256)\r... */\n      pop\n      tag_16\n      tag_17\n      jump\t// in\n    tag_16:\n      mload(0x40)\n      dup1\n      dup3\n      dup2\n      mstore\n      0x20\n      add\n      swap2\n      pop\n      pop\n      mload(0x40)\n      dup1\n      swap2\n      sub\n      swap1\n      return\n        /* \"contracts/Lesson3_Fund.sol\":231:364  function Fund() public payable {\r... */\n    tag_7:\n        /* \"contracts/Lesson3_Fund.sol\":304:313  msg.value */\n      callvalue\n        /* \"contracts/Lesson3_Fund.sol\":277:289  addrToamount */\n      0x00\n        /* \"contracts/Lesson3_Fund.sol\":277:301  addrToamount[msg.sender] */\n      dup1\n        /* \"contracts/Lesson3_Fund.sol\":290:300  msg.sender */\n      caller\n        /* \"contracts/Lesson3_Fund.sol\":277:301  addrToamount[msg.sender] */\n      0xffffffffffffffffffffffffffffffffffffffff\n      and\n      0xffffffffffffffffffffffffffffffffffffffff\n      and\n      dup2\n      mstore\n      0x20\n      add\n      swap1\n      dup2\n      mstore\n      0x20\n      add\n      0x00\n      keccak256\n      0x00\n        /* \"contracts/Lesson3_Fund.sol\":277:313  addrToamount[msg.sender]+= msg.value */\n      dup3\n      dup3\n      sload\n      add\n      swap3\n      pop\n      pop\n      dup2\n      swap1\n      sstore\n      pop\n        /* \"contracts/Lesson3_Fund.sol\":231:364  function Fund() public payable {\r... */\n      jump\t// out\n        /* \"contracts/Lesson3_Fund.sol\":589:865  function GetPrice() public view returns(uint256)\r... */\n    tag_10:\n        /* \"contracts/Lesson3_Fund.sol\":629:636  uint256 */\n      0x00\n        /* \"contracts/Lesson3_Fund.sol\":654:685  AggregatorV3Interface PriceFeed */\n      dup1\n        /* \"contracts/Lesson3_Fund.sol\":710:752  0x8A753747A1Fa494EC906cE90E9f37563A8AF630e */\n      0x8a753747a1fa494ec906ce90e9f37563a8af630e\n        /* \"contracts/Lesson3_Fund.sol\":654:753  AggregatorV3Interface PriceFeed = AggregatorV3Interface(0x8A753747A1Fa494EC906cE90E9f37563A8AF630e) */\n      swap1\n      pop\n        /* \"contracts/Lesson3_Fund.sol\":783:792  int price */\n      0x00\n        /* \"contracts/Lesson3_Fund.sol\":798:807  PriceFeed */\n      dup2\n        /* \"contracts/Lesson3_Fund.sol\":798:823  PriceFeed.latestRoundData */\n      0xffffffffffffffffffffffffffffffffffffffff\n      and\n      0xfeaf968c\n        /* \"contracts/Lesson3_Fund.sol\":798:825  PriceFeed.latestRoundData() */\n      mload(0x40)\n      dup2\n      0xffffffff\n      and\n      0xe0\n      shl\n      dup2\n      mstore\n      0x04\n      add\n      0xa0\n      mload(0x40)\n      dup1\n      dup4\n      sub\n      dup2\n      dup7\n      dup1\n      extcodesize\n      iszero\n        /* \"--CODEGEN--\":5:14   */\n      dup1\n        /* \"--CODEGEN--\":2:4   */\n      iszero\n      tag_20\n      jumpi\n        /* \"--CODEGEN--\":27:28   */\n      0x00\n        /* \"--CODEGEN--\":24:25   */\n      dup1\n        /* \"--CODEGEN--\":17:29   */\n      revert\n        /* \"--CODEGEN--\":2:4   */\n    tag_20:\n        /* \"contracts/Lesson3_Fund.sol\":798:825  PriceFeed.latestRoundData() */\n      pop\n      gas\n      staticcall\n      iszero\n        /* \"--CODEGEN--\":8:17   */\n      dup1\n        /* \"--CODEGEN--\":5:7   */\n      iszero\n      tag_22\n      jumpi\n        /* \"--CODEGEN--\":45:61   */\n      returndatasize\n        /* \"--CODEGEN--\":42:43   */\n      0x00\n        /* \"--CODEGEN--\":39:40   */\n      dup1\n        /* \"--CODEGEN--\":24:62   */\n      returndatacopy\n        /* \"--CODEGEN--\":77:93   */\n      returndatasize\n        /* \"--CODEGEN--\":74:75   */\n      0x00\n        /* \"--CODEGEN--\":67:94   */\n      revert\n        /* \"--CODEGEN--\":5:7   */\n    tag_22:\n        /* \"contracts/Lesson3_Fund.sol\":798:825  PriceFeed.latestRoundData() */\n      pop\n      pop\n      pop\n      pop\n      mload(0x40)\n      returndatasize\n        /* \"--CODEGEN--\":15:18   */\n      0xa0\n        /* \"--CODEGEN--\":10:13   */\n      dup2\n        /* \"--CODEGEN--\":7:19   */\n      lt\n        /* \"--CODEGEN--\":4:6   */\n      iszero\n      tag_23\n      jumpi\n        /* \"--CODEGEN--\":32:33   */\n      0x00\n        /* \"--CODEGEN--\":29:30   */\n      dup1\n        /* \"--CODEGEN--\":22:34   */\n      revert\n        /* \"--CODEGEN--\":4:6   */\n    tag_23:\n        /* \"contracts/Lesson3_Fund.sol\":798:825  PriceFeed.latestRoundData() */\n      dup2\n      add\n      swap1\n      dup1\n      dup1\n      mload\n      swap1\n      0x20\n      add\n      swap1\n      swap3\n      swap2\n      swap1\n      dup1\n      mload\n      swap1\n      0x20\n      add\n      swap1\n      swap3\n      swap2\n      swap1\n      dup1\n      mload\n      swap1\n      0x20\n      add\n      swap1\n      swap3\n      swap2\n      swap1\n      dup1\n      mload\n      swap1\n      0x20\n      add\n      swap1\n      swap3\n      swap2\n      swap1\n      dup1\n      mload\n      swap1\n      0x20\n      add\n      swap1\n      swap3\n      swap2\n      swap1\n      pop\n      pop\n      pop\n        /* \"contracts/Lesson3_Fund.sol\":764:825  (   ,\r... */\n      pop\n      pop\n      pop\n      swap2\n      pop\n      pop\n        /* \"contracts/Lesson3_Fund.sol\":851:856  price */\n      dup1\n        /* \"contracts/Lesson3_Fund.sol\":836:857  return uint256(price) */\n      swap3\n      pop\n      pop\n      pop\n        /* \"contracts/Lesson3_Fund.sol\":589:865  function GetPrice() public view returns(uint256)\r... */\n      swap1\n      jump\t// out\n        /* \"contracts/Lesson3_Fund.sol\":174:222  mapping (address => uint256) public addrToamount */\n    tag_14:\n      mstore(0x20, 0x00)\n      dup1\n      0x00\n      mstore\n      keccak256(0x00, 0x40)\n      0x00\n      swap2\n      pop\n      swap1\n      pop\n      sload\n      dup2\n      jump\t// out\n        /* \"contracts/Lesson3_Fund.sol\":370:583  function GetVersion() public view returns (uint256)\r... */\n    tag_17:\n        /* \"contracts/Lesson3_Fund.sol\":413:420  uint256 */\n      0x00\n        /* \"contracts/Lesson3_Fund.sol\":438:469  AggregatorV3Interface PriceFeed */\n      dup1\n        /* \"contracts/Lesson3_Fund.sol\":495:537  0x8A753747A1Fa494EC906cE90E9f37563A8AF630e */\n      0x8a753747a1fa494ec906ce90e9f37563a8af630e\n        /* \"contracts/Lesson3_Fund.sol\":438:538  AggregatorV3Interface PriceFeed =  AggregatorV3Interface(0x8A753747A1Fa494EC906cE90E9f37563A8AF630e) */\n      swap1\n      pop\n        /* \"contracts/Lesson3_Fund.sol\":556:565  PriceFeed */\n      dup1\n        /* \"contracts/Lesson3_Fund.sol\":556:573  PriceFeed.version */\n      0xffffffffffffffffffffffffffffffffffffffff\n      and\n      0x54fd4d50\n        /* \"contracts/Lesson3_Fund.sol\":556:575  PriceFeed.version() */\n      mload(0x40)\n      dup2\n      0xffffffff\n      and\n      0xe0\n      shl\n      dup2\n      mstore\n      0x04\n      add\n      0x20\n      mload(0x40)\n      dup1\n      dup4\n      sub\n      dup2\n      dup7\n      dup1\n      extcodesize\n      iszero\n        /* \"--CODEGEN--\":5:14   */\n      dup1\n        /* \"--CODEGEN--\":2:4   */\n      iszero\n      tag_25\n      jumpi\n        /* \"--CODEGEN--\":27:28   */\n      0x00\n        /* \"--CODEGEN--\":24:25   */\n      dup1\n        /* \"--CODEGEN--\":17:29   */\n      revert\n        /* \"--CODEGEN--\":2:4   */\n    tag_25:\n        /* \"contracts/Lesson3_Fund.sol\":556:575  PriceFeed.version() */\n      pop\n      gas\n      staticcall\n      iszero\n        /* \"--CODEGEN--\":8:17   */\n      dup1\n        /* \"--CODEGEN--\":5:7   */\n      iszero\n      tag_27\n      jumpi\n        /* \"--CODEGEN--\":45:61   */\n      returndatasize\n        /* \"--CODEGEN--\":42:43   */\n      0x00\n        /* \"--CODEGEN--\":39:40   */\n      dup1\n        /* \"--CODEGEN--\":24:62   */\n      returndatacopy\n        /* \"--CODEGEN--\":77:93   */\n      returndatasize\n        /* \"--CODEGEN--\":74:75   */\n      0x00\n        /* \"--CODEGEN--\":67:94   */\n      revert\n        /* \"--CODEGEN--\":5:7   */\n    tag_27:\n        /* \"contracts/Lesson3_Fund.sol\":556:575  PriceFeed.version() */\n      pop\n      pop\n      pop\n      pop\n      mload(0x40)\n      returndatasize\n        /* \"--CODEGEN--\":15:17   */\n      0x20\n        /* \"--CODEGEN--\":10:13   */\n      dup2\n        /* \"--CODEGEN--\":7:18   */\n      lt\n        /* \"--CODEGEN--\":4:6   */\n      iszero\n      tag_28\n      jumpi\n        /* \"--CODEGEN--\":31:32   */\n      0x00\n        /* \"--CODEGEN--\":28:29   */\n      dup1\n        /* \"--CODEGEN--\":21:33   */\n      revert\n        /* \"--CODEGEN--\":4:6   */\n    tag_28:\n        /* \"contracts/Lesson3_Fund.sol\":556:575  PriceFeed.version() */\n      dup2\n      add\n      swap1\n      dup1\n      dup1\n      mload\n      swap1\n      0x20\n      add\n      swap1\n      swap3\n      swap2\n      swap1\n      pop\n      pop\n      pop\n        /* \"contracts/Lesson3_Fund.sol\":549:575  return PriceFeed.version() */\n      swap2\n      pop\n      pop\n        /* \"contracts/Lesson3_Fund.sol\":370:583  function GetVersion() public view returns (uint256)\r... */\n      swap1\n      jump\t// out\n\n    auxdata: 0xa2646970667358221220fc810469f987d4b6cb19c679b3779edc344f380ff5e694976f94f0f010a14bfc64736f6c63430006060033\n}\n",
				"bytecode": {
					"linkReferences": {},
					"object": "608060405234801561001057600080fd5b50610319806100206000396000f3fe60806040526004361061003f5760003560e01c80636ce1417e146100445780636d90164e1461004e5780638789aaad14610079578063c6129a5a146100de575b600080fd5b61004c610109565b005b34801561005a57600080fd5b50610063610157565b6040518082815260200191505060405180910390f35b34801561008557600080fd5b506100c86004803603602081101561009c57600080fd5b81019080803573ffffffffffffffffffffffffffffffffffffffff16906020019092919050505061022a565b6040518082815260200191505060405180910390f35b3480156100ea57600080fd5b506100f3610242565b6040518082815260200191505060405180910390f35b346000803373ffffffffffffffffffffffffffffffffffffffff1673ffffffffffffffffffffffffffffffffffffffff16815260200190815260200160002060008282540192505081905550565b600080738a753747a1fa494ec906ce90e9f37563a8af630e905060008173ffffffffffffffffffffffffffffffffffffffff1663feaf968c6040518163ffffffff1660e01b815260040160a06040518083038186803b1580156101b957600080fd5b505afa1580156101cd573d6000803e3d6000fd5b505050506040513d60a08110156101e357600080fd5b810190808051906020019092919080519060200190929190805190602001909291908051906020019092919080519060200190929190505050505050915050809250505090565b60006020528060005260406000206000915090505481565b600080738a753747a1fa494ec906ce90e9f37563a8af630e90508073ffffffffffffffffffffffffffffffffffffffff166354fd4d506040518163ffffffff1660e01b815260040160206040518083038186803b1580156102a257600080fd5b505afa1580156102b6573d6000803e3d6000fd5b505050506040513d60208110156102cc57600080fd5b81019080805190602001909291905050509150509056fea2646970667358221220fc810469f987d4b6cb19c679b3779edc344f380ff5e694976f94f0f010a14bfc64736f6c63430006060033",
					"opcodes": "PUSH1 0x80 PUSH1 0x40 MSTORE CALLVALUE DUP1 ISZERO PUSH2 0x10 JUMPI PUSH1 0x0 DUP1 REVERT JUMPDEST POP PUSH2 0x319 DUP1 PUSH2 0x20 PUSH1 0x0 CODECOPY PUSH1 0x0 RETURN INVALID PUSH1 0x80 PUSH1 0x40 MSTORE PUSH1 0x4 CALLDATASIZE LT PUSH2 0x3F JUMPI PUSH1 0x0 CALLDATALOAD PUSH1 0xE0 SHR DUP1 PUSH4 0x6CE1417E EQ PUSH2 0x44 JUMPI DUP1 PUSH4 0x6D90164E EQ PUSH2 0x4E JUMPI DUP1 PUSH4 0x8789AAAD EQ PUSH2 0x79 JUMPI DUP1 PUSH4 0xC6129A5A EQ PUSH2 0xDE JUMPI JUMPDEST PUSH1 0x0 DUP1 REVERT JUMPDEST PUSH2 0x4C PUSH2 0x109 JUMP JUMPDEST STOP JUMPDEST CALLVALUE DUP1 ISZERO PUSH2 0x5A JUMPI PUSH1 0x0 DUP1 REVERT JUMPDEST POP PUSH2 0x63 PUSH2 0x157 JUMP JUMPDEST PUSH1 0x40 MLOAD DUP1 DUP3 DUP2 MSTORE PUSH1 0x20 ADD SWAP2 POP POP PUSH1 0x40 MLOAD DUP1 SWAP2 SUB SWAP1 RETURN JUMPDEST CALLVALUE DUP1 ISZERO PUSH2 0x85 JUMPI PUSH1 0x0 DUP1 REVERT JUMPDEST POP PUSH2 0xC8 PUSH1 0x4 DUP1 CALLDATASIZE SUB PUSH1 0x20 DUP2 LT ISZERO PUSH2 0x9C JUMPI PUSH1 0x0 DUP1 REVERT JUMPDEST DUP2 ADD SWAP1 DUP1 DUP1 CALLDATALOAD PUSH20 0xFFFFFFFFFFFFFFFFFFFFFFFFFFFFFFFFFFFFFFFF AND SWAP1 PUSH1 0x20 ADD SWAP1 SWAP3 SWAP2 SWAP1 POP POP POP PUSH2 0x22A JUMP JUMPDEST PUSH1 0x40 MLOAD DUP1 DUP3 DUP2 MSTORE PUSH1 0x20 ADD SWAP2 POP POP PUSH1 0x40 MLOAD DUP1 SWAP2 SUB SWAP1 RETURN JUMPDEST CALLVALUE DUP1 ISZERO PUSH2 0xEA JUMPI PUSH1 0x0 DUP1 REVERT JUMPDEST POP PUSH2 0xF3 PUSH2 0x242 JUMP JUMPDEST PUSH1 0x40 MLOAD DUP1 DUP3 DUP2 MSTORE PUSH1 0x20 ADD SWAP2 POP POP PUSH1 0x40 MLOAD DUP1 SWAP2 SUB SWAP1 RETURN JUMPDEST CALLVALUE PUSH1 0x0 DUP1 CALLER PUSH20 0xFFFFFFFFFFFFFFFFFFFFFFFFFFFFFFFFFFFFFFFF AND PUSH20 0xFFFFFFFFFFFFFFFFFFFFFFFFFFFFFFFFFFFFFFFF AND DUP2 MSTORE PUSH1 0x20 ADD SWAP1 DUP2 MSTORE PUSH1 0x20 ADD PUSH1 0x0 KECCAK256 PUSH1 0x0 DUP3 DUP3 SLOAD ADD SWAP3 POP POP DUP2 SWAP1 SSTORE POP JUMP JUMPDEST PUSH1 0x0 DUP1 PUSH20 0x8A753747A1FA494EC906CE90E9F37563A8AF630E SWAP1 POP PUSH1 0x0 DUP2 PUSH20 0xFFFFFFFFFFFFFFFFFFFFFFFFFFFFFFFFFFFFFFFF AND PUSH4 0xFEAF968C PUSH1 0x40 MLOAD DUP2 PUSH4 0xFFFFFFFF AND PUSH1 0xE0 SHL DUP2 MSTORE PUSH1 0x4 ADD PUSH1 0xA0 PUSH1 0x40 MLOAD DUP1 DUP4 SUB DUP2 DUP7 DUP1 EXTCODESIZE ISZERO DUP1 ISZERO PUSH2 0x1B9 JUMPI PUSH1 0x0 DUP1 REVERT JUMPDEST POP GAS STATICCALL ISZERO DUP1 ISZERO PUSH2 0x1CD JUMPI RETURNDATASIZE PUSH1 0x0 DUP1 RETURNDATACOPY RETURNDATASIZE PUSH1 0x0 REVERT JUMPDEST POP POP POP POP PUSH1 0x40 MLOAD RETURNDATASIZE PUSH1 0xA0 DUP2 LT ISZERO PUSH2 0x1E3 JUMPI PUSH1 0x0 DUP1 REVERT JUMPDEST DUP2 ADD SWAP1 DUP1 DUP1 MLOAD SWAP1 PUSH1 0x20 ADD SWAP1 SWAP3 SWAP2 SWAP1 DUP1 MLOAD SWAP1 PUSH1 0x20 ADD SWAP1 SWAP3 SWAP2 SWAP1 DUP1 MLOAD SWAP1 PUSH1 0x20 ADD SWAP1 SWAP3 SWAP2 SWAP1 DUP1 MLOAD SWAP1 PUSH1 0x20 ADD SWAP1 SWAP3 SWAP2 SWAP1 DUP1 MLOAD SWAP1 PUSH1 0x20 ADD SWAP1 SWAP3 SWAP2 SWAP1 POP POP POP POP POP POP SWAP2 POP POP DUP1 SWAP3 POP POP POP SWAP1 JUMP JUMPDEST PUSH1 0x0 PUSH1 0x20 MSTORE DUP1 PUSH1 0x0 MSTORE PUSH1 0x40 PUSH1 0x0 KECCAK256 PUSH1 0x0 SWAP2 POP SWAP1 POP SLOAD DUP2 JUMP JUMPDEST PUSH1 0x0 DUP1 PUSH20 0x8A753747A1FA494EC906CE90E9F37563A8AF630E SWAP1 POP DUP1 PUSH20 0xFFFFFFFFFFFFFFFFFFFFFFFFFFFFFFFFFFFFFFFF AND PUSH4 0x54FD4D50 PUSH1 0x40 MLOAD DUP2 PUSH4 0xFFFFFFFF AND PUSH1 0xE0 SHL DUP2 MSTORE PUSH1 0x4 ADD PUSH1 0x20 PUSH1 0x40 MLOAD DUP1 DUP4 SUB DUP2 DUP7 DUP1 EXTCODESIZE ISZERO DUP1 ISZERO PUSH2 0x2A2 JUMPI PUSH1 0x0 DUP1 REVERT JUMPDEST POP GAS STATICCALL ISZERO DUP1 ISZERO PUSH2 0x2B6 JUMPI RETURNDATASIZE PUSH1 0x0 DUP1 RETURNDATACOPY RETURNDATASIZE PUSH1 0x0 REVERT JUMPDEST POP POP POP POP PUSH1 0x40 MLOAD RETURNDATASIZE PUSH1 0x20 DUP2 LT ISZERO PUSH2 0x2CC JUMPI PUSH1 0x0 DUP1 REVERT JUMPDEST DUP2 ADD SWAP1 DUP1 DUP1 MLOAD SWAP1 PUSH1 0x20 ADD SWAP1 SWAP3 SWAP2 SWAP1 POP POP POP SWAP2 POP POP SWAP1 JUMP INVALID LOG2 PUSH5 0x6970667358 0x22 SLT KECCAK256 0xFC DUP2 DIV PUSH10 0xF987D4B6CB19C679B377 SWAP15 0xDC CALLVALUE 0x4F CODESIZE 0xF CREATE2 0xE6 SWAP5 SWAP8 PUSH16 0x94F0F010A14BFC64736F6C6343000606 STOP CALLER "
				},
				"gasEstimates": {
					"creation": {
						"codeDepositCost": "158600",
						"executionCost": "202",
						"totalCost": "158802"
					},
					"external": {
						"Fund()": "21019",
						"GetPrice()": "infinite",
						"GetVersion()": "infinite",
						"addrToamount(address)": "1191"
					}
				},
				"methodIdentifiers": {
					"Fund()": "6ce1417e",
					"GetPrice()": "6d90164e",
					"GetVersion()": "c6129a5a",
					"addrToamount(address)": "8789aaad"
				}
			},
			"storageLayout": {
				"storage": [
					{
						"astId": 52,
						"contract": "contracts/Lesson3_Fund.sol:Fundme",
						"label": "addrToamount",
						"offset": 0,
						"slot": "0",
						"type": "t_mapping(t_address,t_uint256)"
					}
				],
				"types": {
					"t_address": {
						"encoding": "inplace",
						"label": "address",
						"numberOfBytes": "20"
					},
					"t_mapping(t_address,t_uint256)": {
						"encoding": "mapping",
						"key": "t_address",
						"label": "mapping(address => uint256)",
						"numberOfBytes": "32",
						"value": "t_uint256"
					},
					"t_uint256": {
						"encoding": "inplace",
						"label": "uint256",
						"numberOfBytes": "32"
					}
				}
			},
			"userdoc": {
				"methods": {}
			}
		}
	}
}