{
	"contracts/Lesson3_Storage_Factory.sol": {
		"StorageFactory": {
			"abi": [
				{
					"inputs": [],
					"name": "CreateSC",
					"outputs": [],
					"stateMutability": "nonpayable",
					"type": "function"
				},
				{
					"inputs": [
						{
							"internalType": "int256",
							"name": "index",
							"type": "int256"
						},
						{
							"internalType": "int256",
							"name": "num",
							"type": "int256"
						}
					],
					"name": "sfstr",
					"outputs": [],
					"stateMutability": "nonpayable",
					"type": "function"
				},
				{
					"inputs": [
						{
							"internalType": "uint256",
							"name": "",
							"type": "uint256"
						}
					],
					"name": "sta",
					"outputs": [
						{
							"internalType": "contract Storage",
							"name": "",
							"type": "address"
						}
					],
					"stateMutability": "view",
					"type": "function"
				}
			],
			"devdoc": {
				"methods": {}
			},
			"evm": {
				"assembly": "    /* \"contracts/Lesson3_Storage_Factory.sol\":97:305  contract StorageFactory{\r... */\n  mstore(0x40, 0x80)\n  callvalue\n    /* \"--CODEGEN--\":5:14   */\n  dup1\n    /* \"--CODEGEN--\":2:4   */\n  iszero\n  tag_1\n  jumpi\n    /* \"--CODEGEN--\":27:28   */\n  0x00\n    /* \"--CODEGEN--\":24:25   */\n  dup1\n    /* \"--CODEGEN--\":17:29   */\n  revert\n    /* \"--CODEGEN--\":2:4   */\ntag_1:\n    /* \"contracts/Lesson3_Storage_Factory.sol\":97:305  contract StorageFactory{\r... */\n  pop\n  dataSize(sub_0)\n  dup1\n  dataOffset(sub_0)\n  0x00\n  codecopy\n  0x00\n  return\nstop\n\nsub_0: assembly {\n        /* \"contracts/Lesson3_Storage_Factory.sol\":97:305  contract StorageFactory{\r... */\n      mstore(0x40, 0x80)\n      callvalue\n        /* \"--CODEGEN--\":5:14   */\n      dup1\n        /* \"--CODEGEN--\":2:4   */\n      iszero\n      tag_1\n      jumpi\n        /* \"--CODEGEN--\":27:28   */\n      0x00\n        /* \"--CODEGEN--\":24:25   */\n      dup1\n        /* \"--CODEGEN--\":17:29   */\n      revert\n        /* \"--CODEGEN--\":2:4   */\n    tag_1:\n        /* \"contracts/Lesson3_Storage_Factory.sol\":97:305  contract StorageFactory{\r... */\n      pop\n      jumpi(tag_2, lt(calldatasize, 0x04))\n      shr(0xe0, calldataload(0x00))\n      dup1\n      0x3a986bb7\n      eq\n      tag_3\n      jumpi\n      dup1\n      0x699ac281\n      eq\n      tag_4\n      jumpi\n      dup1\n      0x7662a8c2\n      eq\n      tag_5\n      jumpi\n    tag_2:\n        /* \"--CODEGEN--\":12:13   */\n      0x00\n        /* \"--CODEGEN--\":9:10   */\n      dup1\n        /* \"--CODEGEN--\":2:14   */\n      revert\n        /* \"contracts/Lesson3_Storage_Factory.sol\":156:253  function CreateSC() public {\r... */\n    tag_3:\n      tag_6\n      tag_7\n      jump\t// in\n    tag_6:\n      stop\n        /* \"contracts/Lesson3_Storage_Factory.sol\":259:302  function sfstr(int index, int num) public{} */\n    tag_4:\n      tag_8\n      0x04\n      dup1\n      calldatasize\n      sub\n        /* \"--CODEGEN--\":15:17   */\n      0x40\n        /* \"--CODEGEN--\":10:13   */\n      dup2\n        /* \"--CODEGEN--\":7:18   */\n      lt\n        /* \"--CODEGEN--\":4:6   */\n      iszero\n      tag_9\n      jumpi\n        /* \"--CODEGEN--\":31:32   */\n      0x00\n        /* \"--CODEGEN--\":28:29   */\n      dup1\n        /* \"--CODEGEN--\":21:33   */\n      revert\n        /* \"--CODEGEN--\":4:6   */\n    tag_9:\n        /* \"contracts/Lesson3_Storage_Factory.sol\":259:302  function sfstr(int index, int num) public{} */\n      dup2\n      add\n      swap1\n      dup1\n      dup1\n      calldataload\n      swap1\n      0x20\n      add\n      swap1\n      swap3\n      swap2\n      swap1\n      dup1\n      calldataload\n      swap1\n      0x20\n      add\n      swap1\n      swap3\n      swap2\n      swap1\n      pop\n      pop\n      pop\n      tag_10\n      jump\t// in\n    tag_8:\n      stop\n        /* \"contracts/Lesson3_Storage_Factory.sol\":127:147  Storage[] public sta */\n    tag_5:\n      tag_11\n      0x04\n      dup1\n      calldatasize\n      sub\n        /* \"--CODEGEN--\":15:17   */\n      0x20\n        /* \"--CODEGEN--\":10:13   */\n      dup2\n        /* \"--CODEGEN--\":7:18   */\n      lt\n        /* \"--CODEGEN--\":4:6   */\n      iszero\n      tag_12\n      jumpi\n        /* \"--CODEGEN--\":31:32   */\n      0x00\n        /* \"--CODEGEN--\":28:29   */\n      dup1\n        /* \"--CODEGEN--\":21:33   */\n      revert\n        /* \"--CODEGEN--\":4:6   */\n    tag_12:\n        /* \"contracts/Lesson3_Storage_Factory.sol\":127:147  Storage[] public sta */\n      dup2\n      add\n      swap1\n      dup1\n      dup1\n      calldataload\n      swap1\n      0x20\n      add\n      swap1\n      swap3\n      swap2\n      swap1\n      pop\n      pop\n      pop\n      tag_13\n      jump\t// in\n    tag_11:\n      mload(0x40)\n      dup1\n      dup3\n      0xffffffffffffffffffffffffffffffffffffffff\n      and\n      0xffffffffffffffffffffffffffffffffffffffff\n      and\n      dup2\n      mstore\n      0x20\n      add\n      swap2\n      pop\n      pop\n      mload(0x40)\n      dup1\n      swap2\n      sub\n      swap1\n      return\n        /* \"contracts/Lesson3_Storage_Factory.sol\":156:253  function CreateSC() public {\r... */\n    tag_7:\n        /* \"contracts/Lesson3_Storage_Factory.sol\":194:205  Storage bag */\n      0x00\n        /* \"contracts/Lesson3_Storage_Factory.sol\":208:221  new Storage() */\n      mload(0x40)\n      tag_15\n      swap1\n      tag_16\n      jump\t// in\n    tag_15:\n      mload(0x40)\n      dup1\n      swap2\n      sub\n      swap1\n      0x00\n      create\n      dup1\n      iszero\n        /* \"--CODEGEN--\":8:17   */\n      dup1\n        /* \"--CODEGEN--\":5:7   */\n      iszero\n      tag_17\n      jumpi\n        /* \"--CODEGEN--\":45:61   */\n      returndatasize\n        /* \"--CODEGEN--\":42:43   */\n      0x00\n        /* \"--CODEGEN--\":39:40   */\n      dup1\n        /* \"--CODEGEN--\":24:62   */\n      returndatacopy\n        /* \"--CODEGEN--\":77:93   */\n      returndatasize\n        /* \"--CODEGEN--\":74:75   */\n      0x00\n        /* \"--CODEGEN--\":67:94   */\n      revert\n        /* \"--CODEGEN--\":5:7   */\n    tag_17:\n        /* \"contracts/Lesson3_Storage_Factory.sol\":208:221  new Storage() */\n      pop\n        /* \"contracts/Lesson3_Storage_Factory.sol\":194:221  Storage bag = new Storage() */\n      swap1\n      pop\n        /* \"contracts/Lesson3_Storage_Factory.sol\":232:235  sta */\n      0x00\n        /* \"contracts/Lesson3_Storage_Factory.sol\":241:244  bag */\n      dup2\n        /* \"contracts/Lesson3_Storage_Factory.sol\":232:245  sta.push(bag) */\n      swap1\n      dup1\n        /* \"--CODEGEN--\":39:40   */\n      0x01\n        /* \"--CODEGEN--\":33:36   */\n      dup2\n        /* \"--CODEGEN--\":27:37   */\n      sload\n        /* \"--CODEGEN--\":23:41   */\n      add\n        /* \"--CODEGEN--\":57:67   */\n      dup1\n        /* \"--CODEGEN--\":52:55   */\n      dup3\n        /* \"--CODEGEN--\":45:68   */\n      sstore\n        /* \"--CODEGEN--\":79:89   */\n      dup1\n        /* \"--CODEGEN--\":72:89   */\n      swap2\n      pop\n        /* \"--CODEGEN--\":0:93   */\n      pop\n        /* \"contracts/Lesson3_Storage_Factory.sol\":232:245  sta.push(bag) */\n      0x01\n      swap1\n      sub\n      swap1\n      0x00\n      mstore\n      keccak256(0x00, 0x20)\n      add\n      0x00\n      swap1\n      swap2\n      swap1\n      swap2\n      swap1\n      swap2\n      0x0100\n      exp\n      dup2\n      sload\n      dup2\n      0xffffffffffffffffffffffffffffffffffffffff\n      mul\n      not\n      and\n      swap1\n      dup4\n      0xffffffffffffffffffffffffffffffffffffffff\n      and\n      mul\n      or\n      swap1\n      sstore\n      pop\n        /* \"contracts/Lesson3_Storage_Factory.sol\":156:253  function CreateSC() public {\r... */\n      pop\n      jump\t// out\n        /* \"contracts/Lesson3_Storage_Factory.sol\":259:302  function sfstr(int index, int num) public{} */\n    tag_10:\n      pop\n      pop\n      jump\t// out\n        /* \"contracts/Lesson3_Storage_Factory.sol\":127:147  Storage[] public sta */\n    tag_13:\n      0x00\n      dup2\n      dup2\n      sload\n      dup2\n      lt\n      tag_20\n      jumpi\n      invalid\n    tag_20:\n      swap1\n      0x00\n      mstore\n      keccak256(0x00, 0x20)\n      add\n      0x00\n      swap2\n      pop\n      sload\n      swap1\n      0x0100\n      exp\n      swap1\n      div\n      0xffffffffffffffffffffffffffffffffffffffff\n      and\n      dup2\n      jump\t// out\n        /* \"contracts/Lesson3_Storage_Factory.sol\":97:305  contract StorageFactory{\r... */\n    tag_16:\n      dataSize(sub_0)\n      dup1\n      dataOffset(sub_0)\n      dup4\n      codecopy\n      add\n      swap1\n      jump\t// out\n    stop\n\n    sub_0: assembly {\n            /* \"contracts/Lesson2_Storage.sol\":29:379  contract Storage{\r... */\n          mstore(0x40, 0x80)\n          callvalue\n            /* \"--CODEGEN--\":5:14   */\n          dup1\n            /* \"--CODEGEN--\":2:4   */\n          iszero\n          tag_1\n          jumpi\n            /* \"--CODEGEN--\":27:28   */\n          0x00\n            /* \"--CODEGEN--\":24:25   */\n          dup1\n            /* \"--CODEGEN--\":17:29   */\n          revert\n            /* \"--CODEGEN--\":2:4   */\n        tag_1:\n            /* \"contracts/Lesson2_Storage.sol\":29:379  contract Storage{\r... */\n          pop\n          dataSize(sub_0)\n          dup1\n          dataOffset(sub_0)\n          0x00\n          codecopy\n          0x00\n          return\n        stop\n\n        sub_0: assembly {\n                /* \"contracts/Lesson2_Storage.sol\":29:379  contract Storage{\r... */\n              mstore(0x40, 0x80)\n              callvalue\n                /* \"--CODEGEN--\":5:14   */\n              dup1\n                /* \"--CODEGEN--\":2:4   */\n              iszero\n              tag_1\n              jumpi\n                /* \"--CODEGEN--\":27:28   */\n              0x00\n                /* \"--CODEGEN--\":24:25   */\n              dup1\n                /* \"--CODEGEN--\":17:29   */\n              revert\n                /* \"--CODEGEN--\":2:4   */\n            tag_1:\n                /* \"contracts/Lesson2_Storage.sol\":29:379  contract Storage{\r... */\n              pop\n              jumpi(tag_2, lt(calldatasize, 0x04))\n              shr(0xe0, calldataload(0x00))\n              dup1\n              0x2b77973b\n              eq\n              tag_3\n              jumpi\n              dup1\n              0x6036f496\n              eq\n              tag_4\n              jumpi\n              dup1\n              0xbb90bc05\n              eq\n              tag_5\n              jumpi\n              dup1\n              0xfe883e2e\n              eq\n              tag_6\n              jumpi\n            tag_2:\n                /* \"--CODEGEN--\":12:13   */\n              0x00\n                /* \"--CODEGEN--\":9:10   */\n              dup1\n                /* \"--CODEGEN--\":2:14   */\n              revert\n                /* \"contracts/Lesson2_Storage.sol\":162:203  mapping(string => int ) public name_money */\n            tag_3:\n              tag_7\n              0x04\n              dup1\n              calldatasize\n              sub\n                /* \"--CODEGEN--\":15:17   */\n              0x20\n                /* \"--CODEGEN--\":10:13   */\n              dup2\n                /* \"--CODEGEN--\":7:18   */\n              lt\n                /* \"--CODEGEN--\":4:6   */\n              iszero\n              tag_8\n              jumpi\n                /* \"--CODEGEN--\":31:32   */\n              0x00\n                /* \"--CODEGEN--\":28:29   */\n              dup1\n                /* \"--CODEGEN--\":21:33   */\n              revert\n                /* \"--CODEGEN--\":4:6   */\n            tag_8:\n                /* \"contracts/Lesson2_Storage.sol\":162:203  mapping(string => int ) public name_money */\n              dup2\n              add\n              swap1\n              dup1\n              dup1\n              calldataload\n              swap1\n              0x20\n              add\n              swap1\n                /* \"--CODEGEN--\":27:38   */\n              0x0100000000\n                /* \"--CODEGEN--\":14:25   */\n              dup2\n                /* \"--CODEGEN--\":11:39   */\n              gt\n                /* \"--CODEGEN--\":8:10   */\n              iszero\n              tag_9\n              jumpi\n                /* \"--CODEGEN--\":52:53   */\n              0x00\n                /* \"--CODEGEN--\":49:50   */\n              dup1\n                /* \"--CODEGEN--\":42:54   */\n              revert\n                /* \"--CODEGEN--\":8:10   */\n            tag_9:\n                /* \"contracts/Lesson2_Storage.sol\":162:203  mapping(string => int ) public name_money */\n              dup3\n              add\n                /* \"--CODEGEN--\":41:50   */\n              dup4\n                /* \"--CODEGEN--\":34:38   */\n              0x20\n                /* \"--CODEGEN--\":18:32   */\n              dup3\n                /* \"--CODEGEN--\":14:39   */\n              add\n                /* \"--CODEGEN--\":11:51   */\n              gt\n                /* \"--CODEGEN--\":8:10   */\n              iszero\n              tag_10\n              jumpi\n                /* \"--CODEGEN--\":64:65   */\n              0x00\n                /* \"--CODEGEN--\":61:62   */\n              dup1\n                /* \"--CODEGEN--\":54:66   */\n              revert\n                /* \"--CODEGEN--\":8:10   */\n            tag_10:\n                /* \"contracts/Lesson2_Storage.sol\":162:203  mapping(string => int ) public name_money */\n              dup1\n              calldataload\n              swap1\n              0x20\n              add\n              swap2\n                /* \"--CODEGEN--\":100:109   */\n              dup5\n                /* \"--CODEGEN--\":95:96   */\n              0x01\n                /* \"--CODEGEN--\":81:93   */\n              dup4\n                /* \"--CODEGEN--\":77:97   */\n              mul\n                /* \"--CODEGEN--\":67:75   */\n              dup5\n                /* \"--CODEGEN--\":63:98   */\n              add\n                /* \"--CODEGEN--\":60:110   */\n              gt\n                /* \"--CODEGEN--\":39:50   */\n              0x0100000000\n                /* \"--CODEGEN--\":25:37   */\n              dup4\n                /* \"--CODEGEN--\":22:51   */\n              gt\n                /* \"--CODEGEN--\":11:118   */\n              or\n                /* \"--CODEGEN--\":8:10   */\n              iszero\n              tag_11\n              jumpi\n                /* \"--CODEGEN--\":131:132   */\n              0x00\n                /* \"--CODEGEN--\":128:129   */\n              dup1\n                /* \"--CODEGEN--\":121:133   */\n              revert\n                /* \"--CODEGEN--\":8:10   */\n            tag_11:\n                /* \"contracts/Lesson2_Storage.sol\":162:203  mapping(string => int ) public name_money */\n              swap2\n              swap1\n              dup1\n              dup1\n              0x1f\n              add\n              0x20\n              dup1\n              swap2\n              div\n              mul\n              0x20\n              add\n              mload(0x40)\n              swap1\n              dup2\n              add\n              0x40\n              mstore\n              dup1\n              swap4\n              swap3\n              swap2\n              swap1\n              dup2\n              dup2\n              mstore\n              0x20\n              add\n              dup4\n              dup4\n                /* \"--CODEGEN--\":30:33   */\n              dup1\n                /* \"--CODEGEN--\":22:28   */\n              dup3\n                /* \"--CODEGEN--\":14:20   */\n              dup5\n                /* \"--CODEGEN--\":1:34   */\n              calldatacopy\n                /* \"--CODEGEN--\":99:100   */\n              0x00\n                /* \"--CODEGEN--\":93:96   */\n              dup2\n                /* \"--CODEGEN--\":85:91   */\n              dup5\n                /* \"--CODEGEN--\":81:97   */\n              add\n                /* \"--CODEGEN--\":74:101   */\n              mstore\n                /* \"--CODEGEN--\":137:141   */\n              0x1f\n                /* \"--CODEGEN--\":133:142   */\n              not\n                /* \"--CODEGEN--\":126:130   */\n              0x1f\n                /* \"--CODEGEN--\":121:124   */\n              dup3\n                /* \"--CODEGEN--\":117:131   */\n              add\n                /* \"--CODEGEN--\":113:143   */\n              and\n                /* \"--CODEGEN--\":106:143   */\n              swap1\n              pop\n                /* \"--CODEGEN--\":169:172   */\n              dup1\n                /* \"--CODEGEN--\":161:167   */\n              dup4\n                /* \"--CODEGEN--\":157:173   */\n              add\n                /* \"--CODEGEN--\":147:173   */\n              swap3\n              pop\n                /* \"contracts/Lesson2_Storage.sol\":162:203  mapping(string => int ) public name_money */\n              pop\n              pop\n              pop\n              pop\n              pop\n              pop\n              swap2\n              swap3\n              swap2\n              swap3\n              swap1\n              pop\n              pop\n              pop\n              tag_12\n              jump\t// in\n            tag_7:\n              mload(0x40)\n              dup1\n              dup3\n              dup2\n              mstore\n              0x20\n              add\n              swap2\n              pop\n              pop\n              mload(0x40)\n              dup1\n              swap2\n              sub\n              swap1\n              return\n                /* \"contracts/Lesson2_Storage.sol\":212:313  function Store(string memory name, int money) public {\r... */\n            tag_4:\n              tag_13\n              0x04\n              dup1\n              calldatasize\n              sub\n                /* \"--CODEGEN--\":15:17   */\n              0x40\n                /* \"--CODEGEN--\":10:13   */\n              dup2\n                /* \"--CODEGEN--\":7:18   */\n              lt\n                /* \"--CODEGEN--\":4:6   */\n              iszero\n              tag_14\n              jumpi\n                /* \"--CODEGEN--\":31:32   */\n              0x00\n                /* \"--CODEGEN--\":28:29   */\n              dup1\n                /* \"--CODEGEN--\":21:33   */\n              revert\n                /* \"--CODEGEN--\":4:6   */\n            tag_14:\n                /* \"contracts/Lesson2_Storage.sol\":212:313  function Store(string memory name, int money) public {\r... */\n              dup2\n              add\n              swap1\n              dup1\n              dup1\n              calldataload\n              swap1\n              0x20\n              add\n              swap1\n                /* \"--CODEGEN--\":27:38   */\n              0x0100000000\n                /* \"--CODEGEN--\":14:25   */\n              dup2\n                /* \"--CODEGEN--\":11:39   */\n              gt\n                /* \"--CODEGEN--\":8:10   */\n              iszero\n              tag_15\n              jumpi\n                /* \"--CODEGEN--\":52:53   */\n              0x00\n                /* \"--CODEGEN--\":49:50   */\n              dup1\n                /* \"--CODEGEN--\":42:54   */\n              revert\n                /* \"--CODEGEN--\":8:10   */\n            tag_15:\n                /* \"contracts/Lesson2_Storage.sol\":212:313  function Store(string memory name, int money) public {\r... */\n              dup3\n              add\n                /* \"--CODEGEN--\":41:50   */\n              dup4\n                /* \"--CODEGEN--\":34:38   */\n              0x20\n                /* \"--CODEGEN--\":18:32   */\n              dup3\n                /* \"--CODEGEN--\":14:39   */\n              add\n                /* \"--CODEGEN--\":11:51   */\n              gt\n                /* \"--CODEGEN--\":8:10   */\n              iszero\n              tag_16\n              jumpi\n                /* \"--CODEGEN--\":64:65   */\n              0x00\n                /* \"--CODEGEN--\":61:62   */\n              dup1\n                /* \"--CODEGEN--\":54:66   */\n              revert\n                /* \"--CODEGEN--\":8:10   */\n            tag_16:\n                /* \"contracts/Lesson2_Storage.sol\":212:313  function Store(string memory name, int money) public {\r... */\n              dup1\n              calldataload\n              swap1\n              0x20\n              add\n              swap2\n                /* \"--CODEGEN--\":100:109   */\n              dup5\n                /* \"--CODEGEN--\":95:96   */\n              0x01\n                /* \"--CODEGEN--\":81:93   */\n              dup4\n                /* \"--CODEGEN--\":77:97   */\n              mul\n                /* \"--CODEGEN--\":67:75   */\n              dup5\n                /* \"--CODEGEN--\":63:98   */\n              add\n                /* \"--CODEGEN--\":60:110   */\n              gt\n                /* \"--CODEGEN--\":39:50   */\n              0x0100000000\n                /* \"--CODEGEN--\":25:37   */\n              dup4\n                /* \"--CODEGEN--\":22:51   */\n              gt\n                /* \"--CODEGEN--\":11:118   */\n              or\n                /* \"--CODEGEN--\":8:10   */\n              iszero\n              tag_17\n              jumpi\n                /* \"--CODEGEN--\":131:132   */\n              0x00\n                /* \"--CODEGEN--\":128:129   */\n              dup1\n                /* \"--CODEGEN--\":121:133   */\n              revert\n                /* \"--CODEGEN--\":8:10   */\n            tag_17:\n                /* \"contracts/Lesson2_Storage.sol\":212:313  function Store(string memory name, int money) public {\r... */\n              swap2\n              swap1\n              dup1\n              dup1\n              0x1f\n              add\n              0x20\n              dup1\n              swap2\n              div\n              mul\n              0x20\n              add\n              mload(0x40)\n              swap1\n              dup2\n              add\n              0x40\n              mstore\n              dup1\n              swap4\n              swap3\n              swap2\n              swap1\n              dup2\n              dup2\n              mstore\n              0x20\n              add\n              dup4\n              dup4\n                /* \"--CODEGEN--\":30:33   */\n              dup1\n                /* \"--CODEGEN--\":22:28   */\n              dup3\n                /* \"--CODEGEN--\":14:20   */\n              dup5\n                /* \"--CODEGEN--\":1:34   */\n              calldatacopy\n                /* \"--CODEGEN--\":99:100   */\n              0x00\n                /* \"--CODEGEN--\":93:96   */\n              dup2\n                /* \"--CODEGEN--\":85:91   */\n              dup5\n                /* \"--CODEGEN--\":81:97   */\n              add\n                /* \"--CODEGEN--\":74:101   */\n              mstore\n                /* \"--CODEGEN--\":137:141   */\n              0x1f\n                /* \"--CODEGEN--\":133:142   */\n              not\n                /* \"--CODEGEN--\":126:130   */\n              0x1f\n                /* \"--CODEGEN--\":121:124   */\n              dup3\n                /* \"--CODEGEN--\":117:131   */\n              add\n                /* \"--CODEGEN--\":113:143   */\n              and\n                /* \"--CODEGEN--\":106:143   */\n              swap1\n              pop\n                /* \"--CODEGEN--\":169:172   */\n              dup1\n                /* \"--CODEGEN--\":161:167   */\n              dup4\n                /* \"--CODEGEN--\":157:173   */\n              add\n                /* \"--CODEGEN--\":147:173   */\n              swap3\n              pop\n                /* \"contracts/Lesson2_Storage.sol\":212:313  function Store(string memory name, int money) public {\r... */\n              pop\n              pop\n              pop\n              pop\n              pop\n              pop\n              swap2\n              swap3\n              swap2\n              swap3\n              swap1\n              dup1\n              calldataload\n              swap1\n              0x20\n              add\n              swap1\n              swap3\n              swap2\n              swap1\n              pop\n              pop\n              pop\n              tag_18\n              jump\t// in\n            tag_13:\n              stop\n                /* \"contracts/Lesson2_Storage.sol\":319:376  function str(int num) public{\r... */\n            tag_5:\n              tag_19\n              0x04\n              dup1\n              calldatasize\n              sub\n                /* \"--CODEGEN--\":15:17   */\n              0x20\n                /* \"--CODEGEN--\":10:13   */\n              dup2\n                /* \"--CODEGEN--\":7:18   */\n              lt\n                /* \"--CODEGEN--\":4:6   */\n              iszero\n              tag_20\n              jumpi\n                /* \"--CODEGEN--\":31:32   */\n              0x00\n                /* \"--CODEGEN--\":28:29   */\n              dup1\n                /* \"--CODEGEN--\":21:33   */\n              revert\n                /* \"--CODEGEN--\":4:6   */\n            tag_20:\n                /* \"contracts/Lesson2_Storage.sol\":319:376  function str(int num) public{\r... */\n              dup2\n              add\n              swap1\n              dup1\n              dup1\n              calldataload\n              swap1\n              0x20\n              add\n              swap1\n              swap3\n              swap2\n              swap1\n              pop\n              pop\n              pop\n              tag_21\n              jump\t// in\n            tag_19:\n              stop\n                /* \"contracts/Lesson2_Storage.sol\":139:155  man[] public men */\n            tag_6:\n              tag_22\n              0x04\n              dup1\n              calldatasize\n              sub\n                /* \"--CODEGEN--\":15:17   */\n              0x20\n                /* \"--CODEGEN--\":10:13   */\n              dup2\n                /* \"--CODEGEN--\":7:18   */\n              lt\n                /* \"--CODEGEN--\":4:6   */\n              iszero\n              tag_23\n              jumpi\n                /* \"--CODEGEN--\":31:32   */\n              0x00\n                /* \"--CODEGEN--\":28:29   */\n              dup1\n                /* \"--CODEGEN--\":21:33   */\n              revert\n                /* \"--CODEGEN--\":4:6   */\n            tag_23:\n                /* \"contracts/Lesson2_Storage.sol\":139:155  man[] public men */\n              dup2\n              add\n              swap1\n              dup1\n              dup1\n              calldataload\n              swap1\n              0x20\n              add\n              swap1\n              swap3\n              swap2\n              swap1\n              pop\n              pop\n              pop\n              tag_24\n              jump\t// in\n            tag_22:\n              mload(0x40)\n              dup1\n              dup1\n              0x20\n              add\n              dup4\n              dup2\n              mstore\n              0x20\n              add\n              dup3\n              dup2\n              sub\n              dup3\n              mstore\n              dup5\n              dup2\n              dup2\n              mload\n              dup2\n              mstore\n              0x20\n              add\n              swap2\n              pop\n              dup1\n              mload\n              swap1\n              0x20\n              add\n              swap1\n              dup1\n              dup4\n              dup4\n                /* \"--CODEGEN--\":23:24   */\n              0x00\n                /* \"--CODEGEN--\":8:108   */\n            tag_25:\n                /* \"--CODEGEN--\":33:36   */\n              dup4\n                /* \"--CODEGEN--\":30:31   */\n              dup2\n                /* \"--CODEGEN--\":27:37   */\n              lt\n                /* \"--CODEGEN--\":8:108   */\n              iszero\n              tag_27\n              jumpi\n                /* \"--CODEGEN--\":99:100   */\n              dup1\n                /* \"--CODEGEN--\":94:97   */\n              dup3\n                /* \"--CODEGEN--\":90:101   */\n              add\n                /* \"--CODEGEN--\":84:102   */\n              mload\n                /* \"--CODEGEN--\":80:81   */\n              dup2\n                /* \"--CODEGEN--\":75:78   */\n              dup5\n                /* \"--CODEGEN--\":71:82   */\n              add\n                /* \"--CODEGEN--\":64:103   */\n              mstore\n                /* \"--CODEGEN--\":52:54   */\n              0x20\n                /* \"--CODEGEN--\":49:50   */\n              dup2\n                /* \"--CODEGEN--\":45:55   */\n              add\n                /* \"--CODEGEN--\":40:55   */\n              swap1\n              pop\n                /* \"--CODEGEN--\":8:108   */\n              jump(tag_25)\n            tag_27:\n                /* \"--CODEGEN--\":12:26   */\n              pop\n                /* \"contracts/Lesson2_Storage.sol\":139:155  man[] public men */\n              pop\n              pop\n              pop\n              swap1\n              pop\n              swap1\n              dup2\n              add\n              swap1\n              0x1f\n              and\n              dup1\n              iszero\n              tag_28\n              jumpi\n              dup1\n              dup3\n              sub\n              dup1\n              mload\n              0x01\n              dup4\n              0x20\n              sub\n              0x0100\n              exp\n              sub\n              not\n              and\n              dup2\n              mstore\n              0x20\n              add\n              swap2\n              pop\n            tag_28:\n              pop\n              swap4\n              pop\n              pop\n              pop\n              pop\n              mload(0x40)\n              dup1\n              swap2\n              sub\n              swap1\n              return\n                /* \"contracts/Lesson2_Storage.sol\":162:203  mapping(string => int ) public name_money */\n            tag_12:\n              0x02\n              dup2\n                /* \"--CODEGEN--\":28:35   */\n              dup1\n                /* \"--CODEGEN--\":22:36   */\n              mload\n                /* \"--CODEGEN--\":169:173   */\n              0x20\n                /* \"--CODEGEN--\":160:167   */\n              dup2\n                /* \"--CODEGEN--\":156:174   */\n              add\n                /* \"--CODEGEN--\":147:154   */\n              dup3\n                /* \"--CODEGEN--\":143:175   */\n              add\n                /* \"--CODEGEN--\":204:217   */\n              dup1\n                /* \"--CODEGEN--\":198:218   */\n              mload\n                /* \"--CODEGEN--\":246:254   */\n              dup5\n                /* \"--CODEGEN--\":231:244   */\n              dup3\n                /* \"--CODEGEN--\":224:255   */\n              mstore\n                /* \"--CODEGEN--\":316:320   */\n              0x20\n                /* \"--CODEGEN--\":307:314   */\n              dup4\n                /* \"--CODEGEN--\":303:321   */\n              add\n                /* \"--CODEGEN--\":296:300   */\n              0x20\n                /* \"--CODEGEN--\":287:294   */\n              dup6\n                /* \"--CODEGEN--\":283:301   */\n              add\n                /* \"--CODEGEN--\":273:322   */\n              keccak256\n                /* \"--CODEGEN--\":350:359   */\n              dup2\n                /* \"--CODEGEN--\":335:348   */\n              dup4\n                /* \"--CODEGEN--\":328:360   */\n              mstore\n                /* \"--CODEGEN--\":378:382   */\n              dup1\n                /* \"--CODEGEN--\":366:382   */\n              swap6\n              pop\n                /* \"--CODEGEN--\":0:388   */\n              pop\n              pop\n              pop\n              pop\n                /* \"contracts/Lesson2_Storage.sol\":162:203  mapping(string => int ) public name_money */\n              pop\n              0x00\n              swap2\n              pop\n              swap1\n              pop\n              sload\n              dup2\n              jump\t// out\n                /* \"contracts/Lesson2_Storage.sol\":212:313  function Store(string memory name, int money) public {\r... */\n            tag_18:\n                /* \"contracts/Lesson2_Storage.sol\":280:283  men */\n              0x01\n                /* \"contracts/Lesson2_Storage.sol\":289:304  man(name,money) */\n              mload(0x40)\n              dup1\n              0x40\n              add\n              0x40\n              mstore\n              dup1\n                /* \"contracts/Lesson2_Storage.sol\":293:297  name */\n              dup5\n                /* \"contracts/Lesson2_Storage.sol\":289:304  man(name,money) */\n              dup2\n              mstore\n              0x20\n              add\n                /* \"contracts/Lesson2_Storage.sol\":298:303  money */\n              dup4\n                /* \"contracts/Lesson2_Storage.sol\":289:304  man(name,money) */\n              dup2\n              mstore\n              pop\n                /* \"contracts/Lesson2_Storage.sol\":280:305  men.push(man(name,money)) */\n              swap1\n              dup1\n                /* \"--CODEGEN--\":39:40   */\n              0x01\n                /* \"--CODEGEN--\":33:36   */\n              dup2\n                /* \"--CODEGEN--\":27:37   */\n              sload\n                /* \"--CODEGEN--\":23:41   */\n              add\n                /* \"--CODEGEN--\":57:67   */\n              dup1\n                /* \"--CODEGEN--\":52:55   */\n              dup3\n                /* \"--CODEGEN--\":45:68   */\n              sstore\n                /* \"--CODEGEN--\":79:89   */\n              dup1\n                /* \"--CODEGEN--\":72:89   */\n              swap2\n              pop\n                /* \"--CODEGEN--\":0:93   */\n              pop\n                /* \"contracts/Lesson2_Storage.sol\":280:305  men.push(man(name,money)) */\n              0x01\n              swap1\n              sub\n              swap1\n              0x00\n              mstore\n              keccak256(0x00, 0x20)\n              swap1\n              0x02\n              mul\n              add\n              0x00\n              swap1\n              swap2\n              swap1\n              swap2\n              swap1\n              swap2\n              pop\n              0x00\n              dup3\n              add\n              mload\n              dup2\n              0x00\n              add\n              swap1\n              dup1\n              mload\n              swap1\n              0x20\n              add\n              swap1\n              tag_31\n              swap3\n              swap2\n              swap1\n              tag_32\n              jump\t// in\n            tag_31:\n              pop\n              0x20\n              dup3\n              add\n              mload\n              dup2\n              0x01\n              add\n              sstore\n              pop\n              pop\n                /* \"contracts/Lesson2_Storage.sol\":212:313  function Store(string memory name, int money) public {\r... */\n              pop\n              pop\n              jump\t// out\n                /* \"contracts/Lesson2_Storage.sol\":319:376  function str(int num) public{\r... */\n            tag_21:\n                /* \"contracts/Lesson2_Storage.sol\":365:368  num */\n              dup1\n                /* \"contracts/Lesson2_Storage.sol\":358:364  favnum */\n              0x00\n                /* \"contracts/Lesson2_Storage.sol\":358:368  favnum=num */\n              dup2\n              swap1\n              sstore\n              pop\n                /* \"contracts/Lesson2_Storage.sol\":319:376  function str(int num) public{\r... */\n              pop\n              jump\t// out\n                /* \"contracts/Lesson2_Storage.sol\":139:155  man[] public men */\n            tag_24:\n              0x01\n              dup2\n              dup2\n              sload\n              dup2\n              lt\n              tag_34\n              jumpi\n              invalid\n            tag_34:\n              swap1\n              0x00\n              mstore\n              keccak256(0x00, 0x20)\n              swap1\n              0x02\n              mul\n              add\n              0x00\n              swap2\n              pop\n              swap1\n              pop\n              dup1\n              0x00\n              add\n              dup1\n              sload\n              0x01\n              dup2\n              0x01\n              and\n              iszero\n              0x0100\n              mul\n              sub\n              and\n              0x02\n              swap1\n              div\n              dup1\n              0x1f\n              add\n              0x20\n              dup1\n              swap2\n              div\n              mul\n              0x20\n              add\n              mload(0x40)\n              swap1\n              dup2\n              add\n              0x40\n              mstore\n              dup1\n              swap3\n              swap2\n              swap1\n              dup2\n              dup2\n              mstore\n              0x20\n              add\n              dup3\n              dup1\n              sload\n              0x01\n              dup2\n              0x01\n              and\n              iszero\n              0x0100\n              mul\n              sub\n              and\n              0x02\n              swap1\n              div\n              dup1\n              iszero\n              tag_36\n              jumpi\n              dup1\n              0x1f\n              lt\n              tag_37\n              jumpi\n              0x0100\n              dup1\n              dup4\n              sload\n              div\n              mul\n              dup4\n              mstore\n              swap2\n              0x20\n              add\n              swap2\n              jump(tag_36)\n            tag_37:\n              dup3\n              add\n              swap2\n              swap1\n              0x00\n              mstore\n              keccak256(0x00, 0x20)\n              swap1\n            tag_38:\n              dup2\n              sload\n              dup2\n              mstore\n              swap1\n              0x01\n              add\n              swap1\n              0x20\n              add\n              dup1\n              dup4\n              gt\n              tag_38\n              jumpi\n              dup3\n              swap1\n              sub\n              0x1f\n              and\n              dup3\n              add\n              swap2\n            tag_36:\n              pop\n              pop\n              pop\n              pop\n              pop\n              swap1\n              dup1\n              0x01\n              add\n              sload\n              swap1\n              pop\n              dup3\n              jump\t// out\n                /* \"contracts/Lesson2_Storage.sol\":29:379  contract Storage{\r... */\n            tag_32:\n              dup3\n              dup1\n              sload\n              0x01\n              dup2\n              0x01\n              and\n              iszero\n              0x0100\n              mul\n              sub\n              and\n              0x02\n              swap1\n              div\n              swap1\n              0x00\n              mstore\n              keccak256(0x00, 0x20)\n              swap1\n              0x1f\n              add\n              0x20\n              swap1\n              div\n              dup2\n              add\n              swap3\n              dup3\n              0x1f\n              lt\n              tag_40\n              jumpi\n              dup1\n              mload\n              not(0xff)\n              and\n              dup4\n              dup1\n              add\n              or\n              dup6\n              sstore\n              jump(tag_39)\n            tag_40:\n              dup3\n              dup1\n              add\n              0x01\n              add\n              dup6\n              sstore\n              dup3\n              iszero\n              tag_39\n              jumpi\n              swap2\n              dup3\n              add\n            tag_41:\n              dup3\n              dup2\n              gt\n              iszero\n              tag_42\n              jumpi\n              dup3\n              mload\n              dup3\n              sstore\n              swap2\n              0x20\n              add\n              swap2\n              swap1\n              0x01\n              add\n              swap1\n              jump(tag_41)\n            tag_42:\n            tag_39:\n              pop\n              swap1\n              pop\n              tag_43\n              swap2\n              swap1\n              tag_44\n              jump\t// in\n            tag_43:\n              pop\n              swap1\n              jump\t// out\n            tag_44:\n              tag_45\n              swap2\n              swap1\n            tag_46:\n              dup1\n              dup3\n              gt\n              iszero\n              tag_47\n              jumpi\n              0x00\n              dup2\n              0x00\n              swap1\n              sstore\n              pop\n              0x01\n              add\n              jump(tag_46)\n            tag_47:\n              pop\n              swap1\n              jump\n            tag_45:\n              swap1\n              jump\t// out\n\n            auxdata: 0xa2646970667358221220a737373c00255ff1e99b4f9ce77d0ac1372b8735d4500f13e3752b28733bdd7364736f6c63430006060033\n        }\n    }\n\n    auxdata: 0xa264697066735822122020215594b465bb84ed258874082be710f9a2a5b824060ca098f9ba222dcafe1864736f6c63430006060033\n}\n",
				"bytecode": {
					"linkReferences": {},
					"object": "608060405234801561001057600080fd5b50610736806100206000396000f3fe608060405234801561001057600080fd5b50600436106100415760003560e01c80633a986bb714610046578063699ac281146100505780637662a8c214610088575b600080fd5b61004e6100f6565b005b6100866004803603604081101561006657600080fd5b810190808035906020019092919080359060200190929190505050610189565b005b6100b46004803603602081101561009e57600080fd5b810190808035906020019092919050505061018d565b604051808273ffffffffffffffffffffffffffffffffffffffff1673ffffffffffffffffffffffffffffffffffffffff16815260200191505060405180910390f35b6000604051610104906101c9565b604051809103906000f080158015610120573d6000803e3d6000fd5b5090506000819080600181540180825580915050600190039060005260206000200160009091909190916101000a81548173ffffffffffffffffffffffffffffffffffffffff021916908373ffffffffffffffffffffffffffffffffffffffff16021790555050565b5050565b6000818154811061019a57fe5b906000526020600020016000915054906101000a900473ffffffffffffffffffffffffffffffffffffffff1681565b61052a806101d78339019056fe608060405234801561001057600080fd5b5061050a806100206000396000f3fe608060405234801561001057600080fd5b506004361061004c5760003560e01c80632b77973b146100515780636036f49614610120578063bb90bc05146101e5578063fe883e2e14610213575b600080fd5b61010a6004803603602081101561006757600080fd5b810190808035906020019064010000000081111561008457600080fd5b82018360208201111561009657600080fd5b803590602001918460018302840111640100000000831117156100b857600080fd5b91908080601f016020809104026020016040519081016040528093929190818152602001838380828437600081840152601f19601f8201169050808301925050505050505091929192905050506102c1565b6040518082815260200191505060405180910390f35b6101e36004803603604081101561013657600080fd5b810190808035906020019064010000000081111561015357600080fd5b82018360208201111561016557600080fd5b8035906020019184600183028401116401000000008311171561018757600080fd5b91908080601f016020809104026020016040519081016040528093929190818152602001838380828437600081840152601f19601f820116905080830192505050505050509192919290803590602001909291905050506102ef565b005b610211600480360360208110156101fb57600080fd5b810190808035906020019092919050505061035c565b005b61023f6004803603602081101561022957600080fd5b8101908080359060200190929190505050610366565b6040518080602001838152602001828103825284818151815260200191508051906020019080838360005b8381101561028557808201518184015260208101905061026a565b50505050905090810190601f1680156102b25780820380516001836020036101000a031916815260200191505b50935050505060405180910390f35b6002818051602081018201805184825260208301602085012081835280955050505050506000915090505481565b60016040518060400160405280848152602001838152509080600181540180825580915050600190039060005260206000209060020201600090919091909150600082015181600001908051906020019061034b92919061042f565b506020820151816001015550505050565b8060008190555050565b6001818154811061037357fe5b9060005260206000209060020201600091509050806000018054600181600116156101000203166002900480601f01602080910402602001604051908101604052809291908181526020018280546001816001161561010002031660029004801561041f5780601f106103f45761010080835404028352916020019161041f565b820191906000526020600020905b81548152906001019060200180831161040257829003601f168201915b5050505050908060010154905082565b828054600181600116156101000203166002900490600052602060002090601f016020900481019282601f1061047057805160ff191683800117855561049e565b8280016001018555821561049e579182015b8281111561049d578251825591602001919060010190610482565b5b5090506104ab91906104af565b5090565b6104d191905b808211156104cd5760008160009055506001016104b5565b5090565b9056fea2646970667358221220a737373c00255ff1e99b4f9ce77d0ac1372b8735d4500f13e3752b28733bdd7364736f6c63430006060033a264697066735822122020215594b465bb84ed258874082be710f9a2a5b824060ca098f9ba222dcafe1864736f6c63430006060033",
					"opcodes": "PUSH1 0x80 PUSH1 0x40 MSTORE CALLVALUE DUP1 ISZERO PUSH2 0x10 JUMPI PUSH1 0x0 DUP1 REVERT JUMPDEST POP PUSH2 0x736 DUP1 PUSH2 0x20 PUSH1 0x0 CODECOPY PUSH1 0x0 RETURN INVALID PUSH1 0x80 PUSH1 0x40 MSTORE CALLVALUE DUP1 ISZERO PUSH2 0x10 JUMPI PUSH1 0x0 DUP1 REVERT JUMPDEST POP PUSH1 0x4 CALLDATASIZE LT PUSH2 0x41 JUMPI PUSH1 0x0 CALLDATALOAD PUSH1 0xE0 SHR DUP1 PUSH4 0x3A986BB7 EQ PUSH2 0x46 JUMPI DUP1 PUSH4 0x699AC281 EQ PUSH2 0x50 JUMPI DUP1 PUSH4 0x7662A8C2 EQ PUSH2 0x88 JUMPI JUMPDEST PUSH1 0x0 DUP1 REVERT JUMPDEST PUSH2 0x4E PUSH2 0xF6 JUMP JUMPDEST STOP JUMPDEST PUSH2 0x86 PUSH1 0x4 DUP1 CALLDATASIZE SUB PUSH1 0x40 DUP2 LT ISZERO PUSH2 0x66 JUMPI PUSH1 0x0 DUP1 REVERT JUMPDEST DUP2 ADD SWAP1 DUP1 DUP1 CALLDATALOAD SWAP1 PUSH1 0x20 ADD SWAP1 SWAP3 SWAP2 SWAP1 DUP1 CALLDATALOAD SWAP1 PUSH1 0x20 ADD SWAP1 SWAP3 SWAP2 SWAP1 POP POP POP PUSH2 0x189 JUMP JUMPDEST STOP JUMPDEST PUSH2 0xB4 PUSH1 0x4 DUP1 CALLDATASIZE SUB PUSH1 0x20 DUP2 LT ISZERO PUSH2 0x9E JUMPI PUSH1 0x0 DUP1 REVERT JUMPDEST DUP2 ADD SWAP1 DUP1 DUP1 CALLDATALOAD SWAP1 PUSH1 0x20 ADD SWAP1 SWAP3 SWAP2 SWAP1 POP POP POP PUSH2 0x18D JUMP JUMPDEST PUSH1 0x40 MLOAD DUP1 DUP3 PUSH20 0xFFFFFFFFFFFFFFFFFFFFFFFFFFFFFFFFFFFFFFFF AND PUSH20 0xFFFFFFFFFFFFFFFFFFFFFFFFFFFFFFFFFFFFFFFF AND DUP2 MSTORE PUSH1 0x20 ADD SWAP2 POP POP PUSH1 0x40 MLOAD DUP1 SWAP2 SUB SWAP1 RETURN JUMPDEST PUSH1 0x0 PUSH1 0x40 MLOAD PUSH2 0x104 SWAP1 PUSH2 0x1C9 JUMP JUMPDEST PUSH1 0x40 MLOAD DUP1 SWAP2 SUB SWAP1 PUSH1 0x0 CREATE DUP1 ISZERO DUP1 ISZERO PUSH2 0x120 JUMPI RETURNDATASIZE PUSH1 0x0 DUP1 RETURNDATACOPY RETURNDATASIZE PUSH1 0x0 REVERT JUMPDEST POP SWAP1 POP PUSH1 0x0 DUP2 SWAP1 DUP1 PUSH1 0x1 DUP2 SLOAD ADD DUP1 DUP3 SSTORE DUP1 SWAP2 POP POP PUSH1 0x1 SWAP1 SUB SWAP1 PUSH1 0x0 MSTORE PUSH1 0x20 PUSH1 0x0 KECCAK256 ADD PUSH1 0x0 SWAP1 SWAP2 SWAP1 SWAP2 SWAP1 SWAP2 PUSH2 0x100 EXP DUP2 SLOAD DUP2 PUSH20 0xFFFFFFFFFFFFFFFFFFFFFFFFFFFFFFFFFFFFFFFF MUL NOT AND SWAP1 DUP4 PUSH20 0xFFFFFFFFFFFFFFFFFFFFFFFFFFFFFFFFFFFFFFFF AND MUL OR SWAP1 SSTORE POP POP JUMP JUMPDEST POP POP JUMP JUMPDEST PUSH1 0x0 DUP2 DUP2 SLOAD DUP2 LT PUSH2 0x19A JUMPI INVALID JUMPDEST SWAP1 PUSH1 0x0 MSTORE PUSH1 0x20 PUSH1 0x0 KECCAK256 ADD PUSH1 0x0 SWAP2 POP SLOAD SWAP1 PUSH2 0x100 EXP SWAP1 DIV PUSH20 0xFFFFFFFFFFFFFFFFFFFFFFFFFFFFFFFFFFFFFFFF AND DUP2 JUMP JUMPDEST PUSH2 0x52A DUP1 PUSH2 0x1D7 DUP4 CODECOPY ADD SWAP1 JUMP INVALID PUSH1 0x80 PUSH1 0x40 MSTORE CALLVALUE DUP1 ISZERO PUSH2 0x10 JUMPI PUSH1 0x0 DUP1 REVERT JUMPDEST POP PUSH2 0x50A DUP1 PUSH2 0x20 PUSH1 0x0 CODECOPY PUSH1 0x0 RETURN INVALID PUSH1 0x80 PUSH1 0x40 MSTORE CALLVALUE DUP1 ISZERO PUSH2 0x10 JUMPI PUSH1 0x0 DUP1 REVERT JUMPDEST POP PUSH1 0x4 CALLDATASIZE LT PUSH2 0x4C JUMPI PUSH1 0x0 CALLDATALOAD PUSH1 0xE0 SHR DUP1 PUSH4 0x2B77973B EQ PUSH2 0x51 JUMPI DUP1 PUSH4 0x6036F496 EQ PUSH2 0x120 JUMPI DUP1 PUSH4 0xBB90BC05 EQ PUSH2 0x1E5 JUMPI DUP1 PUSH4 0xFE883E2E EQ PUSH2 0x213 JUMPI JUMPDEST PUSH1 0x0 DUP1 REVERT JUMPDEST PUSH2 0x10A PUSH1 0x4 DUP1 CALLDATASIZE SUB PUSH1 0x20 DUP2 LT ISZERO PUSH2 0x67 JUMPI PUSH1 0x0 DUP1 REVERT JUMPDEST DUP2 ADD SWAP1 DUP1 DUP1 CALLDATALOAD SWAP1 PUSH1 0x20 ADD SWAP1 PUSH5 0x100000000 DUP2 GT ISZERO PUSH2 0x84 JUMPI PUSH1 0x0 DUP1 REVERT JUMPDEST DUP3 ADD DUP4 PUSH1 0x20 DUP3 ADD GT ISZERO PUSH2 0x96 JUMPI PUSH1 0x0 DUP1 REVERT JUMPDEST DUP1 CALLDATALOAD SWAP1 PUSH1 0x20 ADD SWAP2 DUP5 PUSH1 0x1 DUP4 MUL DUP5 ADD GT PUSH5 0x100000000 DUP4 GT OR ISZERO PUSH2 0xB8 JUMPI PUSH1 0x0 DUP1 REVERT JUMPDEST SWAP2 SWAP1 DUP1 DUP1 PUSH1 0x1F ADD PUSH1 0x20 DUP1 SWAP2 DIV MUL PUSH1 0x20 ADD PUSH1 0x40 MLOAD SWAP1 DUP2 ADD PUSH1 0x40 MSTORE DUP1 SWAP4 SWAP3 SWAP2 SWAP1 DUP2 DUP2 MSTORE PUSH1 0x20 ADD DUP4 DUP4 DUP1 DUP3 DUP5 CALLDATACOPY PUSH1 0x0 DUP2 DUP5 ADD MSTORE PUSH1 0x1F NOT PUSH1 0x1F DUP3 ADD AND SWAP1 POP DUP1 DUP4 ADD SWAP3 POP POP POP POP POP POP POP SWAP2 SWAP3 SWAP2 SWAP3 SWAP1 POP POP POP PUSH2 0x2C1 JUMP JUMPDEST PUSH1 0x40 MLOAD DUP1 DUP3 DUP2 MSTORE PUSH1 0x20 ADD SWAP2 POP POP PUSH1 0x40 MLOAD DUP1 SWAP2 SUB SWAP1 RETURN JUMPDEST PUSH2 0x1E3 PUSH1 0x4 DUP1 CALLDATASIZE SUB PUSH1 0x40 DUP2 LT ISZERO PUSH2 0x136 JUMPI PUSH1 0x0 DUP1 REVERT JUMPDEST DUP2 ADD SWAP1 DUP1 DUP1 CALLDATALOAD SWAP1 PUSH1 0x20 ADD SWAP1 PUSH5 0x100000000 DUP2 GT ISZERO PUSH2 0x153 JUMPI PUSH1 0x0 DUP1 REVERT JUMPDEST DUP3 ADD DUP4 PUSH1 0x20 DUP3 ADD GT ISZERO PUSH2 0x165 JUMPI PUSH1 0x0 DUP1 REVERT JUMPDEST DUP1 CALLDATALOAD SWAP1 PUSH1 0x20 ADD SWAP2 DUP5 PUSH1 0x1 DUP4 MUL DUP5 ADD GT PUSH5 0x100000000 DUP4 GT OR ISZERO PUSH2 0x187 JUMPI PUSH1 0x0 DUP1 REVERT JUMPDEST SWAP2 SWAP1 DUP1 DUP1 PUSH1 0x1F ADD PUSH1 0x20 DUP1 SWAP2 DIV MUL PUSH1 0x20 ADD PUSH1 0x40 MLOAD SWAP1 DUP2 ADD PUSH1 0x40 MSTORE DUP1 SWAP4 SWAP3 SWAP2 SWAP1 DUP2 DUP2 MSTORE PUSH1 0x20 ADD DUP4 DUP4 DUP1 DUP3 DUP5 CALLDATACOPY PUSH1 0x0 DUP2 DUP5 ADD MSTORE PUSH1 0x1F NOT PUSH1 0x1F DUP3 ADD AND SWAP1 POP DUP1 DUP4 ADD SWAP3 POP POP POP POP POP POP POP SWAP2 SWAP3 SWAP2 SWAP3 SWAP1 DUP1 CALLDATALOAD SWAP1 PUSH1 0x20 ADD SWAP1 SWAP3 SWAP2 SWAP1 POP POP POP PUSH2 0x2EF JUMP JUMPDEST STOP JUMPDEST PUSH2 0x211 PUSH1 0x4 DUP1 CALLDATASIZE SUB PUSH1 0x20 DUP2 LT ISZERO PUSH2 0x1FB JUMPI PUSH1 0x0 DUP1 REVERT JUMPDEST DUP2 ADD SWAP1 DUP1 DUP1 CALLDATALOAD SWAP1 PUSH1 0x20 ADD SWAP1 SWAP3 SWAP2 SWAP1 POP POP POP PUSH2 0x35C JUMP JUMPDEST STOP JUMPDEST PUSH2 0x23F PUSH1 0x4 DUP1 CALLDATASIZE SUB PUSH1 0x20 DUP2 LT ISZERO PUSH2 0x229 JUMPI PUSH1 0x0 DUP1 REVERT JUMPDEST DUP2 ADD SWAP1 DUP1 DUP1 CALLDATALOAD SWAP1 PUSH1 0x20 ADD SWAP1 SWAP3 SWAP2 SWAP1 POP POP POP PUSH2 0x366 JUMP JUMPDEST PUSH1 0x40 MLOAD DUP1 DUP1 PUSH1 0x20 ADD DUP4 DUP2 MSTORE PUSH1 0x20 ADD DUP3 DUP2 SUB DUP3 MSTORE DUP5 DUP2 DUP2 MLOAD DUP2 MSTORE PUSH1 0x20 ADD SWAP2 POP DUP1 MLOAD SWAP1 PUSH1 0x20 ADD SWAP1 DUP1 DUP4 DUP4 PUSH1 0x0 JUMPDEST DUP4 DUP2 LT ISZERO PUSH2 0x285 JUMPI DUP1 DUP3 ADD MLOAD DUP2 DUP5 ADD MSTORE PUSH1 0x20 DUP2 ADD SWAP1 POP PUSH2 0x26A JUMP JUMPDEST POP POP POP POP SWAP1 POP SWAP1 DUP2 ADD SWAP1 PUSH1 0x1F AND DUP1 ISZERO PUSH2 0x2B2 JUMPI DUP1 DUP3 SUB DUP1 MLOAD PUSH1 0x1 DUP4 PUSH1 0x20 SUB PUSH2 0x100 EXP SUB NOT AND DUP2 MSTORE PUSH1 0x20 ADD SWAP2 POP JUMPDEST POP SWAP4 POP POP POP POP PUSH1 0x40 MLOAD DUP1 SWAP2 SUB SWAP1 RETURN JUMPDEST PUSH1 0x2 DUP2 DUP1 MLOAD PUSH1 0x20 DUP2 ADD DUP3 ADD DUP1 MLOAD DUP5 DUP3 MSTORE PUSH1 0x20 DUP4 ADD PUSH1 0x20 DUP6 ADD KECCAK256 DUP2 DUP4 MSTORE DUP1 SWAP6 POP POP POP POP POP POP PUSH1 0x0 SWAP2 POP SWAP1 POP SLOAD DUP2 JUMP JUMPDEST PUSH1 0x1 PUSH1 0x40 MLOAD DUP1 PUSH1 0x40 ADD PUSH1 0x40 MSTORE DUP1 DUP5 DUP2 MSTORE PUSH1 0x20 ADD DUP4 DUP2 MSTORE POP SWAP1 DUP1 PUSH1 0x1 DUP2 SLOAD ADD DUP1 DUP3 SSTORE DUP1 SWAP2 POP POP PUSH1 0x1 SWAP1 SUB SWAP1 PUSH1 0x0 MSTORE PUSH1 0x20 PUSH1 0x0 KECCAK256 SWAP1 PUSH1 0x2 MUL ADD PUSH1 0x0 SWAP1 SWAP2 SWAP1 SWAP2 SWAP1 SWAP2 POP PUSH1 0x0 DUP3 ADD MLOAD DUP2 PUSH1 0x0 ADD SWAP1 DUP1 MLOAD SWAP1 PUSH1 0x20 ADD SWAP1 PUSH2 0x34B SWAP3 SWAP2 SWAP1 PUSH2 0x42F JUMP JUMPDEST POP PUSH1 0x20 DUP3 ADD MLOAD DUP2 PUSH1 0x1 ADD SSTORE POP POP POP POP JUMP JUMPDEST DUP1 PUSH1 0x0 DUP2 SWAP1 SSTORE POP POP JUMP JUMPDEST PUSH1 0x1 DUP2 DUP2 SLOAD DUP2 LT PUSH2 0x373 JUMPI INVALID JUMPDEST SWAP1 PUSH1 0x0 MSTORE PUSH1 0x20 PUSH1 0x0 KECCAK256 SWAP1 PUSH1 0x2 MUL ADD PUSH1 0x0 SWAP2 POP SWAP1 POP DUP1 PUSH1 0x0 ADD DUP1 SLOAD PUSH1 0x1 DUP2 PUSH1 0x1 AND ISZERO PUSH2 0x100 MUL SUB AND PUSH1 0x2 SWAP1 DIV DUP1 PUSH1 0x1F ADD PUSH1 0x20 DUP1 SWAP2 DIV MUL PUSH1 0x20 ADD PUSH1 0x40 MLOAD SWAP1 DUP2 ADD PUSH1 0x40 MSTORE DUP1 SWAP3 SWAP2 SWAP1 DUP2 DUP2 MSTORE PUSH1 0x20 ADD DUP3 DUP1 SLOAD PUSH1 0x1 DUP2 PUSH1 0x1 AND ISZERO PUSH2 0x100 MUL SUB AND PUSH1 0x2 SWAP1 DIV DUP1 ISZERO PUSH2 0x41F JUMPI DUP1 PUSH1 0x1F LT PUSH2 0x3F4 JUMPI PUSH2 0x100 DUP1 DUP4 SLOAD DIV MUL DUP4 MSTORE SWAP2 PUSH1 0x20 ADD SWAP2 PUSH2 0x41F JUMP JUMPDEST DUP3 ADD SWAP2 SWAP1 PUSH1 0x0 MSTORE PUSH1 0x20 PUSH1 0x0 KECCAK256 SWAP1 JUMPDEST DUP2 SLOAD DUP2 MSTORE SWAP1 PUSH1 0x1 ADD SWAP1 PUSH1 0x20 ADD DUP1 DUP4 GT PUSH2 0x402 JUMPI DUP3 SWAP1 SUB PUSH1 0x1F AND DUP3 ADD SWAP2 JUMPDEST POP POP POP POP POP SWAP1 DUP1 PUSH1 0x1 ADD SLOAD SWAP1 POP DUP3 JUMP JUMPDEST DUP3 DUP1 SLOAD PUSH1 0x1 DUP2 PUSH1 0x1 AND ISZERO PUSH2 0x100 MUL SUB AND PUSH1 0x2 SWAP1 DIV SWAP1 PUSH1 0x0 MSTORE PUSH1 0x20 PUSH1 0x0 KECCAK256 SWAP1 PUSH1 0x1F ADD PUSH1 0x20 SWAP1 DIV DUP2 ADD SWAP3 DUP3 PUSH1 0x1F LT PUSH2 0x470 JUMPI DUP1 MLOAD PUSH1 0xFF NOT AND DUP4 DUP1 ADD OR DUP6 SSTORE PUSH2 0x49E JUMP JUMPDEST DUP3 DUP1 ADD PUSH1 0x1 ADD DUP6 SSTORE DUP3 ISZERO PUSH2 0x49E JUMPI SWAP2 DUP3 ADD JUMPDEST DUP3 DUP2 GT ISZERO PUSH2 0x49D JUMPI DUP3 MLOAD DUP3 SSTORE SWAP2 PUSH1 0x20 ADD SWAP2 SWAP1 PUSH1 0x1 ADD SWAP1 PUSH2 0x482 JUMP JUMPDEST JUMPDEST POP SWAP1 POP PUSH2 0x4AB SWAP2 SWAP1 PUSH2 0x4AF JUMP JUMPDEST POP SWAP1 JUMP JUMPDEST PUSH2 0x4D1 SWAP2 SWAP1 JUMPDEST DUP1 DUP3 GT ISZERO PUSH2 0x4CD JUMPI PUSH1 0x0 DUP2 PUSH1 0x0 SWAP1 SSTORE POP PUSH1 0x1 ADD PUSH2 0x4B5 JUMP JUMPDEST POP SWAP1 JUMP JUMPDEST SWAP1 JUMP INVALID LOG2 PUSH5 0x6970667358 0x22 SLT KECCAK256 0xA7 CALLDATACOPY CALLDATACOPY EXTCODECOPY STOP 0x25 0x5F CALL 0xE9 SWAP12 0x4F SWAP13 0xE7 PUSH30 0xAC1372B8735D4500F13E3752B28733BDD7364736F6C63430006060033A2 PUSH5 0x6970667358 0x22 SLT KECCAK256 KECCAK256 0x21 SSTORE SWAP5 0xB4 PUSH6 0xBB84ED258874 ADDMOD 0x2B 0xE7 LT 0xF9 LOG2 0xA5 0xB8 0x24 MOD 0xC LOG0 SWAP9 0xF9 0xBA 0x22 0x2D 0xCA INVALID XOR PUSH5 0x736F6C6343 STOP MOD MOD STOP CALLER "
				},
				"gasEstimates": {
					"creation": {
						"codeDepositCost": "369200",
						"executionCost": "405",
						"totalCost": "369605"
					},
					"external": {
						"CreateSC()": "infinite",
						"sfstr(int256,int256)": "257",
						"sta(uint256)": "2039"
					}
				},
				"methodIdentifiers": {
					"CreateSC()": "3a986bb7",
					"sfstr(int256,int256)": "699ac281",
					"sta(uint256)": "7662a8c2"
				}
			},
			"storageLayout": {
				"storage": [
					{
						"astId": 49,
						"contract": "contracts/Lesson3_Storage_Factory.sol:StorageFactory",
						"label": "sta",
						"offset": 0,
						"slot": "0",
						"type": "t_array(t_contract(Storage)43)dyn_storage"
					}
				],
				"types": {
					"t_array(t_contract(Storage)43)dyn_storage": {
						"base": "t_contract(Storage)43",
						"encoding": "dynamic_array",
						"label": "contract Storage[]",
						"numberOfBytes": "32"
					},
					"t_contract(Storage)43": {
						"encoding": "inplace",
						"label": "contract Storage",
						"numberOfBytes": "20"
					}
				}
			},
			"userdoc": {
				"methods": {}
			}
		}
	}
}